{
	"BEP20.sol": {
		"BEP20": {
			"abi": [
				{
					"inputs": [
						{
							"internalType": "string",
							"name": "name_",
							"type": "string"
						},
						{
							"internalType": "string",
							"name": "symbol_",
							"type": "string"
						},
						{
							"internalType": "uint8",
							"name": "decimals_",
							"type": "uint8"
						}
					],
					"stateMutability": "nonpayable",
					"type": "constructor"
				},
				{
					"anonymous": false,
					"inputs": [
						{
							"indexed": false,
							"internalType": "address",
							"name": "admin",
							"type": "address"
						}
					],
					"name": "AdminAppointed",
					"type": "event"
				},
				{
					"anonymous": false,
					"inputs": [
						{
							"indexed": false,
							"internalType": "address",
							"name": "admin",
							"type": "address"
						}
					],
					"name": "AdminDismissed",
					"type": "event"
				},
				{
					"anonymous": false,
					"inputs": [
						{
							"indexed": true,
							"internalType": "address",
							"name": "owner",
							"type": "address"
						},
						{
							"indexed": true,
							"internalType": "address",
							"name": "spender",
							"type": "address"
						},
						{
							"indexed": false,
							"internalType": "uint256",
							"name": "value",
							"type": "uint256"
						}
					],
					"name": "Approval",
					"type": "event"
				},
				{
					"anonymous": false,
					"inputs": [
						{
							"indexed": true,
							"internalType": "address",
							"name": "previousOwner",
							"type": "address"
						},
						{
							"indexed": true,
							"internalType": "address",
							"name": "newOwner",
							"type": "address"
						}
					],
					"name": "OwnershipTransferred",
					"type": "event"
				},
				{
					"anonymous": false,
					"inputs": [
						{
							"indexed": true,
							"internalType": "address",
							"name": "from",
							"type": "address"
						},
						{
							"indexed": true,
							"internalType": "address",
							"name": "to",
							"type": "address"
						},
						{
							"indexed": false,
							"internalType": "uint256",
							"name": "value",
							"type": "uint256"
						}
					],
					"name": "Transfer",
					"type": "event"
				},
				{
					"inputs": [
						{
							"internalType": "address",
							"name": "owner",
							"type": "address"
						},
						{
							"internalType": "address",
							"name": "spender",
							"type": "address"
						}
					],
					"name": "allowance",
					"outputs": [
						{
							"internalType": "uint256",
							"name": "",
							"type": "uint256"
						}
					],
					"stateMutability": "view",
					"type": "function"
				},
				{
					"inputs": [
						{
							"internalType": "address",
							"name": "_newAdmin",
							"type": "address"
						}
					],
					"name": "appointAdmin",
					"outputs": [
						{
							"internalType": "bool",
							"name": "success",
							"type": "bool"
						}
					],
					"stateMutability": "nonpayable",
					"type": "function"
				},
				{
					"inputs": [
						{
							"internalType": "address",
							"name": "spender",
							"type": "address"
						},
						{
							"internalType": "uint256",
							"name": "value",
							"type": "uint256"
						}
					],
					"name": "approve",
					"outputs": [
						{
							"internalType": "bool",
							"name": "",
							"type": "bool"
						}
					],
					"stateMutability": "nonpayable",
					"type": "function"
				},
				{
					"inputs": [
						{
							"internalType": "address",
							"name": "owner",
							"type": "address"
						}
					],
					"name": "balanceOf",
					"outputs": [
						{
							"internalType": "uint256",
							"name": "",
							"type": "uint256"
						}
					],
					"stateMutability": "view",
					"type": "function"
				},
				{
					"inputs": [],
					"name": "claimOwnership",
					"outputs": [],
					"stateMutability": "nonpayable",
					"type": "function"
				},
				{
					"inputs": [],
					"name": "decimals",
					"outputs": [
						{
							"internalType": "uint8",
							"name": "",
							"type": "uint8"
						}
					],
					"stateMutability": "view",
					"type": "function"
				},
				{
					"inputs": [
						{
							"internalType": "address",
							"name": "spender",
							"type": "address"
						},
						{
							"internalType": "uint256",
							"name": "subtractedValue",
							"type": "uint256"
						}
					],
					"name": "decreaseAllowance",
					"outputs": [
						{
							"internalType": "bool",
							"name": "",
							"type": "bool"
						}
					],
					"stateMutability": "nonpayable",
					"type": "function"
				},
				{
					"inputs": [
						{
							"internalType": "address",
							"name": "_admin",
							"type": "address"
						}
					],
					"name": "dismissAdmin",
					"outputs": [
						{
							"internalType": "bool",
							"name": "success",
							"type": "bool"
						}
					],
					"stateMutability": "nonpayable",
					"type": "function"
				},
				{
					"inputs": [],
					"name": "getOwner",
					"outputs": [
						{
							"internalType": "address",
							"name": "",
							"type": "address"
						}
					],
					"stateMutability": "view",
					"type": "function"
				},
				{
					"inputs": [
						{
							"internalType": "address",
							"name": "spender",
							"type": "address"
						},
						{
							"internalType": "uint256",
							"name": "addedValue",
							"type": "uint256"
						}
					],
					"name": "increaseAllowance",
					"outputs": [
						{
							"internalType": "bool",
							"name": "",
							"type": "bool"
						}
					],
					"stateMutability": "nonpayable",
					"type": "function"
				},
				{
					"inputs": [
						{
							"internalType": "address",
							"name": "",
							"type": "address"
						}
					],
					"name": "isAdmin",
					"outputs": [
						{
							"internalType": "bool",
							"name": "",
							"type": "bool"
						}
					],
					"stateMutability": "view",
					"type": "function"
				},
				{
					"inputs": [],
					"name": "isOwner",
					"outputs": [
						{
							"internalType": "bool",
							"name": "",
							"type": "bool"
						}
					],
					"stateMutability": "view",
					"type": "function"
				},
				{
					"inputs": [],
					"name": "name",
					"outputs": [
						{
							"internalType": "string",
							"name": "",
							"type": "string"
						}
					],
					"stateMutability": "view",
					"type": "function"
				},
				{
					"inputs": [],
					"name": "owner",
					"outputs": [
						{
							"internalType": "address",
							"name": "",
							"type": "address"
						}
					],
					"stateMutability": "view",
					"type": "function"
				},
				{
					"inputs": [],
					"name": "pendingOwner",
					"outputs": [
						{
							"internalType": "address",
							"name": "",
							"type": "address"
						}
					],
					"stateMutability": "view",
					"type": "function"
				},
				{
					"inputs": [],
					"name": "symbol",
					"outputs": [
						{
							"internalType": "string",
							"name": "",
							"type": "string"
						}
					],
					"stateMutability": "view",
					"type": "function"
				},
				{
					"inputs": [],
					"name": "totalBurnt",
					"outputs": [
						{
							"internalType": "uint256",
							"name": "",
							"type": "uint256"
						}
					],
					"stateMutability": "view",
					"type": "function"
				},
				{
					"inputs": [],
					"name": "totalSupply",
					"outputs": [
						{
							"internalType": "uint256",
							"name": "",
							"type": "uint256"
						}
					],
					"stateMutability": "view",
					"type": "function"
				},
				{
					"inputs": [
						{
							"internalType": "address",
							"name": "to",
							"type": "address"
						},
						{
							"internalType": "uint256",
							"name": "value",
							"type": "uint256"
						}
					],
					"name": "transfer",
					"outputs": [
						{
							"internalType": "bool",
							"name": "",
							"type": "bool"
						}
					],
					"stateMutability": "nonpayable",
					"type": "function"
				},
				{
					"inputs": [
						{
							"internalType": "address",
							"name": "from",
							"type": "address"
						},
						{
							"internalType": "address",
							"name": "to",
							"type": "address"
						},
						{
							"internalType": "uint256",
							"name": "value",
							"type": "uint256"
						}
					],
					"name": "transferFrom",
					"outputs": [
						{
							"internalType": "bool",
							"name": "",
							"type": "bool"
						}
					],
					"stateMutability": "nonpayable",
					"type": "function"
				},
				{
					"inputs": [
						{
							"internalType": "address",
							"name": "_newOwner",
							"type": "address"
						}
					],
					"name": "transferOwnership",
					"outputs": [],
					"stateMutability": "nonpayable",
					"type": "function"
				}
			],
			"devdoc": {
				"events": {
					"Approval(address,address,uint256)": {
						"details": "Emitted when the allowance of a `spender` for an `owner` is set by a call to {approve}. `value` is the new allowance."
					},
					"Transfer(address,address,uint256)": {
						"details": "Emitted when `value` tokens are moved from one account (`from`) to another (`to`). Note that `value` may be zero."
					}
				},
				"kind": "dev",
				"methods": {
					"decimals()": {
						"details": "Returns the token decimals."
					},
					"getOwner()": {
						"details": "Returns the bep token owner."
					},
					"name()": {
						"details": "Returns the token name."
					},
					"symbol()": {
						"details": "Returns the token symbol."
					},
					"totalSupply()": {
						"details": "Returns the amount of tokens in existence."
					}
				},
				"version": 1
			},
			"evm": {
				"assembly": "    /* \"BEP20.sol\":3273:7529  contract BEP20 is IBEP20, Administrable {... */\n  mstore(0x40, 0x80)\n    /* \"BEP20.sol\":3643:3842  constructor(... */\n  callvalue\n  dup1\n  iszero\n  tag_1\n  jumpi\n  0x00\n  dup1\n  revert\ntag_1:\n  pop\n  mload(0x40)\n  sub(codesize, bytecodeSize)\n  dup1\n  bytecodeSize\n  dup4\n  codecopy\n  dup2\n  dup2\n  add\n  0x40\n  mstore\n  dup2\n  add\n  swap1\n  tag_2\n  swap2\n  swap1\n  tag_3\n  jump\t// in\ntag_2:\n    /* \"Claimable.sol\":380:390  msg.sender */\n  caller\n    /* \"Claimable.sol\":372:377  owner */\n  0x00\n  dup1\n    /* \"Claimable.sol\":372:390  owner = msg.sender */\n  0x0100\n  exp\n  dup2\n  sload\n  dup2\n  0xffffffffffffffffffffffffffffffffffffffff\n  mul\n  not\n  and\n  swap1\n  dup4\n  0xffffffffffffffffffffffffffffffffffffffff\n  and\n  mul\n  or\n  swap1\n  sstore\n  pop\n    /* \"Claimable.sol\":439:444  owner */\n  0x00\n  dup1\n  sload\n  swap1\n  0x0100\n  exp\n  swap1\n  div\n  0xffffffffffffffffffffffffffffffffffffffff\n  and\n    /* \"Claimable.sol\":406:445  OwnershipTransferred(address(0), owner) */\n  0xffffffffffffffffffffffffffffffffffffffff\n  and\n    /* \"Claimable.sol\":435:436  0 */\n  0x00\n    /* \"Claimable.sol\":406:445  OwnershipTransferred(address(0), owner) */\n  0xffffffffffffffffffffffffffffffffffffffff\n  and\n  0x8be0079c531659141344cd1fd0a4f28419497f9722a3daafe3b4186f6b6457e0\n  mload(0x40)\n  mload(0x40)\n  dup1\n  swap2\n  sub\n  swap1\n  log3\n    /* \"Administrable.sol\":313:317  true */\n  0x01\n    /* \"Administrable.sol\":296:303  isAdmin */\n  0x02\n    /* \"Administrable.sol\":296:310  isAdmin[owner] */\n  0x00\n    /* \"Administrable.sol\":304:309  owner */\n  dup1\n  0x00\n  swap1\n  sload\n  swap1\n  0x0100\n  exp\n  swap1\n  div\n  0xffffffffffffffffffffffffffffffffffffffff\n  and\n    /* \"Administrable.sol\":296:310  isAdmin[owner] */\n  0xffffffffffffffffffffffffffffffffffffffff\n  and\n  0xffffffffffffffffffffffffffffffffffffffff\n  and\n  dup2\n  mstore\n  0x20\n  add\n  swap1\n  dup2\n  mstore\n  0x20\n  add\n  0x00\n  keccak256\n  0x00\n    /* \"Administrable.sol\":296:317  isAdmin[owner] = true */\n  0x0100\n  exp\n  dup2\n  sload\n  dup2\n  0xff\n  mul\n  not\n  and\n  swap1\n  dup4\n  iszero\n  iszero\n  mul\n  or\n  swap1\n  sstore\n  pop\n    /* \"Administrable.sol\":335:356  AdminAppointed(owner) */\n  0x14a1a2d641f8bd1a49a31f4fd8b2e951f722e0207f936a64b44411340a52a4e6\n    /* \"Administrable.sol\":350:355  owner */\n  0x00\n  dup1\n  sload\n  swap1\n  0x0100\n  exp\n  swap1\n  div\n  0xffffffffffffffffffffffffffffffffffffffff\n  and\n    /* \"Administrable.sol\":335:356  AdminAppointed(owner) */\n  mload(0x40)\n  tag_9\n  swap2\n  swap1\n  tag_10\n  jump\t// in\ntag_9:\n  mload(0x40)\n  dup1\n  swap2\n  sub\n  swap1\n  log1\n    /* \"BEP20.sol\":3769:3774  name_ */\n  dup3\n    /* \"BEP20.sol\":3761:3766  _name */\n  0x03\n    /* \"BEP20.sol\":3761:3774  _name = name_ */\n  swap1\n  dup2\n  tag_12\n  swap2\n  swap1\n  tag_13\n  jump\t// in\ntag_12:\n  pop\n    /* \"BEP20.sol\":3795:3802  symbol_ */\n  dup2\n    /* \"BEP20.sol\":3785:3792  _symbol */\n  0x04\n    /* \"BEP20.sol\":3785:3802  _symbol = symbol_ */\n  swap1\n  dup2\n  tag_14\n  swap2\n  swap1\n  tag_13\n  jump\t// in\ntag_14:\n  pop\n    /* \"BEP20.sol\":3825:3834  decimals_ */\n  dup1\n    /* \"BEP20.sol\":3813:3822  _decimals */\n  0x05\n  0x00\n    /* \"BEP20.sol\":3813:3834  _decimals = decimals_ */\n  0x0100\n  exp\n  dup2\n  sload\n  dup2\n  0xff\n  mul\n  not\n  and\n  swap1\n  dup4\n  0xff\n  and\n  mul\n  or\n  swap1\n  sstore\n  pop\n    /* \"BEP20.sol\":3643:3842  constructor(... */\n  pop\n  pop\n  pop\n    /* \"BEP20.sol\":3273:7529  contract BEP20 is IBEP20, Administrable {... */\n  jump(tag_15)\n    /* \"#utility.yul\":7:82   */\ntag_16:\n    /* \"#utility.yul\":40:46   */\n  0x00\n    /* \"#utility.yul\":73:75   */\n  0x40\n    /* \"#utility.yul\":67:76   */\n  mload\n    /* \"#utility.yul\":57:76   */\n  swap1\n  pop\n    /* \"#utility.yul\":7:82   */\n  swap1\n  jump\t// out\n    /* \"#utility.yul\":88:205   */\ntag_17:\n    /* \"#utility.yul\":197:198   */\n  0x00\n    /* \"#utility.yul\":194:195   */\n  dup1\n    /* \"#utility.yul\":187:199   */\n  revert\n    /* \"#utility.yul\":211:328   */\ntag_18:\n    /* \"#utility.yul\":320:321   */\n  0x00\n    /* \"#utility.yul\":317:318   */\n  dup1\n    /* \"#utility.yul\":310:322   */\n  revert\n    /* \"#utility.yul\":334:451   */\ntag_19:\n    /* \"#utility.yul\":443:444   */\n  0x00\n    /* \"#utility.yul\":440:441   */\n  dup1\n    /* \"#utility.yul\":433:445   */\n  revert\n    /* \"#utility.yul\":457:574   */\ntag_20:\n    /* \"#utility.yul\":566:567   */\n  0x00\n    /* \"#utility.yul\":563:564   */\n  dup1\n    /* \"#utility.yul\":556:568   */\n  revert\n    /* \"#utility.yul\":580:682   */\ntag_21:\n    /* \"#utility.yul\":621:627   */\n  0x00\n    /* \"#utility.yul\":672:674   */\n  0x1f\n    /* \"#utility.yul\":668:675   */\n  not\n    /* \"#utility.yul\":663:665   */\n  0x1f\n    /* \"#utility.yul\":656:661   */\n  dup4\n    /* \"#utility.yul\":652:666   */\n  add\n    /* \"#utility.yul\":648:676   */\n  and\n    /* \"#utility.yul\":638:676   */\n  swap1\n  pop\n    /* \"#utility.yul\":580:682   */\n  swap2\n  swap1\n  pop\n  jump\t// out\n    /* \"#utility.yul\":688:868   */\ntag_22:\n    /* \"#utility.yul\":736:813   */\n  0x4e487b7100000000000000000000000000000000000000000000000000000000\n    /* \"#utility.yul\":733:734   */\n  0x00\n    /* \"#utility.yul\":726:814   */\n  mstore\n    /* \"#utility.yul\":833:837   */\n  0x41\n    /* \"#utility.yul\":830:831   */\n  0x04\n    /* \"#utility.yul\":823:838   */\n  mstore\n    /* \"#utility.yul\":857:861   */\n  0x24\n    /* \"#utility.yul\":854:855   */\n  0x00\n    /* \"#utility.yul\":847:862   */\n  revert\n    /* \"#utility.yul\":874:1155   */\ntag_23:\n    /* \"#utility.yul\":957:984   */\n  tag_63\n    /* \"#utility.yul\":979:983   */\n  dup3\n    /* \"#utility.yul\":957:984   */\n  tag_21\n  jump\t// in\ntag_63:\n    /* \"#utility.yul\":949:955   */\n  dup2\n    /* \"#utility.yul\":945:985   */\n  add\n    /* \"#utility.yul\":1087:1093   */\n  dup2\n    /* \"#utility.yul\":1075:1085   */\n  dup2\n    /* \"#utility.yul\":1072:1094   */\n  lt\n    /* \"#utility.yul\":1051:1069   */\n  0xffffffffffffffff\n    /* \"#utility.yul\":1039:1049   */\n  dup3\n    /* \"#utility.yul\":1036:1070   */\n  gt\n    /* \"#utility.yul\":1033:1095   */\n  or\n    /* \"#utility.yul\":1030:1118   */\n  iszero\n  tag_64\n  jumpi\n    /* \"#utility.yul\":1098:1116   */\n  tag_65\n  tag_22\n  jump\t// in\ntag_65:\n    /* \"#utility.yul\":1030:1118   */\ntag_64:\n    /* \"#utility.yul\":1138:1148   */\n  dup1\n    /* \"#utility.yul\":1134:1136   */\n  0x40\n    /* \"#utility.yul\":1127:1149   */\n  mstore\n    /* \"#utility.yul\":917:1155   */\n  pop\n    /* \"#utility.yul\":874:1155   */\n  pop\n  pop\n  jump\t// out\n    /* \"#utility.yul\":1161:1290   */\ntag_24:\n    /* \"#utility.yul\":1195:1201   */\n  0x00\n    /* \"#utility.yul\":1222:1242   */\n  tag_67\n  tag_16\n  jump\t// in\ntag_67:\n    /* \"#utility.yul\":1212:1242   */\n  swap1\n  pop\n    /* \"#utility.yul\":1251:1284   */\n  tag_68\n    /* \"#utility.yul\":1279:1283   */\n  dup3\n    /* \"#utility.yul\":1271:1277   */\n  dup3\n    /* \"#utility.yul\":1251:1284   */\n  tag_23\n  jump\t// in\ntag_68:\n    /* \"#utility.yul\":1161:1290   */\n  swap2\n  swap1\n  pop\n  jump\t// out\n    /* \"#utility.yul\":1296:1604   */\ntag_25:\n    /* \"#utility.yul\":1358:1362   */\n  0x00\n    /* \"#utility.yul\":1448:1466   */\n  0xffffffffffffffff\n    /* \"#utility.yul\":1440:1446   */\n  dup3\n    /* \"#utility.yul\":1437:1467   */\n  gt\n    /* \"#utility.yul\":1434:1490   */\n  iszero\n  tag_70\n  jumpi\n    /* \"#utility.yul\":1470:1488   */\n  tag_71\n  tag_22\n  jump\t// in\ntag_71:\n    /* \"#utility.yul\":1434:1490   */\ntag_70:\n    /* \"#utility.yul\":1508:1537   */\n  tag_72\n    /* \"#utility.yul\":1530:1536   */\n  dup3\n    /* \"#utility.yul\":1508:1537   */\n  tag_21\n  jump\t// in\ntag_72:\n    /* \"#utility.yul\":1500:1537   */\n  swap1\n  pop\n    /* \"#utility.yul\":1592:1596   */\n  0x20\n    /* \"#utility.yul\":1586:1590   */\n  dup2\n    /* \"#utility.yul\":1582:1597   */\n  add\n    /* \"#utility.yul\":1574:1597   */\n  swap1\n  pop\n    /* \"#utility.yul\":1296:1604   */\n  swap2\n  swap1\n  pop\n  jump\t// out\n    /* \"#utility.yul\":1610:1856   */\ntag_26:\n    /* \"#utility.yul\":1691:1692   */\n  0x00\n    /* \"#utility.yul\":1701:1814   */\ntag_74:\n    /* \"#utility.yul\":1715:1721   */\n  dup4\n    /* \"#utility.yul\":1712:1713   */\n  dup2\n    /* \"#utility.yul\":1709:1722   */\n  lt\n    /* \"#utility.yul\":1701:1814   */\n  iszero\n  tag_76\n  jumpi\n    /* \"#utility.yul\":1800:1801   */\n  dup1\n    /* \"#utility.yul\":1795:1798   */\n  dup3\n    /* \"#utility.yul\":1791:1802   */\n  add\n    /* \"#utility.yul\":1785:1803   */\n  mload\n    /* \"#utility.yul\":1781:1782   */\n  dup2\n    /* \"#utility.yul\":1776:1779   */\n  dup5\n    /* \"#utility.yul\":1772:1783   */\n  add\n    /* \"#utility.yul\":1765:1804   */\n  mstore\n    /* \"#utility.yul\":1737:1739   */\n  0x20\n    /* \"#utility.yul\":1734:1735   */\n  dup2\n    /* \"#utility.yul\":1730:1740   */\n  add\n    /* \"#utility.yul\":1725:1740   */\n  swap1\n  pop\n    /* \"#utility.yul\":1701:1814   */\n  jump(tag_74)\ntag_76:\n    /* \"#utility.yul\":1848:1849   */\n  0x00\n    /* \"#utility.yul\":1839:1845   */\n  dup5\n    /* \"#utility.yul\":1834:1837   */\n  dup5\n    /* \"#utility.yul\":1830:1846   */\n  add\n    /* \"#utility.yul\":1823:1850   */\n  mstore\n    /* \"#utility.yul\":1672:1856   */\n  pop\n    /* \"#utility.yul\":1610:1856   */\n  pop\n  pop\n  pop\n  jump\t// out\n    /* \"#utility.yul\":1862:2296   */\ntag_27:\n    /* \"#utility.yul\":1951:1956   */\n  0x00\n    /* \"#utility.yul\":1976:2042   */\n  tag_78\n    /* \"#utility.yul\":1992:2041   */\n  tag_79\n    /* \"#utility.yul\":2034:2040   */\n  dup5\n    /* \"#utility.yul\":1992:2041   */\n  tag_25\n  jump\t// in\ntag_79:\n    /* \"#utility.yul\":1976:2042   */\n  tag_24\n  jump\t// in\ntag_78:\n    /* \"#utility.yul\":1967:2042   */\n  swap1\n  pop\n    /* \"#utility.yul\":2065:2071   */\n  dup3\n    /* \"#utility.yul\":2058:2063   */\n  dup2\n    /* \"#utility.yul\":2051:2072   */\n  mstore\n    /* \"#utility.yul\":2103:2107   */\n  0x20\n    /* \"#utility.yul\":2096:2101   */\n  dup2\n    /* \"#utility.yul\":2092:2108   */\n  add\n    /* \"#utility.yul\":2141:2144   */\n  dup5\n    /* \"#utility.yul\":2132:2138   */\n  dup5\n    /* \"#utility.yul\":2127:2130   */\n  dup5\n    /* \"#utility.yul\":2123:2139   */\n  add\n    /* \"#utility.yul\":2120:2145   */\n  gt\n    /* \"#utility.yul\":2117:2229   */\n  iszero\n  tag_80\n  jumpi\n    /* \"#utility.yul\":2148:2227   */\n  tag_81\n  tag_20\n  jump\t// in\ntag_81:\n    /* \"#utility.yul\":2117:2229   */\ntag_80:\n    /* \"#utility.yul\":2238:2290   */\n  tag_82\n    /* \"#utility.yul\":2283:2289   */\n  dup5\n    /* \"#utility.yul\":2278:2281   */\n  dup3\n    /* \"#utility.yul\":2273:2276   */\n  dup6\n    /* \"#utility.yul\":2238:2290   */\n  tag_26\n  jump\t// in\ntag_82:\n    /* \"#utility.yul\":1957:2296   */\n  pop\n    /* \"#utility.yul\":1862:2296   */\n  swap4\n  swap3\n  pop\n  pop\n  pop\n  jump\t// out\n    /* \"#utility.yul\":2316:2671   */\ntag_28:\n    /* \"#utility.yul\":2383:2388   */\n  0x00\n    /* \"#utility.yul\":2432:2435   */\n  dup3\n    /* \"#utility.yul\":2425:2429   */\n  0x1f\n    /* \"#utility.yul\":2417:2423   */\n  dup4\n    /* \"#utility.yul\":2413:2430   */\n  add\n    /* \"#utility.yul\":2409:2436   */\n  slt\n    /* \"#utility.yul\":2399:2521   */\n  tag_84\n  jumpi\n    /* \"#utility.yul\":2440:2519   */\n  tag_85\n  tag_19\n  jump\t// in\ntag_85:\n    /* \"#utility.yul\":2399:2521   */\ntag_84:\n    /* \"#utility.yul\":2550:2556   */\n  dup2\n    /* \"#utility.yul\":2544:2557   */\n  mload\n    /* \"#utility.yul\":2575:2665   */\n  tag_86\n    /* \"#utility.yul\":2661:2664   */\n  dup5\n    /* \"#utility.yul\":2653:2659   */\n  dup3\n    /* \"#utility.yul\":2646:2650   */\n  0x20\n    /* \"#utility.yul\":2638:2644   */\n  dup7\n    /* \"#utility.yul\":2634:2651   */\n  add\n    /* \"#utility.yul\":2575:2665   */\n  tag_27\n  jump\t// in\ntag_86:\n    /* \"#utility.yul\":2566:2665   */\n  swap2\n  pop\n    /* \"#utility.yul\":2389:2671   */\n  pop\n    /* \"#utility.yul\":2316:2671   */\n  swap3\n  swap2\n  pop\n  pop\n  jump\t// out\n    /* \"#utility.yul\":2677:2763   */\ntag_29:\n    /* \"#utility.yul\":2712:2719   */\n  0x00\n    /* \"#utility.yul\":2752:2756   */\n  0xff\n    /* \"#utility.yul\":2745:2750   */\n  dup3\n    /* \"#utility.yul\":2741:2757   */\n  and\n    /* \"#utility.yul\":2730:2757   */\n  swap1\n  pop\n    /* \"#utility.yul\":2677:2763   */\n  swap2\n  swap1\n  pop\n  jump\t// out\n    /* \"#utility.yul\":2769:2887   */\ntag_30:\n    /* \"#utility.yul\":2840:2862   */\n  tag_89\n    /* \"#utility.yul\":2856:2861   */\n  dup2\n    /* \"#utility.yul\":2840:2862   */\n  tag_29\n  jump\t// in\ntag_89:\n    /* \"#utility.yul\":2833:2838   */\n  dup2\n    /* \"#utility.yul\":2830:2863   */\n  eq\n    /* \"#utility.yul\":2820:2881   */\n  tag_90\n  jumpi\n    /* \"#utility.yul\":2877:2878   */\n  0x00\n    /* \"#utility.yul\":2874:2875   */\n  dup1\n    /* \"#utility.yul\":2867:2879   */\n  revert\n    /* \"#utility.yul\":2820:2881   */\ntag_90:\n    /* \"#utility.yul\":2769:2887   */\n  pop\n  jump\t// out\n    /* \"#utility.yul\":2893:3032   */\ntag_31:\n    /* \"#utility.yul\":2948:2953   */\n  0x00\n    /* \"#utility.yul\":2979:2985   */\n  dup2\n    /* \"#utility.yul\":2973:2986   */\n  mload\n    /* \"#utility.yul\":2964:2986   */\n  swap1\n  pop\n    /* \"#utility.yul\":2995:3026   */\n  tag_92\n    /* \"#utility.yul\":3020:3025   */\n  dup2\n    /* \"#utility.yul\":2995:3026   */\n  tag_30\n  jump\t// in\ntag_92:\n    /* \"#utility.yul\":2893:3032   */\n  swap3\n  swap2\n  pop\n  pop\n  jump\t// out\n    /* \"#utility.yul\":3038:4043   */\ntag_3:\n    /* \"#utility.yul\":3144:3150   */\n  0x00\n    /* \"#utility.yul\":3152:3158   */\n  dup1\n    /* \"#utility.yul\":3160:3166   */\n  0x00\n    /* \"#utility.yul\":3209:3211   */\n  0x60\n    /* \"#utility.yul\":3197:3206   */\n  dup5\n    /* \"#utility.yul\":3188:3195   */\n  dup7\n    /* \"#utility.yul\":3184:3207   */\n  sub\n    /* \"#utility.yul\":3180:3212   */\n  slt\n    /* \"#utility.yul\":3177:3296   */\n  iszero\n  tag_94\n  jumpi\n    /* \"#utility.yul\":3215:3294   */\n  tag_95\n  tag_17\n  jump\t// in\ntag_95:\n    /* \"#utility.yul\":3177:3296   */\ntag_94:\n    /* \"#utility.yul\":3356:3357   */\n  0x00\n    /* \"#utility.yul\":3345:3354   */\n  dup5\n    /* \"#utility.yul\":3341:3358   */\n  add\n    /* \"#utility.yul\":3335:3359   */\n  mload\n    /* \"#utility.yul\":3386:3404   */\n  0xffffffffffffffff\n    /* \"#utility.yul\":3378:3384   */\n  dup2\n    /* \"#utility.yul\":3375:3405   */\n  gt\n    /* \"#utility.yul\":3372:3489   */\n  iszero\n  tag_96\n  jumpi\n    /* \"#utility.yul\":3408:3487   */\n  tag_97\n  tag_18\n  jump\t// in\ntag_97:\n    /* \"#utility.yul\":3372:3489   */\ntag_96:\n    /* \"#utility.yul\":3513:3587   */\n  tag_98\n    /* \"#utility.yul\":3579:3586   */\n  dup7\n    /* \"#utility.yul\":3570:3576   */\n  dup3\n    /* \"#utility.yul\":3559:3568   */\n  dup8\n    /* \"#utility.yul\":3555:3577   */\n  add\n    /* \"#utility.yul\":3513:3587   */\n  tag_28\n  jump\t// in\ntag_98:\n    /* \"#utility.yul\":3503:3587   */\n  swap4\n  pop\n    /* \"#utility.yul\":3306:3597   */\n  pop\n    /* \"#utility.yul\":3657:3659   */\n  0x20\n    /* \"#utility.yul\":3646:3655   */\n  dup5\n    /* \"#utility.yul\":3642:3660   */\n  add\n    /* \"#utility.yul\":3636:3661   */\n  mload\n    /* \"#utility.yul\":3688:3706   */\n  0xffffffffffffffff\n    /* \"#utility.yul\":3680:3686   */\n  dup2\n    /* \"#utility.yul\":3677:3707   */\n  gt\n    /* \"#utility.yul\":3674:3791   */\n  iszero\n  tag_99\n  jumpi\n    /* \"#utility.yul\":3710:3789   */\n  tag_100\n  tag_18\n  jump\t// in\ntag_100:\n    /* \"#utility.yul\":3674:3791   */\ntag_99:\n    /* \"#utility.yul\":3815:3889   */\n  tag_101\n    /* \"#utility.yul\":3881:3888   */\n  dup7\n    /* \"#utility.yul\":3872:3878   */\n  dup3\n    /* \"#utility.yul\":3861:3870   */\n  dup8\n    /* \"#utility.yul\":3857:3879   */\n  add\n    /* \"#utility.yul\":3815:3889   */\n  tag_28\n  jump\t// in\ntag_101:\n    /* \"#utility.yul\":3805:3889   */\n  swap3\n  pop\n    /* \"#utility.yul\":3607:3899   */\n  pop\n    /* \"#utility.yul\":3938:3940   */\n  0x40\n    /* \"#utility.yul\":3964:4026   */\n  tag_102\n    /* \"#utility.yul\":4018:4025   */\n  dup7\n    /* \"#utility.yul\":4009:4015   */\n  dup3\n    /* \"#utility.yul\":3998:4007   */\n  dup8\n    /* \"#utility.yul\":3994:4016   */\n  add\n    /* \"#utility.yul\":3964:4026   */\n  tag_31\n  jump\t// in\ntag_102:\n    /* \"#utility.yul\":3954:4026   */\n  swap2\n  pop\n    /* \"#utility.yul\":3909:4036   */\n  pop\n    /* \"#utility.yul\":3038:4043   */\n  swap3\n  pop\n  swap3\n  pop\n  swap3\n  jump\t// out\n    /* \"#utility.yul\":4049:4175   */\ntag_32:\n    /* \"#utility.yul\":4086:4093   */\n  0x00\n    /* \"#utility.yul\":4126:4168   */\n  0xffffffffffffffffffffffffffffffffffffffff\n    /* \"#utility.yul\":4119:4124   */\n  dup3\n    /* \"#utility.yul\":4115:4169   */\n  and\n    /* \"#utility.yul\":4104:4169   */\n  swap1\n  pop\n    /* \"#utility.yul\":4049:4175   */\n  swap2\n  swap1\n  pop\n  jump\t// out\n    /* \"#utility.yul\":4181:4277   */\ntag_33:\n    /* \"#utility.yul\":4218:4225   */\n  0x00\n    /* \"#utility.yul\":4247:4271   */\n  tag_105\n    /* \"#utility.yul\":4265:4270   */\n  dup3\n    /* \"#utility.yul\":4247:4271   */\n  tag_32\n  jump\t// in\ntag_105:\n    /* \"#utility.yul\":4236:4271   */\n  swap1\n  pop\n    /* \"#utility.yul\":4181:4277   */\n  swap2\n  swap1\n  pop\n  jump\t// out\n    /* \"#utility.yul\":4283:4401   */\ntag_34:\n    /* \"#utility.yul\":4370:4394   */\n  tag_107\n    /* \"#utility.yul\":4388:4393   */\n  dup2\n    /* \"#utility.yul\":4370:4394   */\n  tag_33\n  jump\t// in\ntag_107:\n    /* \"#utility.yul\":4365:4368   */\n  dup3\n    /* \"#utility.yul\":4358:4395   */\n  mstore\n    /* \"#utility.yul\":4283:4401   */\n  pop\n  pop\n  jump\t// out\n    /* \"#utility.yul\":4407:4629   */\ntag_10:\n    /* \"#utility.yul\":4500:4504   */\n  0x00\n    /* \"#utility.yul\":4538:4540   */\n  0x20\n    /* \"#utility.yul\":4527:4536   */\n  dup3\n    /* \"#utility.yul\":4523:4541   */\n  add\n    /* \"#utility.yul\":4515:4541   */\n  swap1\n  pop\n    /* \"#utility.yul\":4551:4622   */\n  tag_109\n    /* \"#utility.yul\":4619:4620   */\n  0x00\n    /* \"#utility.yul\":4608:4617   */\n  dup4\n    /* \"#utility.yul\":4604:4621   */\n  add\n    /* \"#utility.yul\":4595:4601   */\n  dup5\n    /* \"#utility.yul\":4551:4622   */\n  tag_34\n  jump\t// in\ntag_109:\n    /* \"#utility.yul\":4407:4629   */\n  swap3\n  swap2\n  pop\n  pop\n  jump\t// out\n    /* \"#utility.yul\":4635:4734   */\ntag_35:\n    /* \"#utility.yul\":4687:4693   */\n  0x00\n    /* \"#utility.yul\":4721:4726   */\n  dup2\n    /* \"#utility.yul\":4715:4727   */\n  mload\n    /* \"#utility.yul\":4705:4727   */\n  swap1\n  pop\n    /* \"#utility.yul\":4635:4734   */\n  swap2\n  swap1\n  pop\n  jump\t// out\n    /* \"#utility.yul\":4740:4920   */\ntag_36:\n    /* \"#utility.yul\":4788:4865   */\n  0x4e487b7100000000000000000000000000000000000000000000000000000000\n    /* \"#utility.yul\":4785:4786   */\n  0x00\n    /* \"#utility.yul\":4778:4866   */\n  mstore\n    /* \"#utility.yul\":4885:4889   */\n  0x22\n    /* \"#utility.yul\":4882:4883   */\n  0x04\n    /* \"#utility.yul\":4875:4890   */\n  mstore\n    /* \"#utility.yul\":4909:4913   */\n  0x24\n    /* \"#utility.yul\":4906:4907   */\n  0x00\n    /* \"#utility.yul\":4899:4914   */\n  revert\n    /* \"#utility.yul\":4926:5246   */\ntag_37:\n    /* \"#utility.yul\":4970:4976   */\n  0x00\n    /* \"#utility.yul\":5007:5008   */\n  0x02\n    /* \"#utility.yul\":5001:5005   */\n  dup3\n    /* \"#utility.yul\":4997:5009   */\n  div\n    /* \"#utility.yul\":4987:5009   */\n  swap1\n  pop\n    /* \"#utility.yul\":5054:5055   */\n  0x01\n    /* \"#utility.yul\":5048:5052   */\n  dup3\n    /* \"#utility.yul\":5044:5056   */\n  and\n    /* \"#utility.yul\":5075:5093   */\n  dup1\n    /* \"#utility.yul\":5065:5146   */\n  tag_113\n  jumpi\n    /* \"#utility.yul\":5131:5135   */\n  0x7f\n    /* \"#utility.yul\":5123:5129   */\n  dup3\n    /* \"#utility.yul\":5119:5136   */\n  and\n    /* \"#utility.yul\":5109:5136   */\n  swap2\n  pop\n    /* \"#utility.yul\":5065:5146   */\ntag_113:\n    /* \"#utility.yul\":5193:5195   */\n  0x20\n    /* \"#utility.yul\":5185:5191   */\n  dup3\n    /* \"#utility.yul\":5182:5196   */\n  lt\n    /* \"#utility.yul\":5162:5180   */\n  dup2\n    /* \"#utility.yul\":5159:5197   */\n  sub\n    /* \"#utility.yul\":5156:5240   */\n  tag_114\n  jumpi\n    /* \"#utility.yul\":5212:5230   */\n  tag_115\n  tag_36\n  jump\t// in\ntag_115:\n    /* \"#utility.yul\":5156:5240   */\ntag_114:\n    /* \"#utility.yul\":4977:5246   */\n  pop\n    /* \"#utility.yul\":4926:5246   */\n  swap2\n  swap1\n  pop\n  jump\t// out\n    /* \"#utility.yul\":5252:5393   */\ntag_38:\n    /* \"#utility.yul\":5301:5305   */\n  0x00\n    /* \"#utility.yul\":5324:5327   */\n  dup2\n    /* \"#utility.yul\":5316:5327   */\n  swap1\n  pop\n    /* \"#utility.yul\":5347:5350   */\n  dup2\n    /* \"#utility.yul\":5344:5345   */\n  0x00\n    /* \"#utility.yul\":5337:5351   */\n  mstore\n    /* \"#utility.yul\":5381:5385   */\n  0x20\n    /* \"#utility.yul\":5378:5379   */\n  0x00\n    /* \"#utility.yul\":5368:5386   */\n  keccak256\n    /* \"#utility.yul\":5360:5386   */\n  swap1\n  pop\n    /* \"#utility.yul\":5252:5393   */\n  swap2\n  swap1\n  pop\n  jump\t// out\n    /* \"#utility.yul\":5399:5492   */\ntag_39:\n    /* \"#utility.yul\":5436:5442   */\n  0x00\n    /* \"#utility.yul\":5483:5485   */\n  0x20\n    /* \"#utility.yul\":5478:5480   */\n  0x1f\n    /* \"#utility.yul\":5471:5476   */\n  dup4\n    /* \"#utility.yul\":5467:5481   */\n  add\n    /* \"#utility.yul\":5463:5486   */\n  div\n    /* \"#utility.yul\":5453:5486   */\n  swap1\n  pop\n    /* \"#utility.yul\":5399:5492   */\n  swap2\n  swap1\n  pop\n  jump\t// out\n    /* \"#utility.yul\":5498:5605   */\ntag_40:\n    /* \"#utility.yul\":5542:5550   */\n  0x00\n    /* \"#utility.yul\":5592:5597   */\n  dup3\n    /* \"#utility.yul\":5586:5590   */\n  dup3\n    /* \"#utility.yul\":5582:5598   */\n  shl\n    /* \"#utility.yul\":5561:5598   */\n  swap1\n  pop\n    /* \"#utility.yul\":5498:5605   */\n  swap3\n  swap2\n  pop\n  pop\n  jump\t// out\n    /* \"#utility.yul\":5611:6004   */\ntag_41:\n    /* \"#utility.yul\":5680:5686   */\n  0x00\n    /* \"#utility.yul\":5730:5731   */\n  0x08\n    /* \"#utility.yul\":5718:5728   */\n  dup4\n    /* \"#utility.yul\":5714:5732   */\n  mul\n    /* \"#utility.yul\":5753:5850   */\n  tag_120\n    /* \"#utility.yul\":5783:5849   */\n  0xffffffffffffffffffffffffffffffffffffffffffffffffffffffffffffffff\n    /* \"#utility.yul\":5772:5781   */\n  dup3\n    /* \"#utility.yul\":5753:5850   */\n  tag_40\n  jump\t// in\ntag_120:\n    /* \"#utility.yul\":5871:5910   */\n  tag_121\n    /* \"#utility.yul\":5901:5909   */\n  dup7\n    /* \"#utility.yul\":5890:5899   */\n  dup4\n    /* \"#utility.yul\":5871:5910   */\n  tag_40\n  jump\t// in\ntag_121:\n    /* \"#utility.yul\":5859:5910   */\n  swap6\n  pop\n    /* \"#utility.yul\":5943:5947   */\n  dup1\n    /* \"#utility.yul\":5939:5948   */\n  not\n    /* \"#utility.yul\":5932:5937   */\n  dup5\n    /* \"#utility.yul\":5928:5949   */\n  and\n    /* \"#utility.yul\":5919:5949   */\n  swap4\n  pop\n    /* \"#utility.yul\":5992:5996   */\n  dup1\n    /* \"#utility.yul\":5982:5990   */\n  dup7\n    /* \"#utility.yul\":5978:5997   */\n  and\n    /* \"#utility.yul\":5971:5976   */\n  dup5\n    /* \"#utility.yul\":5968:5998   */\n  or\n    /* \"#utility.yul\":5958:5998   */\n  swap3\n  pop\n    /* \"#utility.yul\":5687:6004   */\n  pop\n  pop\n    /* \"#utility.yul\":5611:6004   */\n  swap4\n  swap3\n  pop\n  pop\n  pop\n  jump\t// out\n    /* \"#utility.yul\":6010:6087   */\ntag_42:\n    /* \"#utility.yul\":6047:6054   */\n  0x00\n    /* \"#utility.yul\":6076:6081   */\n  dup2\n    /* \"#utility.yul\":6065:6081   */\n  swap1\n  pop\n    /* \"#utility.yul\":6010:6087   */\n  swap2\n  swap1\n  pop\n  jump\t// out\n    /* \"#utility.yul\":6093:6153   */\ntag_43:\n    /* \"#utility.yul\":6121:6124   */\n  0x00\n    /* \"#utility.yul\":6142:6147   */\n  dup2\n    /* \"#utility.yul\":6135:6147   */\n  swap1\n  pop\n    /* \"#utility.yul\":6093:6153   */\n  swap2\n  swap1\n  pop\n  jump\t// out\n    /* \"#utility.yul\":6159:6301   */\ntag_44:\n    /* \"#utility.yul\":6209:6218   */\n  0x00\n    /* \"#utility.yul\":6242:6295   */\n  tag_125\n    /* \"#utility.yul\":6260:6294   */\n  tag_126\n    /* \"#utility.yul\":6269:6293   */\n  tag_127\n    /* \"#utility.yul\":6287:6292   */\n  dup5\n    /* \"#utility.yul\":6269:6293   */\n  tag_42\n  jump\t// in\ntag_127:\n    /* \"#utility.yul\":6260:6294   */\n  tag_43\n  jump\t// in\ntag_126:\n    /* \"#utility.yul\":6242:6295   */\n  tag_42\n  jump\t// in\ntag_125:\n    /* \"#utility.yul\":6229:6295   */\n  swap1\n  pop\n    /* \"#utility.yul\":6159:6301   */\n  swap2\n  swap1\n  pop\n  jump\t// out\n    /* \"#utility.yul\":6307:6382   */\ntag_45:\n    /* \"#utility.yul\":6350:6353   */\n  0x00\n    /* \"#utility.yul\":6371:6376   */\n  dup2\n    /* \"#utility.yul\":6364:6376   */\n  swap1\n  pop\n    /* \"#utility.yul\":6307:6382   */\n  swap2\n  swap1\n  pop\n  jump\t// out\n    /* \"#utility.yul\":6388:6657   */\ntag_46:\n    /* \"#utility.yul\":6498:6537   */\n  tag_130\n    /* \"#utility.yul\":6529:6536   */\n  dup4\n    /* \"#utility.yul\":6498:6537   */\n  tag_44\n  jump\t// in\ntag_130:\n    /* \"#utility.yul\":6559:6650   */\n  tag_131\n    /* \"#utility.yul\":6608:6649   */\n  tag_132\n    /* \"#utility.yul\":6632:6648   */\n  dup3\n    /* \"#utility.yul\":6608:6649   */\n  tag_45\n  jump\t// in\ntag_132:\n    /* \"#utility.yul\":6600:6606   */\n  dup5\n    /* \"#utility.yul\":6593:6597   */\n  dup5\n    /* \"#utility.yul\":6587:6598   */\n  sload\n    /* \"#utility.yul\":6559:6650   */\n  tag_41\n  jump\t// in\ntag_131:\n    /* \"#utility.yul\":6553:6557   */\n  dup3\n    /* \"#utility.yul\":6546:6651   */\n  sstore\n    /* \"#utility.yul\":6464:6657   */\n  pop\n    /* \"#utility.yul\":6388:6657   */\n  pop\n  pop\n  pop\n  jump\t// out\n    /* \"#utility.yul\":6663:6736   */\ntag_47:\n    /* \"#utility.yul\":6708:6711   */\n  0x00\n    /* \"#utility.yul\":6663:6736   */\n  swap1\n  jump\t// out\n    /* \"#utility.yul\":6742:6931   */\ntag_48:\n    /* \"#utility.yul\":6819:6851   */\n  tag_135\n  tag_47\n  jump\t// in\ntag_135:\n    /* \"#utility.yul\":6860:6925   */\n  tag_136\n    /* \"#utility.yul\":6918:6924   */\n  dup2\n    /* \"#utility.yul\":6910:6916   */\n  dup5\n    /* \"#utility.yul\":6904:6908   */\n  dup5\n    /* \"#utility.yul\":6860:6925   */\n  tag_46\n  jump\t// in\ntag_136:\n    /* \"#utility.yul\":6795:6931   */\n  pop\n    /* \"#utility.yul\":6742:6931   */\n  pop\n  pop\n  jump\t// out\n    /* \"#utility.yul\":6937:7123   */\ntag_49:\n    /* \"#utility.yul\":6997:7117   */\ntag_138:\n    /* \"#utility.yul\":7014:7017   */\n  dup2\n    /* \"#utility.yul\":7007:7012   */\n  dup2\n    /* \"#utility.yul\":7004:7018   */\n  lt\n    /* \"#utility.yul\":6997:7117   */\n  iszero\n  tag_140\n  jumpi\n    /* \"#utility.yul\":7068:7107   */\n  tag_141\n    /* \"#utility.yul\":7105:7106   */\n  0x00\n    /* \"#utility.yul\":7098:7103   */\n  dup3\n    /* \"#utility.yul\":7068:7107   */\n  tag_48\n  jump\t// in\ntag_141:\n    /* \"#utility.yul\":7041:7042   */\n  0x01\n    /* \"#utility.yul\":7034:7039   */\n  dup2\n    /* \"#utility.yul\":7030:7043   */\n  add\n    /* \"#utility.yul\":7021:7043   */\n  swap1\n  pop\n    /* \"#utility.yul\":6997:7117   */\n  jump(tag_138)\ntag_140:\n    /* \"#utility.yul\":6937:7123   */\n  pop\n  pop\n  jump\t// out\n    /* \"#utility.yul\":7129:7672   */\ntag_50:\n    /* \"#utility.yul\":7230:7232   */\n  0x1f\n    /* \"#utility.yul\":7225:7228   */\n  dup3\n    /* \"#utility.yul\":7222:7233   */\n  gt\n    /* \"#utility.yul\":7219:7665   */\n  iszero\n  tag_143\n  jumpi\n    /* \"#utility.yul\":7264:7302   */\n  tag_144\n    /* \"#utility.yul\":7296:7301   */\n  dup2\n    /* \"#utility.yul\":7264:7302   */\n  tag_38\n  jump\t// in\ntag_144:\n    /* \"#utility.yul\":7348:7377   */\n  tag_145\n    /* \"#utility.yul\":7366:7376   */\n  dup5\n    /* \"#utility.yul\":7348:7377   */\n  tag_39\n  jump\t// in\ntag_145:\n    /* \"#utility.yul\":7338:7346   */\n  dup2\n    /* \"#utility.yul\":7334:7378   */\n  add\n    /* \"#utility.yul\":7531:7533   */\n  0x20\n    /* \"#utility.yul\":7519:7529   */\n  dup6\n    /* \"#utility.yul\":7516:7534   */\n  lt\n    /* \"#utility.yul\":7513:7562   */\n  iszero\n  tag_146\n  jumpi\n    /* \"#utility.yul\":7552:7560   */\n  dup2\n    /* \"#utility.yul\":7537:7560   */\n  swap1\n  pop\n    /* \"#utility.yul\":7513:7562   */\ntag_146:\n    /* \"#utility.yul\":7575:7655   */\n  tag_147\n    /* \"#utility.yul\":7631:7653   */\n  tag_148\n    /* \"#utility.yul\":7649:7652   */\n  dup6\n    /* \"#utility.yul\":7631:7653   */\n  tag_39\n  jump\t// in\ntag_148:\n    /* \"#utility.yul\":7621:7629   */\n  dup4\n    /* \"#utility.yul\":7617:7654   */\n  add\n    /* \"#utility.yul\":7604:7615   */\n  dup3\n    /* \"#utility.yul\":7575:7655   */\n  tag_49\n  jump\t// in\ntag_147:\n    /* \"#utility.yul\":7234:7665   */\n  pop\n  pop\n    /* \"#utility.yul\":7219:7665   */\ntag_143:\n    /* \"#utility.yul\":7129:7672   */\n  pop\n  pop\n  pop\n  jump\t// out\n    /* \"#utility.yul\":7678:7795   */\ntag_51:\n    /* \"#utility.yul\":7732:7740   */\n  0x00\n    /* \"#utility.yul\":7782:7787   */\n  dup3\n    /* \"#utility.yul\":7776:7780   */\n  dup3\n    /* \"#utility.yul\":7772:7788   */\n  shr\n    /* \"#utility.yul\":7751:7788   */\n  swap1\n  pop\n    /* \"#utility.yul\":7678:7795   */\n  swap3\n  swap2\n  pop\n  pop\n  jump\t// out\n    /* \"#utility.yul\":7801:7970   */\ntag_52:\n    /* \"#utility.yul\":7845:7851   */\n  0x00\n    /* \"#utility.yul\":7878:7929   */\n  tag_151\n    /* \"#utility.yul\":7926:7927   */\n  0x00\n    /* \"#utility.yul\":7922:7928   */\n  not\n    /* \"#utility.yul\":7914:7919   */\n  dup5\n    /* \"#utility.yul\":7911:7912   */\n  0x08\n    /* \"#utility.yul\":7907:7920   */\n  mul\n    /* \"#utility.yul\":7878:7929   */\n  tag_51\n  jump\t// in\ntag_151:\n    /* \"#utility.yul\":7874:7930   */\n  not\n    /* \"#utility.yul\":7959:7963   */\n  dup1\n    /* \"#utility.yul\":7953:7957   */\n  dup4\n    /* \"#utility.yul\":7949:7964   */\n  and\n    /* \"#utility.yul\":7939:7964   */\n  swap2\n  pop\n    /* \"#utility.yul\":7852:7970   */\n  pop\n    /* \"#utility.yul\":7801:7970   */\n  swap3\n  swap2\n  pop\n  pop\n  jump\t// out\n    /* \"#utility.yul\":7975:8270   */\ntag_53:\n    /* \"#utility.yul\":8051:8055   */\n  0x00\n    /* \"#utility.yul\":8197:8226   */\n  tag_153\n    /* \"#utility.yul\":8222:8225   */\n  dup4\n    /* \"#utility.yul\":8216:8220   */\n  dup4\n    /* \"#utility.yul\":8197:8226   */\n  tag_52\n  jump\t// in\ntag_153:\n    /* \"#utility.yul\":8189:8226   */\n  swap2\n  pop\n    /* \"#utility.yul\":8259:8262   */\n  dup3\n    /* \"#utility.yul\":8256:8257   */\n  0x02\n    /* \"#utility.yul\":8252:8263   */\n  mul\n    /* \"#utility.yul\":8246:8250   */\n  dup3\n    /* \"#utility.yul\":8243:8264   */\n  or\n    /* \"#utility.yul\":8235:8264   */\n  swap1\n  pop\n    /* \"#utility.yul\":7975:8270   */\n  swap3\n  swap2\n  pop\n  pop\n  jump\t// out\n    /* \"#utility.yul\":8275:9670   */\ntag_13:\n    /* \"#utility.yul\":8392:8429   */\n  tag_155\n    /* \"#utility.yul\":8425:8428   */\n  dup3\n    /* \"#utility.yul\":8392:8429   */\n  tag_35\n  jump\t// in\ntag_155:\n    /* \"#utility.yul\":8494:8512   */\n  0xffffffffffffffff\n    /* \"#utility.yul\":8486:8492   */\n  dup2\n    /* \"#utility.yul\":8483:8513   */\n  gt\n    /* \"#utility.yul\":8480:8536   */\n  iszero\n  tag_156\n  jumpi\n    /* \"#utility.yul\":8516:8534   */\n  tag_157\n  tag_22\n  jump\t// in\ntag_157:\n    /* \"#utility.yul\":8480:8536   */\ntag_156:\n    /* \"#utility.yul\":8560:8598   */\n  tag_158\n    /* \"#utility.yul\":8592:8596   */\n  dup3\n    /* \"#utility.yul\":8586:8597   */\n  sload\n    /* \"#utility.yul\":8560:8598   */\n  tag_37\n  jump\t// in\ntag_158:\n    /* \"#utility.yul\":8645:8712   */\n  tag_159\n    /* \"#utility.yul\":8705:8711   */\n  dup3\n    /* \"#utility.yul\":8697:8703   */\n  dup3\n    /* \"#utility.yul\":8691:8695   */\n  dup6\n    /* \"#utility.yul\":8645:8712   */\n  tag_50\n  jump\t// in\ntag_159:\n    /* \"#utility.yul\":8739:8740   */\n  0x00\n    /* \"#utility.yul\":8763:8767   */\n  0x20\n    /* \"#utility.yul\":8750:8767   */\n  swap1\n  pop\n    /* \"#utility.yul\":8795:8797   */\n  0x1f\n    /* \"#utility.yul\":8787:8793   */\n  dup4\n    /* \"#utility.yul\":8784:8798   */\n  gt\n    /* \"#utility.yul\":8812:8813   */\n  0x01\n    /* \"#utility.yul\":8807:9425   */\n  dup2\n  eq\n  tag_161\n  jumpi\n    /* \"#utility.yul\":9469:9470   */\n  0x00\n    /* \"#utility.yul\":9486:9492   */\n  dup5\n    /* \"#utility.yul\":9483:9560   */\n  iszero\n  tag_162\n  jumpi\n    /* \"#utility.yul\":9535:9544   */\n  dup3\n    /* \"#utility.yul\":9530:9533   */\n  dup8\n    /* \"#utility.yul\":9526:9545   */\n  add\n    /* \"#utility.yul\":9520:9546   */\n  mload\n    /* \"#utility.yul\":9511:9546   */\n  swap1\n  pop\n    /* \"#utility.yul\":9483:9560   */\ntag_162:\n    /* \"#utility.yul\":9586:9653   */\n  tag_163\n    /* \"#utility.yul\":9646:9652   */\n  dup6\n    /* \"#utility.yul\":9639:9644   */\n  dup3\n    /* \"#utility.yul\":9586:9653   */\n  tag_53\n  jump\t// in\ntag_163:\n    /* \"#utility.yul\":9580:9584   */\n  dup7\n    /* \"#utility.yul\":9573:9654   */\n  sstore\n    /* \"#utility.yul\":9442:9664   */\n  pop\n    /* \"#utility.yul\":8777:9664   */\n  jump(tag_160)\n    /* \"#utility.yul\":8807:9425   */\ntag_161:\n    /* \"#utility.yul\":8859:8863   */\n  0x1f\n    /* \"#utility.yul\":8855:8864   */\n  not\n    /* \"#utility.yul\":8847:8853   */\n  dup5\n    /* \"#utility.yul\":8843:8865   */\n  and\n    /* \"#utility.yul\":8893:8930   */\n  tag_164\n    /* \"#utility.yul\":8925:8929   */\n  dup7\n    /* \"#utility.yul\":8893:8930   */\n  tag_38\n  jump\t// in\ntag_164:\n    /* \"#utility.yul\":8952:8953   */\n  0x00\n    /* \"#utility.yul\":8966:9174   */\ntag_165:\n    /* \"#utility.yul\":8980:8987   */\n  dup3\n    /* \"#utility.yul\":8977:8978   */\n  dup2\n    /* \"#utility.yul\":8974:8988   */\n  lt\n    /* \"#utility.yul\":8966:9174   */\n  iszero\n  tag_167\n  jumpi\n    /* \"#utility.yul\":9059:9068   */\n  dup5\n    /* \"#utility.yul\":9054:9057   */\n  dup10\n    /* \"#utility.yul\":9050:9069   */\n  add\n    /* \"#utility.yul\":9044:9070   */\n  mload\n    /* \"#utility.yul\":9036:9042   */\n  dup3\n    /* \"#utility.yul\":9029:9071   */\n  sstore\n    /* \"#utility.yul\":9110:9111   */\n  0x01\n    /* \"#utility.yul\":9102:9108   */\n  dup3\n    /* \"#utility.yul\":9098:9112   */\n  add\n    /* \"#utility.yul\":9088:9112   */\n  swap2\n  pop\n    /* \"#utility.yul\":9157:9159   */\n  0x20\n    /* \"#utility.yul\":9146:9155   */\n  dup6\n    /* \"#utility.yul\":9142:9160   */\n  add\n    /* \"#utility.yul\":9129:9160   */\n  swap5\n  pop\n    /* \"#utility.yul\":9003:9007   */\n  0x20\n    /* \"#utility.yul\":9000:9001   */\n  dup2\n    /* \"#utility.yul\":8996:9008   */\n  add\n    /* \"#utility.yul\":8991:9008   */\n  swap1\n  pop\n    /* \"#utility.yul\":8966:9174   */\n  jump(tag_165)\ntag_167:\n    /* \"#utility.yul\":9202:9208   */\n  dup7\n    /* \"#utility.yul\":9193:9200   */\n  dup4\n    /* \"#utility.yul\":9190:9209   */\n  lt\n    /* \"#utility.yul\":9187:9366   */\n  iszero\n  tag_168\n  jumpi\n    /* \"#utility.yul\":9260:9269   */\n  dup5\n    /* \"#utility.yul\":9255:9258   */\n  dup10\n    /* \"#utility.yul\":9251:9270   */\n  add\n    /* \"#utility.yul\":9245:9271   */\n  mload\n    /* \"#utility.yul\":9303:9351   */\n  tag_169\n    /* \"#utility.yul\":9345:9349   */\n  0x1f\n    /* \"#utility.yul\":9337:9343   */\n  dup10\n    /* \"#utility.yul\":9333:9350   */\n  and\n    /* \"#utility.yul\":9322:9331   */\n  dup3\n    /* \"#utility.yul\":9303:9351   */\n  tag_52\n  jump\t// in\ntag_169:\n    /* \"#utility.yul\":9295:9301   */\n  dup4\n    /* \"#utility.yul\":9288:9352   */\n  sstore\n    /* \"#utility.yul\":9210:9366   */\n  pop\n    /* \"#utility.yul\":9187:9366   */\ntag_168:\n    /* \"#utility.yul\":9412:9413   */\n  0x01\n    /* \"#utility.yul\":9408:9409   */\n  0x02\n    /* \"#utility.yul\":9400:9406   */\n  dup9\n    /* \"#utility.yul\":9396:9410   */\n  mul\n    /* \"#utility.yul\":9392:9414   */\n  add\n    /* \"#utility.yul\":9386:9390   */\n  dup9\n    /* \"#utility.yul\":9379:9415   */\n  sstore\n    /* \"#utility.yul\":8814:9425   */\n  pop\n  pop\n  pop\n    /* \"#utility.yul\":8777:9664   */\ntag_160:\n  pop\n    /* \"#utility.yul\":8367:9670   */\n  pop\n  pop\n  pop\n    /* \"#utility.yul\":8275:9670   */\n  pop\n  pop\n  jump\t// out\n    /* \"BEP20.sol\":3273:7529  contract BEP20 is IBEP20, Administrable {... */\ntag_15:\n  dataSize(sub_0)\n  dup1\n  dataOffset(sub_0)\n  0x00\n  codecopy\n  0x00\n  return\nstop\n\nsub_0: assembly {\n        /* \"BEP20.sol\":3273:7529  contract BEP20 is IBEP20, Administrable {... */\n      mstore(0x40, 0x80)\n      callvalue\n      dup1\n      iszero\n      tag_1\n      jumpi\n      0x00\n      dup1\n      revert\n    tag_1:\n      pop\n      jumpi(tag_2, lt(calldatasize, 0x04))\n      shr(0xe0, calldataload(0x00))\n      dup1\n      0x8da5cb5b\n      gt\n      tag_24\n      jumpi\n      dup1\n      0xa457c2d7\n      gt\n      tag_25\n      jumpi\n      dup1\n      0xa457c2d7\n      eq\n      tag_18\n      jumpi\n      dup1\n      0xa69adc2c\n      eq\n      tag_19\n      jumpi\n      dup1\n      0xa9059cbb\n      eq\n      tag_20\n      jumpi\n      dup1\n      0xdd62ed3e\n      eq\n      tag_21\n      jumpi\n      dup1\n      0xe30c3978\n      eq\n      tag_22\n      jumpi\n      dup1\n      0xf2fde38b\n      eq\n      tag_23\n      jumpi\n      jump(tag_2)\n    tag_25:\n      dup1\n      0x8da5cb5b\n      eq\n      tag_13\n      jumpi\n      dup1\n      0x8f32d59b\n      eq\n      tag_14\n      jumpi\n      dup1\n      0x95d89b41\n      eq\n      tag_15\n      jumpi\n      dup1\n      0x966ff650\n      eq\n      tag_16\n      jumpi\n      dup1\n      0x98235663\n      eq\n      tag_17\n      jumpi\n      jump(tag_2)\n    tag_24:\n      dup1\n      0x313ce567\n      gt\n      tag_26\n      jumpi\n      dup1\n      0x313ce567\n      eq\n      tag_8\n      jumpi\n      dup1\n      0x39509351\n      eq\n      tag_9\n      jumpi\n      dup1\n      0x4e71e0c8\n      eq\n      tag_10\n      jumpi\n      dup1\n      0x70a08231\n      eq\n      tag_11\n      jumpi\n      dup1\n      0x893d20e8\n      eq\n      tag_12\n      jumpi\n      jump(tag_2)\n    tag_26:\n      dup1\n      0x06fdde03\n      eq\n      tag_3\n      jumpi\n      dup1\n      0x095ea7b3\n      eq\n      tag_4\n      jumpi\n      dup1\n      0x18160ddd\n      eq\n      tag_5\n      jumpi\n      dup1\n      0x23b872dd\n      eq\n      tag_6\n      jumpi\n      dup1\n      0x24d7806c\n      eq\n      tag_7\n      jumpi\n    tag_2:\n      0x00\n      dup1\n      revert\n        /* \"BEP20.sol\":3850:3942  function name() public view override returns (string memory) {... */\n    tag_3:\n      tag_27\n      tag_28\n      jump\t// in\n    tag_27:\n      mload(0x40)\n      tag_29\n      swap2\n      swap1\n      tag_30\n      jump\t// in\n    tag_29:\n      mload(0x40)\n      dup1\n      swap2\n      sub\n      swap1\n      return\n        /* \"BEP20.sol\":4893:5178  function approve(address spender, uint256 value) public override returns (bool) {... */\n    tag_4:\n      tag_31\n      0x04\n      dup1\n      calldatasize\n      sub\n      dup2\n      add\n      swap1\n      tag_32\n      swap2\n      swap1\n      tag_33\n      jump\t// in\n    tag_32:\n      tag_34\n      jump\t// in\n    tag_31:\n      mload(0x40)\n      tag_35\n      swap2\n      swap1\n      tag_36\n      jump\t// in\n    tag_35:\n      mload(0x40)\n      dup1\n      swap2\n      sub\n      swap1\n      return\n        /* \"BEP20.sol\":4154:4254  function totalSupply() public view override returns (uint256) {... */\n    tag_5:\n      tag_37\n      tag_38\n      jump\t// in\n    tag_37:\n      mload(0x40)\n      tag_39\n      swap2\n      swap1\n      tag_40\n      jump\t// in\n    tag_39:\n      mload(0x40)\n      dup1\n      swap2\n      sub\n      swap1\n      return\n        /* \"BEP20.sol\":5186:5528  function transferFrom(... */\n    tag_6:\n      tag_41\n      0x04\n      dup1\n      calldatasize\n      sub\n      dup2\n      add\n      swap1\n      tag_42\n      swap2\n      swap1\n      tag_43\n      jump\t// in\n    tag_42:\n      tag_44\n      jump\t// in\n    tag_41:\n      mload(0x40)\n      tag_45\n      swap2\n      swap1\n      tag_36\n      jump\t// in\n    tag_45:\n      mload(0x40)\n      dup1\n      swap2\n      sub\n      swap1\n      return\n        /* \"Administrable.sol\":137:176  mapping(address => bool) public isAdmin */\n    tag_7:\n      tag_46\n      0x04\n      dup1\n      calldatasize\n      sub\n      dup2\n      add\n      swap1\n      tag_47\n      swap2\n      swap1\n      tag_48\n      jump\t// in\n    tag_47:\n      tag_49\n      jump\t// in\n    tag_46:\n      mload(0x40)\n      tag_50\n      swap2\n      swap1\n      tag_36\n      jump\t// in\n    tag_50:\n      mload(0x40)\n      dup1\n      swap2\n      sub\n      swap1\n      return\n        /* \"BEP20.sol\":4054:4146  function decimals() public view override returns (uint8) {... */\n    tag_8:\n      tag_51\n      tag_52\n      jump\t// in\n    tag_51:\n      mload(0x40)\n      tag_53\n      swap2\n      swap1\n      tag_54\n      jump\t// in\n    tag_53:\n      mload(0x40)\n      dup1\n      swap2\n      sub\n      swap1\n      return\n        /* \"BEP20.sol\":5536:5893  function increaseAllowance(address spender, uint256 addedValue) public returns (bool) {... */\n    tag_9:\n      tag_55\n      0x04\n      dup1\n      calldatasize\n      sub\n      dup2\n      add\n      swap1\n      tag_56\n      swap2\n      swap1\n      tag_33\n      jump\t// in\n    tag_56:\n      tag_57\n      jump\t// in\n    tag_55:\n      mload(0x40)\n      tag_58\n      swap2\n      swap1\n      tag_36\n      jump\t// in\n    tag_58:\n      mload(0x40)\n      dup1\n      swap2\n      sub\n      swap1\n      return\n        /* \"Claimable.sol\":868:1150  function claimOwnership() public {... */\n    tag_10:\n      tag_59\n      tag_60\n      jump\t// in\n    tag_59:\n      stop\n        /* \"BEP20.sol\":4457:4572  function balanceOf(address owner) public view override returns (uint256) {... */\n    tag_11:\n      tag_61\n      0x04\n      dup1\n      calldatasize\n      sub\n      dup2\n      add\n      swap1\n      tag_62\n      swap2\n      swap1\n      tag_48\n      jump\t// in\n    tag_62:\n      tag_63\n      jump\t// in\n    tag_61:\n      mload(0x40)\n      tag_64\n      swap2\n      swap1\n      tag_40\n      jump\t// in\n    tag_64:\n      mload(0x40)\n      dup1\n      swap2\n      sub\n      swap1\n      return\n        /* \"BEP20.sol\":4262:4352  function getOwner() public view override returns (address) {... */\n    tag_12:\n      tag_65\n      tag_66\n      jump\t// in\n    tag_65:\n      mload(0x40)\n      tag_67\n      swap2\n      swap1\n      tag_68\n      jump\t// in\n    tag_67:\n      mload(0x40)\n      dup1\n      swap2\n      sub\n      swap1\n      return\n        /* \"Claimable.sol\":98:118  address public owner */\n    tag_13:\n      tag_69\n      tag_70\n      jump\t// in\n    tag_69:\n      mload(0x40)\n      tag_71\n      swap2\n      swap1\n      tag_68\n      jump\t// in\n    tag_71:\n      mload(0x40)\n      dup1\n      swap2\n      sub\n      swap1\n      return\n        /* \"Claimable.sol\":461:554  function isOwner() public view returns (bool) {... */\n    tag_14:\n      tag_72\n      tag_73\n      jump\t// in\n    tag_72:\n      mload(0x40)\n      tag_74\n      swap2\n      swap1\n      tag_36\n      jump\t// in\n    tag_74:\n      mload(0x40)\n      dup1\n      swap2\n      sub\n      swap1\n      return\n        /* \"BEP20.sol\":3950:4046  function symbol() public view override returns (string memory) {... */\n    tag_15:\n      tag_75\n      tag_76\n      jump\t// in\n    tag_75:\n      mload(0x40)\n      tag_77\n      swap2\n      swap1\n      tag_30\n      jump\t// in\n    tag_77:\n      mload(0x40)\n      dup1\n      swap2\n      sub\n      swap1\n      return\n        /* \"BEP20.sol\":4360:4449  function totalBurnt() public view returns (uint256) {... */\n    tag_16:\n      tag_78\n      tag_79\n      jump\t// in\n    tag_78:\n      mload(0x40)\n      tag_80\n      swap2\n      swap1\n      tag_40\n      jump\t// in\n    tag_80:\n      mload(0x40)\n      dup1\n      swap2\n      sub\n      swap1\n      return\n        /* \"Administrable.sol\":476:735  function appointAdmin(address _newAdmin) public onlyContractOwner() returns (bool success) {... */\n    tag_17:\n      tag_81\n      0x04\n      dup1\n      calldatasize\n      sub\n      dup2\n      add\n      swap1\n      tag_82\n      swap2\n      swap1\n      tag_48\n      jump\t// in\n    tag_82:\n      tag_83\n      jump\t// in\n    tag_81:\n      mload(0x40)\n      tag_84\n      swap2\n      swap1\n      tag_36\n      jump\t// in\n    tag_84:\n      mload(0x40)\n      dup1\n      swap2\n      sub\n      swap1\n      return\n        /* \"BEP20.sol\":5901:6268  function decreaseAllowance(address spender, uint256 subtractedValue) public returns (bool) {... */\n    tag_18:\n      tag_85\n      0x04\n      dup1\n      calldatasize\n      sub\n      dup2\n      add\n      swap1\n      tag_86\n      swap2\n      swap1\n      tag_33\n      jump\t// in\n    tag_86:\n      tag_87\n      jump\t// in\n    tag_85:\n      mload(0x40)\n      tag_88\n      swap2\n      swap1\n      tag_36\n      jump\t// in\n    tag_88:\n      mload(0x40)\n      dup1\n      swap2\n      sub\n      swap1\n      return\n        /* \"Administrable.sol\":743:935  function dismissAdmin(address _admin) public onlyContractOwner() returns (bool success) {... */\n    tag_19:\n      tag_89\n      0x04\n      dup1\n      calldatasize\n      sub\n      dup2\n      add\n      swap1\n      tag_90\n      swap2\n      swap1\n      tag_48\n      jump\t// in\n    tag_90:\n      tag_91\n      jump\t// in\n    tag_89:\n      mload(0x40)\n      tag_92\n      swap2\n      swap1\n      tag_36\n      jump\t// in\n    tag_92:\n      mload(0x40)\n      dup1\n      swap2\n      sub\n      swap1\n      return\n        /* \"BEP20.sol\":4728:4885  function transfer(address to, uint256 value) public virtual override returns (bool) {... */\n    tag_20:\n      tag_93\n      0x04\n      dup1\n      calldatasize\n      sub\n      dup2\n      add\n      swap1\n      tag_94\n      swap2\n      swap1\n      tag_33\n      jump\t// in\n    tag_94:\n      tag_95\n      jump\t// in\n    tag_93:\n      mload(0x40)\n      tag_96\n      swap2\n      swap1\n      tag_36\n      jump\t// in\n    tag_96:\n      mload(0x40)\n      dup1\n      swap2\n      sub\n      swap1\n      return\n        /* \"BEP20.sol\":4580:4720  function allowance(address owner, address spender) public view override returns (uint256) {... */\n    tag_21:\n      tag_97\n      0x04\n      dup1\n      calldatasize\n      sub\n      dup2\n      add\n      swap1\n      tag_98\n      swap2\n      swap1\n      tag_99\n      jump\t// in\n    tag_98:\n      tag_100\n      jump\t// in\n    tag_97:\n      mload(0x40)\n      tag_101\n      swap2\n      swap1\n      tag_40\n      jump\t// in\n    tag_101:\n      mload(0x40)\n      dup1\n      swap2\n      sub\n      swap1\n      return\n        /* \"Claimable.sol\":708:735  address public pendingOwner */\n    tag_22:\n      tag_102\n      tag_103\n      jump\t// in\n    tag_102:\n      mload(0x40)\n      tag_104\n      swap2\n      swap1\n      tag_68\n      jump\t// in\n    tag_104:\n      mload(0x40)\n      dup1\n      swap2\n      sub\n      swap1\n      return\n        /* \"Claimable.sol\":744:860  function transferOwnership(address _newOwner) public onlyContractOwner() {... */\n    tag_23:\n      tag_105\n      0x04\n      dup1\n      calldatasize\n      sub\n      dup2\n      add\n      swap1\n      tag_106\n      swap2\n      swap1\n      tag_48\n      jump\t// in\n    tag_106:\n      tag_107\n      jump\t// in\n    tag_105:\n      stop\n        /* \"BEP20.sol\":3850:3942  function name() public view override returns (string memory) {... */\n    tag_28:\n        /* \"BEP20.sol\":3896:3909  string memory */\n      0x60\n        /* \"BEP20.sol\":3929:3934  _name */\n      0x03\n        /* \"BEP20.sol\":3922:3934  return _name */\n      dup1\n      sload\n      tag_109\n      swap1\n      tag_110\n      jump\t// in\n    tag_109:\n      dup1\n      0x1f\n      add\n      0x20\n      dup1\n      swap2\n      div\n      mul\n      0x20\n      add\n      mload(0x40)\n      swap1\n      dup2\n      add\n      0x40\n      mstore\n      dup1\n      swap3\n      swap2\n      swap1\n      dup2\n      dup2\n      mstore\n      0x20\n      add\n      dup3\n      dup1\n      sload\n      tag_111\n      swap1\n      tag_110\n      jump\t// in\n    tag_111:\n      dup1\n      iszero\n      tag_112\n      jumpi\n      dup1\n      0x1f\n      lt\n      tag_113\n      jumpi\n      0x0100\n      dup1\n      dup4\n      sload\n      div\n      mul\n      dup4\n      mstore\n      swap2\n      0x20\n      add\n      swap2\n      jump(tag_112)\n    tag_113:\n      dup3\n      add\n      swap2\n      swap1\n      0x00\n      mstore\n      keccak256(0x00, 0x20)\n      swap1\n    tag_114:\n      dup2\n      sload\n      dup2\n      mstore\n      swap1\n      0x01\n      add\n      swap1\n      0x20\n      add\n      dup1\n      dup4\n      gt\n      tag_114\n      jumpi\n      dup3\n      swap1\n      sub\n      0x1f\n      and\n      dup3\n      add\n      swap2\n    tag_112:\n      pop\n      pop\n      pop\n      pop\n      pop\n      swap1\n      pop\n        /* \"BEP20.sol\":3850:3942  function name() public view override returns (string memory) {... */\n      swap1\n      jump\t// out\n        /* \"BEP20.sol\":4893:5178  function approve(address spender, uint256 value) public override returns (bool) {... */\n    tag_34:\n        /* \"BEP20.sol\":4967:4971  bool */\n      0x00\n        /* \"BEP20.sol\":5011:5012  0 */\n      dup1\n        /* \"BEP20.sol\":4992:5013  spender != address(0) */\n      0xffffffffffffffffffffffffffffffffffffffff\n      and\n        /* \"BEP20.sol\":4992:4999  spender */\n      dup4\n        /* \"BEP20.sol\":4992:5013  spender != address(0) */\n      0xffffffffffffffffffffffffffffffffffffffff\n      and\n      sub\n        /* \"BEP20.sol\":4984:5046  require(spender != address(0), 'spender cannot be address(0)') */\n      tag_116\n      jumpi\n      mload(0x40)\n      0x08c379a000000000000000000000000000000000000000000000000000000000\n      dup2\n      mstore\n      0x04\n      add\n      tag_117\n      swap1\n      tag_118\n      jump\t// in\n    tag_117:\n      mload(0x40)\n      dup1\n      swap2\n      sub\n      swap1\n      revert\n    tag_116:\n        /* \"BEP20.sol\":5091:5096  value */\n      dup2\n        /* \"BEP20.sol\":5059:5067  _allowed */\n      0x07\n        /* \"BEP20.sol\":5059:5079  _allowed[msg.sender] */\n      0x00\n        /* \"BEP20.sol\":5068:5078  msg.sender */\n      caller\n        /* \"BEP20.sol\":5059:5079  _allowed[msg.sender] */\n      0xffffffffffffffffffffffffffffffffffffffff\n      and\n      0xffffffffffffffffffffffffffffffffffffffff\n      and\n      dup2\n      mstore\n      0x20\n      add\n      swap1\n      dup2\n      mstore\n      0x20\n      add\n      0x00\n      keccak256\n        /* \"BEP20.sol\":5059:5088  _allowed[msg.sender][spender] */\n      0x00\n        /* \"BEP20.sol\":5080:5087  spender */\n      dup6\n        /* \"BEP20.sol\":5059:5088  _allowed[msg.sender][spender] */\n      0xffffffffffffffffffffffffffffffffffffffff\n      and\n      0xffffffffffffffffffffffffffffffffffffffff\n      and\n      dup2\n      mstore\n      0x20\n      add\n      swap1\n      dup2\n      mstore\n      0x20\n      add\n      0x00\n      keccak256\n        /* \"BEP20.sol\":5059:5096  _allowed[msg.sender][spender] = value */\n      dup2\n      swap1\n      sstore\n      pop\n        /* \"BEP20.sol\":5133:5140  spender */\n      dup3\n        /* \"BEP20.sol\":5112:5148  Approval(msg.sender, spender, value) */\n      0xffffffffffffffffffffffffffffffffffffffff\n      and\n        /* \"BEP20.sol\":5121:5131  msg.sender */\n      caller\n        /* \"BEP20.sol\":5112:5148  Approval(msg.sender, spender, value) */\n      0xffffffffffffffffffffffffffffffffffffffff\n      and\n      0x8c5be1e5ebec7d5bd14f71427d1e84f3dd0314c0f7b2291e5b200ac8c7c3b925\n        /* \"BEP20.sol\":5142:5147  value */\n      dup5\n        /* \"BEP20.sol\":5112:5148  Approval(msg.sender, spender, value) */\n      mload(0x40)\n      tag_119\n      swap2\n      swap1\n      tag_40\n      jump\t// in\n    tag_119:\n      mload(0x40)\n      dup1\n      swap2\n      sub\n      swap1\n      log3\n        /* \"BEP20.sol\":5166:5170  true */\n      0x01\n        /* \"BEP20.sol\":5159:5170  return true */\n      swap1\n      pop\n        /* \"BEP20.sol\":4893:5178  function approve(address spender, uint256 value) public override returns (bool) {... */\n      swap3\n      swap2\n      pop\n      pop\n      jump\t// out\n        /* \"BEP20.sol\":4154:4254  function totalSupply() public view override returns (uint256) {... */\n    tag_38:\n        /* \"BEP20.sol\":4207:4214  uint256 */\n      0x00\n        /* \"BEP20.sol\":4234:4246  _totalSupply */\n      sload(0x08)\n        /* \"BEP20.sol\":4227:4246  return _totalSupply */\n      swap1\n      pop\n        /* \"BEP20.sol\":4154:4254  function totalSupply() public view override returns (uint256) {... */\n      swap1\n      jump\t// out\n        /* \"BEP20.sol\":5186:5528  function transferFrom(... */\n    tag_44:\n        /* \"BEP20.sol\":5308:5312  bool */\n      0x00\n        /* \"BEP20.sol\":5354:5391  _allowed[from][msg.sender].sub(value) */\n      tag_122\n        /* \"BEP20.sol\":5385:5390  value */\n      dup3\n        /* \"BEP20.sol\":5354:5362  _allowed */\n      0x07\n        /* \"BEP20.sol\":5354:5368  _allowed[from] */\n      0x00\n        /* \"BEP20.sol\":5363:5367  from */\n      dup8\n        /* \"BEP20.sol\":5354:5368  _allowed[from] */\n      0xffffffffffffffffffffffffffffffffffffffff\n      and\n      0xffffffffffffffffffffffffffffffffffffffff\n      and\n      dup2\n      mstore\n      0x20\n      add\n      swap1\n      dup2\n      mstore\n      0x20\n      add\n      0x00\n      keccak256\n        /* \"BEP20.sol\":5354:5380  _allowed[from][msg.sender] */\n      0x00\n        /* \"BEP20.sol\":5369:5379  msg.sender */\n      caller\n        /* \"BEP20.sol\":5354:5380  _allowed[from][msg.sender] */\n      0xffffffffffffffffffffffffffffffffffffffff\n      and\n      0xffffffffffffffffffffffffffffffffffffffff\n      and\n      dup2\n      mstore\n      0x20\n      add\n      swap1\n      dup2\n      mstore\n      0x20\n      add\n      0x00\n      keccak256\n      sload\n        /* \"BEP20.sol\":5354:5384  _allowed[from][msg.sender].sub */\n      tag_123\n      swap1\n        /* \"BEP20.sol\":5354:5391  _allowed[from][msg.sender].sub(value) */\n      swap2\n      swap1\n      0xffffffff\n      and\n      jump\t// in\n    tag_122:\n        /* \"BEP20.sol\":5325:5333  _allowed */\n      0x07\n        /* \"BEP20.sol\":5325:5339  _allowed[from] */\n      0x00\n        /* \"BEP20.sol\":5334:5338  from */\n      dup7\n        /* \"BEP20.sol\":5325:5339  _allowed[from] */\n      0xffffffffffffffffffffffffffffffffffffffff\n      and\n      0xffffffffffffffffffffffffffffffffffffffff\n      and\n      dup2\n      mstore\n      0x20\n      add\n      swap1\n      dup2\n      mstore\n      0x20\n      add\n      0x00\n      keccak256\n        /* \"BEP20.sol\":5325:5351  _allowed[from][msg.sender] */\n      0x00\n        /* \"BEP20.sol\":5340:5350  msg.sender */\n      caller\n        /* \"BEP20.sol\":5325:5351  _allowed[from][msg.sender] */\n      0xffffffffffffffffffffffffffffffffffffffff\n      and\n      0xffffffffffffffffffffffffffffffffffffffff\n      and\n      dup2\n      mstore\n      0x20\n      add\n      swap1\n      dup2\n      mstore\n      0x20\n      add\n      0x00\n      keccak256\n        /* \"BEP20.sol\":5325:5391  _allowed[from][msg.sender] = _allowed[from][msg.sender].sub(value) */\n      dup2\n      swap1\n      sstore\n      pop\n        /* \"BEP20.sol\":5402:5428  _transfer(from, to, value) */\n      tag_124\n        /* \"BEP20.sol\":5412:5416  from */\n      dup5\n        /* \"BEP20.sol\":5418:5420  to */\n      dup5\n        /* \"BEP20.sol\":5422:5427  value */\n      dup5\n        /* \"BEP20.sol\":5402:5411  _transfer */\n      tag_125\n        /* \"BEP20.sol\":5402:5428  _transfer(from, to, value) */\n      jump\t// in\n    tag_124:\n        /* \"BEP20.sol\":5459:5469  msg.sender */\n      caller\n        /* \"BEP20.sol\":5444:5498  Approval(from, msg.sender, _allowed[from][msg.sender]) */\n      0xffffffffffffffffffffffffffffffffffffffff\n      and\n        /* \"BEP20.sol\":5453:5457  from */\n      dup5\n        /* \"BEP20.sol\":5444:5498  Approval(from, msg.sender, _allowed[from][msg.sender]) */\n      0xffffffffffffffffffffffffffffffffffffffff\n      and\n      0x8c5be1e5ebec7d5bd14f71427d1e84f3dd0314c0f7b2291e5b200ac8c7c3b925\n        /* \"BEP20.sol\":5471:5479  _allowed */\n      0x07\n        /* \"BEP20.sol\":5471:5485  _allowed[from] */\n      0x00\n        /* \"BEP20.sol\":5480:5484  from */\n      dup9\n        /* \"BEP20.sol\":5471:5485  _allowed[from] */\n      0xffffffffffffffffffffffffffffffffffffffff\n      and\n      0xffffffffffffffffffffffffffffffffffffffff\n      and\n      dup2\n      mstore\n      0x20\n      add\n      swap1\n      dup2\n      mstore\n      0x20\n      add\n      0x00\n      keccak256\n        /* \"BEP20.sol\":5471:5497  _allowed[from][msg.sender] */\n      0x00\n        /* \"BEP20.sol\":5486:5496  msg.sender */\n      caller\n        /* \"BEP20.sol\":5471:5497  _allowed[from][msg.sender] */\n      0xffffffffffffffffffffffffffffffffffffffff\n      and\n      0xffffffffffffffffffffffffffffffffffffffff\n      and\n      dup2\n      mstore\n      0x20\n      add\n      swap1\n      dup2\n      mstore\n      0x20\n      add\n      0x00\n      keccak256\n      sload\n        /* \"BEP20.sol\":5444:5498  Approval(from, msg.sender, _allowed[from][msg.sender]) */\n      mload(0x40)\n      tag_126\n      swap2\n      swap1\n      tag_40\n      jump\t// in\n    tag_126:\n      mload(0x40)\n      dup1\n      swap2\n      sub\n      swap1\n      log3\n        /* \"BEP20.sol\":5516:5520  true */\n      0x01\n        /* \"BEP20.sol\":5509:5520  return true */\n      swap1\n      pop\n        /* \"BEP20.sol\":5186:5528  function transferFrom(... */\n      swap4\n      swap3\n      pop\n      pop\n      pop\n      jump\t// out\n        /* \"Administrable.sol\":137:176  mapping(address => bool) public isAdmin */\n    tag_49:\n      mstore(0x20, 0x02)\n      dup1\n      0x00\n      mstore\n      keccak256(0x00, 0x40)\n      0x00\n      swap2\n      pop\n      sload\n      swap1\n      0x0100\n      exp\n      swap1\n      div\n      0xff\n      and\n      dup2\n      jump\t// out\n        /* \"BEP20.sol\":4054:4146  function decimals() public view override returns (uint8) {... */\n    tag_52:\n        /* \"BEP20.sol\":4104:4109  uint8 */\n      0x00\n        /* \"BEP20.sol\":4129:4138  _decimals */\n      0x05\n      0x00\n      swap1\n      sload\n      swap1\n      0x0100\n      exp\n      swap1\n      div\n      0xff\n      and\n        /* \"BEP20.sol\":4122:4138  return _decimals */\n      swap1\n      pop\n        /* \"BEP20.sol\":4054:4146  function decimals() public view override returns (uint8) {... */\n      swap1\n      jump\t// out\n        /* \"BEP20.sol\":5536:5893  function increaseAllowance(address spender, uint256 addedValue) public returns (bool) {... */\n    tag_57:\n        /* \"BEP20.sol\":5616:5620  bool */\n      0x00\n        /* \"BEP20.sol\":5660:5661  0 */\n      dup1\n        /* \"BEP20.sol\":5641:5662  spender != address(0) */\n      0xffffffffffffffffffffffffffffffffffffffff\n      and\n        /* \"BEP20.sol\":5641:5648  spender */\n      dup4\n        /* \"BEP20.sol\":5641:5662  spender != address(0) */\n      0xffffffffffffffffffffffffffffffffffffffff\n      and\n      sub\n        /* \"BEP20.sol\":5633:5695  require(spender != address(0), 'spender cannot be address(0)') */\n      tag_129\n      jumpi\n      mload(0x40)\n      0x08c379a000000000000000000000000000000000000000000000000000000000\n      dup2\n      mstore\n      0x04\n      add\n      tag_130\n      swap1\n      tag_118\n      jump\t// in\n    tag_130:\n      mload(0x40)\n      dup1\n      swap2\n      sub\n      swap1\n      revert\n    tag_129:\n        /* \"BEP20.sol\":5741:5786  _allowed[msg.sender][spender].add(addedValue) */\n      tag_131\n        /* \"BEP20.sol\":5775:5785  addedValue */\n      dup3\n        /* \"BEP20.sol\":5741:5749  _allowed */\n      0x07\n        /* \"BEP20.sol\":5741:5761  _allowed[msg.sender] */\n      0x00\n        /* \"BEP20.sol\":5750:5760  msg.sender */\n      caller\n        /* \"BEP20.sol\":5741:5761  _allowed[msg.sender] */\n      0xffffffffffffffffffffffffffffffffffffffff\n      and\n      0xffffffffffffffffffffffffffffffffffffffff\n      and\n      dup2\n      mstore\n      0x20\n      add\n      swap1\n      dup2\n      mstore\n      0x20\n      add\n      0x00\n      keccak256\n        /* \"BEP20.sol\":5741:5770  _allowed[msg.sender][spender] */\n      0x00\n        /* \"BEP20.sol\":5762:5769  spender */\n      dup7\n        /* \"BEP20.sol\":5741:5770  _allowed[msg.sender][spender] */\n      0xffffffffffffffffffffffffffffffffffffffff\n      and\n      0xffffffffffffffffffffffffffffffffffffffff\n      and\n      dup2\n      mstore\n      0x20\n      add\n      swap1\n      dup2\n      mstore\n      0x20\n      add\n      0x00\n      keccak256\n      sload\n        /* \"BEP20.sol\":5741:5774  _allowed[msg.sender][spender].add */\n      tag_132\n      swap1\n        /* \"BEP20.sol\":5741:5786  _allowed[msg.sender][spender].add(addedValue) */\n      swap2\n      swap1\n      0xffffffff\n      and\n      jump\t// in\n    tag_131:\n        /* \"BEP20.sol\":5708:5716  _allowed */\n      0x07\n        /* \"BEP20.sol\":5708:5728  _allowed[msg.sender] */\n      0x00\n        /* \"BEP20.sol\":5717:5727  msg.sender */\n      caller\n        /* \"BEP20.sol\":5708:5728  _allowed[msg.sender] */\n      0xffffffffffffffffffffffffffffffffffffffff\n      and\n      0xffffffffffffffffffffffffffffffffffffffff\n      and\n      dup2\n      mstore\n      0x20\n      add\n      swap1\n      dup2\n      mstore\n      0x20\n      add\n      0x00\n      keccak256\n        /* \"BEP20.sol\":5708:5737  _allowed[msg.sender][spender] */\n      0x00\n        /* \"BEP20.sol\":5729:5736  spender */\n      dup6\n        /* \"BEP20.sol\":5708:5737  _allowed[msg.sender][spender] */\n      0xffffffffffffffffffffffffffffffffffffffff\n      and\n      0xffffffffffffffffffffffffffffffffffffffff\n      and\n      dup2\n      mstore\n      0x20\n      add\n      swap1\n      dup2\n      mstore\n      0x20\n      add\n      0x00\n      keccak256\n        /* \"BEP20.sol\":5708:5787  _allowed[msg.sender][spender] = (_allowed[msg.sender][spender].add(addedValue)) */\n      dup2\n      swap1\n      sstore\n      pop\n        /* \"BEP20.sol\":5824:5831  spender */\n      dup3\n        /* \"BEP20.sol\":5803:5863  Approval(msg.sender, spender, _allowed[msg.sender][spender]) */\n      0xffffffffffffffffffffffffffffffffffffffff\n      and\n        /* \"BEP20.sol\":5812:5822  msg.sender */\n      caller\n        /* \"BEP20.sol\":5803:5863  Approval(msg.sender, spender, _allowed[msg.sender][spender]) */\n      0xffffffffffffffffffffffffffffffffffffffff\n      and\n      0x8c5be1e5ebec7d5bd14f71427d1e84f3dd0314c0f7b2291e5b200ac8c7c3b925\n        /* \"BEP20.sol\":5833:5841  _allowed */\n      0x07\n        /* \"BEP20.sol\":5833:5853  _allowed[msg.sender] */\n      0x00\n        /* \"BEP20.sol\":5842:5852  msg.sender */\n      caller\n        /* \"BEP20.sol\":5833:5853  _allowed[msg.sender] */\n      0xffffffffffffffffffffffffffffffffffffffff\n      and\n      0xffffffffffffffffffffffffffffffffffffffff\n      and\n      dup2\n      mstore\n      0x20\n      add\n      swap1\n      dup2\n      mstore\n      0x20\n      add\n      0x00\n      keccak256\n        /* \"BEP20.sol\":5833:5862  _allowed[msg.sender][spender] */\n      0x00\n        /* \"BEP20.sol\":5854:5861  spender */\n      dup8\n        /* \"BEP20.sol\":5833:5862  _allowed[msg.sender][spender] */\n      0xffffffffffffffffffffffffffffffffffffffff\n      and\n      0xffffffffffffffffffffffffffffffffffffffff\n      and\n      dup2\n      mstore\n      0x20\n      add\n      swap1\n      dup2\n      mstore\n      0x20\n      add\n      0x00\n      keccak256\n      sload\n        /* \"BEP20.sol\":5803:5863  Approval(msg.sender, spender, _allowed[msg.sender][spender]) */\n      mload(0x40)\n      tag_133\n      swap2\n      swap1\n      tag_40\n      jump\t// in\n    tag_133:\n      mload(0x40)\n      dup1\n      swap2\n      sub\n      swap1\n      log3\n        /* \"BEP20.sol\":5881:5885  true */\n      0x01\n        /* \"BEP20.sol\":5874:5885  return true */\n      swap1\n      pop\n        /* \"BEP20.sol\":5536:5893  function increaseAllowance(address spender, uint256 addedValue) public returns (bool) {... */\n      swap3\n      swap2\n      pop\n      pop\n      jump\t// out\n        /* \"Claimable.sol\":868:1150  function claimOwnership() public {... */\n    tag_60:\n        /* \"Claimable.sol\":934:946  pendingOwner */\n      0x01\n      0x00\n      swap1\n      sload\n      swap1\n      0x0100\n      exp\n      swap1\n      div\n      0xffffffffffffffffffffffffffffffffffffffff\n      and\n        /* \"Claimable.sol\":920:946  msg.sender == pendingOwner */\n      0xffffffffffffffffffffffffffffffffffffffff\n      and\n        /* \"Claimable.sol\":920:930  msg.sender */\n      caller\n        /* \"Claimable.sol\":920:946  msg.sender == pendingOwner */\n      0xffffffffffffffffffffffffffffffffffffffff\n      and\n      eq\n        /* \"Claimable.sol\":912:970  require(msg.sender == pendingOwner, 'Not a pending owner') */\n      tag_135\n      jumpi\n      mload(0x40)\n      0x08c379a000000000000000000000000000000000000000000000000000000000\n      dup2\n      mstore\n      0x04\n      add\n      tag_136\n      swap1\n      tag_137\n      jump\t// in\n    tag_136:\n      mload(0x40)\n      dup1\n      swap2\n      sub\n      swap1\n      revert\n    tag_135:\n        /* \"Claimable.sol\":983:1004  address previousOwner */\n      0x00\n        /* \"Claimable.sol\":1007:1012  owner */\n      dup1\n      0x00\n      swap1\n      sload\n      swap1\n      0x0100\n      exp\n      swap1\n      div\n      0xffffffffffffffffffffffffffffffffffffffff\n      and\n        /* \"Claimable.sol\":983:1012  address previousOwner = owner */\n      swap1\n      pop\n        /* \"Claimable.sol\":1031:1041  msg.sender */\n      caller\n        /* \"Claimable.sol\":1023:1028  owner */\n      0x00\n      dup1\n        /* \"Claimable.sol\":1023:1041  owner = msg.sender */\n      0x0100\n      exp\n      dup2\n      sload\n      dup2\n      0xffffffffffffffffffffffffffffffffffffffff\n      mul\n      not\n      and\n      swap1\n      dup4\n      0xffffffffffffffffffffffffffffffffffffffff\n      and\n      mul\n      or\n      swap1\n      sstore\n      pop\n        /* \"Claimable.sol\":1075:1076  0 */\n      0x00\n        /* \"Claimable.sol\":1052:1064  pendingOwner */\n      0x01\n      0x00\n        /* \"Claimable.sol\":1052:1077  pendingOwner = address(0) */\n      0x0100\n      exp\n      dup2\n      sload\n      dup2\n      0xffffffffffffffffffffffffffffffffffffffff\n      mul\n      not\n      and\n      swap1\n      dup4\n      0xffffffffffffffffffffffffffffffffffffffff\n      and\n      mul\n      or\n      swap1\n      sstore\n      pop\n        /* \"Claimable.sol\":1131:1141  msg.sender */\n      caller\n        /* \"Claimable.sol\":1095:1142  OwnershipTransferred(previousOwner, msg.sender) */\n      0xffffffffffffffffffffffffffffffffffffffff\n      and\n        /* \"Claimable.sol\":1116:1129  previousOwner */\n      dup2\n        /* \"Claimable.sol\":1095:1142  OwnershipTransferred(previousOwner, msg.sender) */\n      0xffffffffffffffffffffffffffffffffffffffff\n      and\n      0x8be0079c531659141344cd1fd0a4f28419497f9722a3daafe3b4186f6b6457e0\n      mload(0x40)\n      mload(0x40)\n      dup1\n      swap2\n      sub\n      swap1\n      log3\n        /* \"Claimable.sol\":901:1150  {... */\n      pop\n        /* \"Claimable.sol\":868:1150  function claimOwnership() public {... */\n      jump\t// out\n        /* \"BEP20.sol\":4457:4572  function balanceOf(address owner) public view override returns (uint256) {... */\n    tag_63:\n        /* \"BEP20.sol\":4521:4528  uint256 */\n      0x00\n        /* \"BEP20.sol\":4548:4557  _balances */\n      0x06\n        /* \"BEP20.sol\":4548:4564  _balances[owner] */\n      0x00\n        /* \"BEP20.sol\":4558:4563  owner */\n      dup4\n        /* \"BEP20.sol\":4548:4564  _balances[owner] */\n      0xffffffffffffffffffffffffffffffffffffffff\n      and\n      0xffffffffffffffffffffffffffffffffffffffff\n      and\n      dup2\n      mstore\n      0x20\n      add\n      swap1\n      dup2\n      mstore\n      0x20\n      add\n      0x00\n      keccak256\n      sload\n        /* \"BEP20.sol\":4541:4564  return _balances[owner] */\n      swap1\n      pop\n        /* \"BEP20.sol\":4457:4572  function balanceOf(address owner) public view override returns (uint256) {... */\n      swap2\n      swap1\n      pop\n      jump\t// out\n        /* \"BEP20.sol\":4262:4352  function getOwner() public view override returns (address) {... */\n    tag_66:\n        /* \"BEP20.sol\":4312:4319  address */\n      0x00\n        /* \"BEP20.sol\":4339:4344  owner */\n      dup1\n      0x00\n      swap1\n      sload\n      swap1\n      0x0100\n      exp\n      swap1\n      div\n      0xffffffffffffffffffffffffffffffffffffffff\n      and\n        /* \"BEP20.sol\":4332:4344  return owner */\n      swap1\n      pop\n        /* \"BEP20.sol\":4262:4352  function getOwner() public view override returns (address) {... */\n      swap1\n      jump\t// out\n        /* \"Claimable.sol\":98:118  address public owner */\n    tag_70:\n      0x00\n      dup1\n      sload\n      swap1\n      0x0100\n      exp\n      swap1\n      div\n      0xffffffffffffffffffffffffffffffffffffffff\n      and\n      dup2\n      jump\t// out\n        /* \"Claimable.sol\":461:554  function isOwner() public view returns (bool) {... */\n    tag_73:\n        /* \"Claimable.sol\":501:505  bool */\n      0x00\n        /* \"Claimable.sol\":535:545  msg.sender */\n      caller\n        /* \"Claimable.sol\":526:545  owner == msg.sender */\n      0xffffffffffffffffffffffffffffffffffffffff\n      and\n        /* \"Claimable.sol\":526:531  owner */\n      0x00\n      dup1\n      sload\n      swap1\n      0x0100\n      exp\n      swap1\n      div\n      0xffffffffffffffffffffffffffffffffffffffff\n      and\n        /* \"Claimable.sol\":526:545  owner == msg.sender */\n      0xffffffffffffffffffffffffffffffffffffffff\n      and\n      eq\n        /* \"Claimable.sol\":518:546  return (owner == msg.sender) */\n      swap1\n      pop\n        /* \"Claimable.sol\":461:554  function isOwner() public view returns (bool) {... */\n      swap1\n      jump\t// out\n        /* \"BEP20.sol\":3950:4046  function symbol() public view override returns (string memory) {... */\n    tag_76:\n        /* \"BEP20.sol\":3998:4011  string memory */\n      0x60\n        /* \"BEP20.sol\":4031:4038  _symbol */\n      0x04\n        /* \"BEP20.sol\":4024:4038  return _symbol */\n      dup1\n      sload\n      tag_142\n      swap1\n      tag_110\n      jump\t// in\n    tag_142:\n      dup1\n      0x1f\n      add\n      0x20\n      dup1\n      swap2\n      div\n      mul\n      0x20\n      add\n      mload(0x40)\n      swap1\n      dup2\n      add\n      0x40\n      mstore\n      dup1\n      swap3\n      swap2\n      swap1\n      dup2\n      dup2\n      mstore\n      0x20\n      add\n      dup3\n      dup1\n      sload\n      tag_143\n      swap1\n      tag_110\n      jump\t// in\n    tag_143:\n      dup1\n      iszero\n      tag_144\n      jumpi\n      dup1\n      0x1f\n      lt\n      tag_145\n      jumpi\n      0x0100\n      dup1\n      dup4\n      sload\n      div\n      mul\n      dup4\n      mstore\n      swap2\n      0x20\n      add\n      swap2\n      jump(tag_144)\n    tag_145:\n      dup3\n      add\n      swap2\n      swap1\n      0x00\n      mstore\n      keccak256(0x00, 0x20)\n      swap1\n    tag_146:\n      dup2\n      sload\n      dup2\n      mstore\n      swap1\n      0x01\n      add\n      swap1\n      0x20\n      add\n      dup1\n      dup4\n      gt\n      tag_146\n      jumpi\n      dup3\n      swap1\n      sub\n      0x1f\n      and\n      dup3\n      add\n      swap2\n    tag_144:\n      pop\n      pop\n      pop\n      pop\n      pop\n      swap1\n      pop\n        /* \"BEP20.sol\":3950:4046  function symbol() public view override returns (string memory) {... */\n      swap1\n      jump\t// out\n        /* \"BEP20.sol\":4360:4449  function totalBurnt() public view returns (uint256) {... */\n    tag_79:\n        /* \"BEP20.sol\":4403:4410  uint256 */\n      0x00\n        /* \"BEP20.sol\":4430:4441  _totalBurnt */\n      sload(0x09)\n        /* \"BEP20.sol\":4423:4441  return _totalBurnt */\n      swap1\n      pop\n        /* \"BEP20.sol\":4360:4449  function totalBurnt() public view returns (uint256) {... */\n      swap1\n      jump\t// out\n        /* \"Administrable.sol\":476:735  function appointAdmin(address _newAdmin) public onlyContractOwner() returns (bool success) {... */\n    tag_83:\n        /* \"Administrable.sol\":553:565  bool success */\n      0x00\n        /* \"Claimable.sol\":610:619  isOwner() */\n      tag_149\n        /* \"Claimable.sol\":610:617  isOwner */\n      tag_73\n        /* \"Claimable.sol\":610:619  isOwner() */\n      jump\t// in\n    tag_149:\n        /* \"Claimable.sol\":602:644  require(isOwner(), 'Not a contract owner') */\n      tag_150\n      jumpi\n      mload(0x40)\n      0x08c379a000000000000000000000000000000000000000000000000000000000\n      dup2\n      mstore\n      0x04\n      add\n      tag_151\n      swap1\n      tag_152\n      jump\t// in\n    tag_151:\n      mload(0x40)\n      dup1\n      swap2\n      sub\n      swap1\n      revert\n    tag_150:\n        /* \"Administrable.sol\":604:609  false */\n      0x00\n        /* \"Administrable.sol\":582:609  isAdmin[_newAdmin] == false */\n      iszero\n      iszero\n        /* \"Administrable.sol\":582:589  isAdmin */\n      0x02\n        /* \"Administrable.sol\":582:600  isAdmin[_newAdmin] */\n      0x00\n        /* \"Administrable.sol\":590:599  _newAdmin */\n      dup5\n        /* \"Administrable.sol\":582:600  isAdmin[_newAdmin] */\n      0xffffffffffffffffffffffffffffffffffffffff\n      and\n      0xffffffffffffffffffffffffffffffffffffffff\n      and\n      dup2\n      mstore\n      0x20\n      add\n      swap1\n      dup2\n      mstore\n      0x20\n      add\n      0x00\n      keccak256\n      0x00\n      swap1\n      sload\n      swap1\n      0x0100\n      exp\n      swap1\n      div\n      0xff\n      and\n        /* \"Administrable.sol\":582:609  isAdmin[_newAdmin] == false */\n      iszero\n      iszero\n      sub\n        /* \"Administrable.sol\":578:663  if (isAdmin[_newAdmin] == false) {... */\n      tag_154\n      jumpi\n        /* \"Administrable.sol\":647:651  true */\n      0x01\n        /* \"Administrable.sol\":626:633  isAdmin */\n      0x02\n        /* \"Administrable.sol\":626:644  isAdmin[_newAdmin] */\n      0x00\n        /* \"Administrable.sol\":634:643  _newAdmin */\n      dup5\n        /* \"Administrable.sol\":626:644  isAdmin[_newAdmin] */\n      0xffffffffffffffffffffffffffffffffffffffff\n      and\n      0xffffffffffffffffffffffffffffffffffffffff\n      and\n      dup2\n      mstore\n      0x20\n      add\n      swap1\n      dup2\n      mstore\n      0x20\n      add\n      0x00\n      keccak256\n      0x00\n        /* \"Administrable.sol\":626:651  isAdmin[_newAdmin] = true */\n      0x0100\n      exp\n      dup2\n      sload\n      dup2\n      0xff\n      mul\n      not\n      and\n      swap1\n      dup4\n      iszero\n      iszero\n      mul\n      or\n      swap1\n      sstore\n      pop\n        /* \"Administrable.sol\":578:663  if (isAdmin[_newAdmin] == false) {... */\n    tag_154:\n        /* \"Administrable.sol\":680:705  AdminAppointed(_newAdmin) */\n      0x14a1a2d641f8bd1a49a31f4fd8b2e951f722e0207f936a64b44411340a52a4e6\n        /* \"Administrable.sol\":695:704  _newAdmin */\n      dup3\n        /* \"Administrable.sol\":680:705  AdminAppointed(_newAdmin) */\n      mload(0x40)\n      tag_155\n      swap2\n      swap1\n      tag_68\n      jump\t// in\n    tag_155:\n      mload(0x40)\n      dup1\n      swap2\n      sub\n      swap1\n      log1\n        /* \"Administrable.sol\":723:727  true */\n      0x01\n        /* \"Administrable.sol\":716:727  return true */\n      swap1\n      pop\n        /* \"Administrable.sol\":476:735  function appointAdmin(address _newAdmin) public onlyContractOwner() returns (bool success) {... */\n      swap2\n      swap1\n      pop\n      jump\t// out\n        /* \"BEP20.sol\":5901:6268  function decreaseAllowance(address spender, uint256 subtractedValue) public returns (bool) {... */\n    tag_87:\n        /* \"BEP20.sol\":5986:5990  bool */\n      0x00\n        /* \"BEP20.sol\":6030:6031  0 */\n      dup1\n        /* \"BEP20.sol\":6011:6032  spender != address(0) */\n      0xffffffffffffffffffffffffffffffffffffffff\n      and\n        /* \"BEP20.sol\":6011:6018  spender */\n      dup4\n        /* \"BEP20.sol\":6011:6032  spender != address(0) */\n      0xffffffffffffffffffffffffffffffffffffffff\n      and\n      sub\n        /* \"BEP20.sol\":6003:6065  require(spender != address(0), 'spender cannot be address(0)') */\n      tag_157\n      jumpi\n      mload(0x40)\n      0x08c379a000000000000000000000000000000000000000000000000000000000\n      dup2\n      mstore\n      0x04\n      add\n      tag_158\n      swap1\n      tag_118\n      jump\t// in\n    tag_158:\n      mload(0x40)\n      dup1\n      swap2\n      sub\n      swap1\n      revert\n    tag_157:\n        /* \"BEP20.sol\":6111:6161  _allowed[msg.sender][spender].sub(subtractedValue) */\n      tag_159\n        /* \"BEP20.sol\":6145:6160  subtractedValue */\n      dup3\n        /* \"BEP20.sol\":6111:6119  _allowed */\n      0x07\n        /* \"BEP20.sol\":6111:6131  _allowed[msg.sender] */\n      0x00\n        /* \"BEP20.sol\":6120:6130  msg.sender */\n      caller\n        /* \"BEP20.sol\":6111:6131  _allowed[msg.sender] */\n      0xffffffffffffffffffffffffffffffffffffffff\n      and\n      0xffffffffffffffffffffffffffffffffffffffff\n      and\n      dup2\n      mstore\n      0x20\n      add\n      swap1\n      dup2\n      mstore\n      0x20\n      add\n      0x00\n      keccak256\n        /* \"BEP20.sol\":6111:6140  _allowed[msg.sender][spender] */\n      0x00\n        /* \"BEP20.sol\":6132:6139  spender */\n      dup7\n        /* \"BEP20.sol\":6111:6140  _allowed[msg.sender][spender] */\n      0xffffffffffffffffffffffffffffffffffffffff\n      and\n      0xffffffffffffffffffffffffffffffffffffffff\n      and\n      dup2\n      mstore\n      0x20\n      add\n      swap1\n      dup2\n      mstore\n      0x20\n      add\n      0x00\n      keccak256\n      sload\n        /* \"BEP20.sol\":6111:6144  _allowed[msg.sender][spender].sub */\n      tag_123\n      swap1\n        /* \"BEP20.sol\":6111:6161  _allowed[msg.sender][spender].sub(subtractedValue) */\n      swap2\n      swap1\n      0xffffffff\n      and\n      jump\t// in\n    tag_159:\n        /* \"BEP20.sol\":6078:6086  _allowed */\n      0x07\n        /* \"BEP20.sol\":6078:6098  _allowed[msg.sender] */\n      0x00\n        /* \"BEP20.sol\":6087:6097  msg.sender */\n      caller\n        /* \"BEP20.sol\":6078:6098  _allowed[msg.sender] */\n      0xffffffffffffffffffffffffffffffffffffffff\n      and\n      0xffffffffffffffffffffffffffffffffffffffff\n      and\n      dup2\n      mstore\n      0x20\n      add\n      swap1\n      dup2\n      mstore\n      0x20\n      add\n      0x00\n      keccak256\n        /* \"BEP20.sol\":6078:6107  _allowed[msg.sender][spender] */\n      0x00\n        /* \"BEP20.sol\":6099:6106  spender */\n      dup6\n        /* \"BEP20.sol\":6078:6107  _allowed[msg.sender][spender] */\n      0xffffffffffffffffffffffffffffffffffffffff\n      and\n      0xffffffffffffffffffffffffffffffffffffffff\n      and\n      dup2\n      mstore\n      0x20\n      add\n      swap1\n      dup2\n      mstore\n      0x20\n      add\n      0x00\n      keccak256\n        /* \"BEP20.sol\":6078:6162  _allowed[msg.sender][spender] = (_allowed[msg.sender][spender].sub(subtractedValue)) */\n      dup2\n      swap1\n      sstore\n      pop\n        /* \"BEP20.sol\":6199:6206  spender */\n      dup3\n        /* \"BEP20.sol\":6178:6238  Approval(msg.sender, spender, _allowed[msg.sender][spender]) */\n      0xffffffffffffffffffffffffffffffffffffffff\n      and\n        /* \"BEP20.sol\":6187:6197  msg.sender */\n      caller\n        /* \"BEP20.sol\":6178:6238  Approval(msg.sender, spender, _allowed[msg.sender][spender]) */\n      0xffffffffffffffffffffffffffffffffffffffff\n      and\n      0x8c5be1e5ebec7d5bd14f71427d1e84f3dd0314c0f7b2291e5b200ac8c7c3b925\n        /* \"BEP20.sol\":6208:6216  _allowed */\n      0x07\n        /* \"BEP20.sol\":6208:6228  _allowed[msg.sender] */\n      0x00\n        /* \"BEP20.sol\":6217:6227  msg.sender */\n      caller\n        /* \"BEP20.sol\":6208:6228  _allowed[msg.sender] */\n      0xffffffffffffffffffffffffffffffffffffffff\n      and\n      0xffffffffffffffffffffffffffffffffffffffff\n      and\n      dup2\n      mstore\n      0x20\n      add\n      swap1\n      dup2\n      mstore\n      0x20\n      add\n      0x00\n      keccak256\n        /* \"BEP20.sol\":6208:6237  _allowed[msg.sender][spender] */\n      0x00\n        /* \"BEP20.sol\":6229:6236  spender */\n      dup8\n        /* \"BEP20.sol\":6208:6237  _allowed[msg.sender][spender] */\n      0xffffffffffffffffffffffffffffffffffffffff\n      and\n      0xffffffffffffffffffffffffffffffffffffffff\n      and\n      dup2\n      mstore\n      0x20\n      add\n      swap1\n      dup2\n      mstore\n      0x20\n      add\n      0x00\n      keccak256\n      sload\n        /* \"BEP20.sol\":6178:6238  Approval(msg.sender, spender, _allowed[msg.sender][spender]) */\n      mload(0x40)\n      tag_160\n      swap2\n      swap1\n      tag_40\n      jump\t// in\n    tag_160:\n      mload(0x40)\n      dup1\n      swap2\n      sub\n      swap1\n      log3\n        /* \"BEP20.sol\":6256:6260  true */\n      0x01\n        /* \"BEP20.sol\":6249:6260  return true */\n      swap1\n      pop\n        /* \"BEP20.sol\":5901:6268  function decreaseAllowance(address spender, uint256 subtractedValue) public returns (bool) {... */\n      swap3\n      swap2\n      pop\n      pop\n      jump\t// out\n        /* \"Administrable.sol\":743:935  function dismissAdmin(address _admin) public onlyContractOwner() returns (bool success) {... */\n    tag_91:\n        /* \"Administrable.sol\":817:829  bool success */\n      0x00\n        /* \"Claimable.sol\":610:619  isOwner() */\n      tag_162\n        /* \"Claimable.sol\":610:617  isOwner */\n      tag_73\n        /* \"Claimable.sol\":610:619  isOwner() */\n      jump\t// in\n    tag_162:\n        /* \"Claimable.sol\":602:644  require(isOwner(), 'Not a contract owner') */\n      tag_163\n      jumpi\n      mload(0x40)\n      0x08c379a000000000000000000000000000000000000000000000000000000000\n      dup2\n      mstore\n      0x04\n      add\n      tag_164\n      swap1\n      tag_152\n      jump\t// in\n    tag_164:\n      mload(0x40)\n      dup1\n      swap2\n      sub\n      swap1\n      revert\n    tag_163:\n        /* \"Administrable.sol\":860:865  false */\n      0x00\n        /* \"Administrable.sol\":842:849  isAdmin */\n      0x02\n        /* \"Administrable.sol\":842:857  isAdmin[_admin] */\n      0x00\n        /* \"Administrable.sol\":850:856  _admin */\n      dup5\n        /* \"Administrable.sol\":842:857  isAdmin[_admin] */\n      0xffffffffffffffffffffffffffffffffffffffff\n      and\n      0xffffffffffffffffffffffffffffffffffffffff\n      and\n      dup2\n      mstore\n      0x20\n      add\n      swap1\n      dup2\n      mstore\n      0x20\n      add\n      0x00\n      keccak256\n      0x00\n        /* \"Administrable.sol\":842:865  isAdmin[_admin] = false */\n      0x0100\n      exp\n      dup2\n      sload\n      dup2\n      0xff\n      mul\n      not\n      and\n      swap1\n      dup4\n      iszero\n      iszero\n      mul\n      or\n      swap1\n      sstore\n      pop\n        /* \"Administrable.sol\":883:905  AdminDismissed(_admin) */\n      0x8cb585df559166007784fccdddbb80e0efd7c7b40a2d015a911a595825f74b10\n        /* \"Administrable.sol\":898:904  _admin */\n      dup3\n        /* \"Administrable.sol\":883:905  AdminDismissed(_admin) */\n      mload(0x40)\n      tag_166\n      swap2\n      swap1\n      tag_68\n      jump\t// in\n    tag_166:\n      mload(0x40)\n      dup1\n      swap2\n      sub\n      swap1\n      log1\n        /* \"Administrable.sol\":923:927  true */\n      0x01\n        /* \"Administrable.sol\":916:927  return true */\n      swap1\n      pop\n        /* \"Administrable.sol\":743:935  function dismissAdmin(address _admin) public onlyContractOwner() returns (bool success) {... */\n      swap2\n      swap1\n      pop\n      jump\t// out\n        /* \"BEP20.sol\":4728:4885  function transfer(address to, uint256 value) public virtual override returns (bool) {... */\n    tag_95:\n        /* \"BEP20.sol\":4806:4810  bool */\n      0x00\n        /* \"BEP20.sol\":4823:4855  _transfer(msg.sender, to, value) */\n      tag_168\n        /* \"BEP20.sol\":4833:4843  msg.sender */\n      caller\n        /* \"BEP20.sol\":4845:4847  to */\n      dup5\n        /* \"BEP20.sol\":4849:4854  value */\n      dup5\n        /* \"BEP20.sol\":4823:4832  _transfer */\n      tag_125\n        /* \"BEP20.sol\":4823:4855  _transfer(msg.sender, to, value) */\n      jump\t// in\n    tag_168:\n        /* \"BEP20.sol\":4873:4877  true */\n      0x01\n        /* \"BEP20.sol\":4866:4877  return true */\n      swap1\n      pop\n        /* \"BEP20.sol\":4728:4885  function transfer(address to, uint256 value) public virtual override returns (bool) {... */\n      swap3\n      swap2\n      pop\n      pop\n      jump\t// out\n        /* \"BEP20.sol\":4580:4720  function allowance(address owner, address spender) public view override returns (uint256) {... */\n    tag_100:\n        /* \"BEP20.sol\":4661:4668  uint256 */\n      0x00\n        /* \"BEP20.sol\":4688:4696  _allowed */\n      0x07\n        /* \"BEP20.sol\":4688:4703  _allowed[owner] */\n      0x00\n        /* \"BEP20.sol\":4697:4702  owner */\n      dup5\n        /* \"BEP20.sol\":4688:4703  _allowed[owner] */\n      0xffffffffffffffffffffffffffffffffffffffff\n      and\n      0xffffffffffffffffffffffffffffffffffffffff\n      and\n      dup2\n      mstore\n      0x20\n      add\n      swap1\n      dup2\n      mstore\n      0x20\n      add\n      0x00\n      keccak256\n        /* \"BEP20.sol\":4688:4712  _allowed[owner][spender] */\n      0x00\n        /* \"BEP20.sol\":4704:4711  spender */\n      dup4\n        /* \"BEP20.sol\":4688:4712  _allowed[owner][spender] */\n      0xffffffffffffffffffffffffffffffffffffffff\n      and\n      0xffffffffffffffffffffffffffffffffffffffff\n      and\n      dup2\n      mstore\n      0x20\n      add\n      swap1\n      dup2\n      mstore\n      0x20\n      add\n      0x00\n      keccak256\n      sload\n        /* \"BEP20.sol\":4681:4712  return _allowed[owner][spender] */\n      swap1\n      pop\n        /* \"BEP20.sol\":4580:4720  function allowance(address owner, address spender) public view override returns (uint256) {... */\n      swap3\n      swap2\n      pop\n      pop\n      jump\t// out\n        /* \"Claimable.sol\":708:735  address public pendingOwner */\n    tag_103:\n      0x01\n      0x00\n      swap1\n      sload\n      swap1\n      0x0100\n      exp\n      swap1\n      div\n      0xffffffffffffffffffffffffffffffffffffffff\n      and\n      dup2\n      jump\t// out\n        /* \"Claimable.sol\":744:860  function transferOwnership(address _newOwner) public onlyContractOwner() {... */\n    tag_107:\n        /* \"Claimable.sol\":610:619  isOwner() */\n      tag_171\n        /* \"Claimable.sol\":610:617  isOwner */\n      tag_73\n        /* \"Claimable.sol\":610:619  isOwner() */\n      jump\t// in\n    tag_171:\n        /* \"Claimable.sol\":602:644  require(isOwner(), 'Not a contract owner') */\n      tag_172\n      jumpi\n      mload(0x40)\n      0x08c379a000000000000000000000000000000000000000000000000000000000\n      dup2\n      mstore\n      0x04\n      add\n      tag_173\n      swap1\n      tag_152\n      jump\t// in\n    tag_173:\n      mload(0x40)\n      dup1\n      swap2\n      sub\n      swap1\n      revert\n    tag_172:\n        /* \"Claimable.sol\":843:852  _newOwner */\n      dup1\n        /* \"Claimable.sol\":828:840  pendingOwner */\n      0x01\n      0x00\n        /* \"Claimable.sol\":828:852  pendingOwner = _newOwner */\n      0x0100\n      exp\n      dup2\n      sload\n      dup2\n      0xffffffffffffffffffffffffffffffffffffffff\n      mul\n      not\n      and\n      swap1\n      dup4\n      0xffffffffffffffffffffffffffffffffffffffff\n      and\n      mul\n      or\n      swap1\n      sstore\n      pop\n        /* \"Claimable.sol\":744:860  function transferOwnership(address _newOwner) public onlyContractOwner() {... */\n      pop\n      jump\t// out\n        /* \"SafeMath.sol\":824:985  function sub(uint256 a, uint256 b) internal pure returns (uint256) {... */\n    tag_123:\n        /* \"SafeMath.sol\":882:889  uint256 */\n      0x00\n        /* \"SafeMath.sol\":915:916  a */\n      dup3\n        /* \"SafeMath.sol\":910:911  b */\n      dup3\n        /* \"SafeMath.sol\":910:916  b <= a */\n      gt\n      iszero\n        /* \"SafeMath.sol\":902:930  require(b <= a, 'SUB_ERROR') */\n      tag_176\n      jumpi\n      mload(0x40)\n      0x08c379a000000000000000000000000000000000000000000000000000000000\n      dup2\n      mstore\n      0x04\n      add\n      tag_177\n      swap1\n      tag_178\n      jump\t// in\n    tag_177:\n      mload(0x40)\n      dup1\n      swap2\n      sub\n      swap1\n      revert\n    tag_176:\n        /* \"SafeMath.sol\":941:950  uint256 c */\n      0x00\n        /* \"SafeMath.sol\":957:958  b */\n      dup3\n        /* \"SafeMath.sol\":953:954  a */\n      dup5\n        /* \"SafeMath.sol\":953:958  a - b */\n      tag_179\n      swap2\n      swap1\n      tag_180\n      jump\t// in\n    tag_179:\n        /* \"SafeMath.sol\":941:958  uint256 c = a - b */\n      swap1\n      pop\n        /* \"SafeMath.sol\":976:977  c */\n      dup1\n        /* \"SafeMath.sol\":969:977  return c */\n      swap2\n      pop\n      pop\n        /* \"SafeMath.sol\":824:985  function sub(uint256 a, uint256 b) internal pure returns (uint256) {... */\n      swap3\n      swap2\n      pop\n      pop\n      jump\t// out\n        /* \"BEP20.sol\":6276:6666  function _transfer(... */\n    tag_125:\n        /* \"BEP20.sol\":6414:6415  0 */\n      0x00\n        /* \"BEP20.sol\":6398:6416  from != address(0) */\n      0xffffffffffffffffffffffffffffffffffffffff\n      and\n        /* \"BEP20.sol\":6398:6402  from */\n      dup4\n        /* \"BEP20.sol\":6398:6416  from != address(0) */\n      0xffffffffffffffffffffffffffffffffffffffff\n      and\n      sub\n        /* \"BEP20.sol\":6390:6446  require(from != address(0), 'from cannot be address(0)') */\n      tag_182\n      jumpi\n      mload(0x40)\n      0x08c379a000000000000000000000000000000000000000000000000000000000\n      dup2\n      mstore\n      0x04\n      add\n      tag_183\n      swap1\n      tag_184\n      jump\t// in\n    tag_183:\n      mload(0x40)\n      dup1\n      swap2\n      sub\n      swap1\n      revert\n    tag_182:\n        /* \"BEP20.sol\":6479:6480  0 */\n      0x00\n        /* \"BEP20.sol\":6465:6481  to != address(0) */\n      0xffffffffffffffffffffffffffffffffffffffff\n      and\n        /* \"BEP20.sol\":6465:6467  to */\n      dup3\n        /* \"BEP20.sol\":6465:6481  to != address(0) */\n      0xffffffffffffffffffffffffffffffffffffffff\n      and\n      sub\n        /* \"BEP20.sol\":6457:6509  require(to != address(0), 'to cannot be address(0)') */\n      tag_185\n      jumpi\n      mload(0x40)\n      0x08c379a000000000000000000000000000000000000000000000000000000000\n      dup2\n      mstore\n      0x04\n      add\n      tag_186\n      swap1\n      tag_187\n      jump\t// in\n    tag_186:\n      mload(0x40)\n      dup1\n      swap2\n      sub\n      swap1\n      revert\n    tag_185:\n        /* \"BEP20.sol\":6540:6566  _balances[from].sub(value) */\n      tag_188\n        /* \"BEP20.sol\":6560:6565  value */\n      dup2\n        /* \"BEP20.sol\":6540:6549  _balances */\n      0x06\n        /* \"BEP20.sol\":6540:6555  _balances[from] */\n      0x00\n        /* \"BEP20.sol\":6550:6554  from */\n      dup7\n        /* \"BEP20.sol\":6540:6555  _balances[from] */\n      0xffffffffffffffffffffffffffffffffffffffff\n      and\n      0xffffffffffffffffffffffffffffffffffffffff\n      and\n      dup2\n      mstore\n      0x20\n      add\n      swap1\n      dup2\n      mstore\n      0x20\n      add\n      0x00\n      keccak256\n      sload\n        /* \"BEP20.sol\":6540:6559  _balances[from].sub */\n      tag_123\n      swap1\n        /* \"BEP20.sol\":6540:6566  _balances[from].sub(value) */\n      swap2\n      swap1\n      0xffffffff\n      and\n      jump\t// in\n    tag_188:\n        /* \"BEP20.sol\":6522:6531  _balances */\n      0x06\n        /* \"BEP20.sol\":6522:6537  _balances[from] */\n      0x00\n        /* \"BEP20.sol\":6532:6536  from */\n      dup6\n        /* \"BEP20.sol\":6522:6537  _balances[from] */\n      0xffffffffffffffffffffffffffffffffffffffff\n      and\n      0xffffffffffffffffffffffffffffffffffffffff\n      and\n      dup2\n      mstore\n      0x20\n      add\n      swap1\n      dup2\n      mstore\n      0x20\n      add\n      0x00\n      keccak256\n        /* \"BEP20.sol\":6522:6566  _balances[from] = _balances[from].sub(value) */\n      dup2\n      swap1\n      sstore\n      pop\n        /* \"BEP20.sol\":6593:6617  _balances[to].add(value) */\n      tag_189\n        /* \"BEP20.sol\":6611:6616  value */\n      dup2\n        /* \"BEP20.sol\":6593:6602  _balances */\n      0x06\n        /* \"BEP20.sol\":6593:6606  _balances[to] */\n      0x00\n        /* \"BEP20.sol\":6603:6605  to */\n      dup6\n        /* \"BEP20.sol\":6593:6606  _balances[to] */\n      0xffffffffffffffffffffffffffffffffffffffff\n      and\n      0xffffffffffffffffffffffffffffffffffffffff\n      and\n      dup2\n      mstore\n      0x20\n      add\n      swap1\n      dup2\n      mstore\n      0x20\n      add\n      0x00\n      keccak256\n      sload\n        /* \"BEP20.sol\":6593:6610  _balances[to].add */\n      tag_132\n      swap1\n        /* \"BEP20.sol\":6593:6617  _balances[to].add(value) */\n      swap2\n      swap1\n      0xffffffff\n      and\n      jump\t// in\n    tag_189:\n        /* \"BEP20.sol\":6577:6586  _balances */\n      0x06\n        /* \"BEP20.sol\":6577:6590  _balances[to] */\n      0x00\n        /* \"BEP20.sol\":6587:6589  to */\n      dup5\n        /* \"BEP20.sol\":6577:6590  _balances[to] */\n      0xffffffffffffffffffffffffffffffffffffffff\n      and\n      0xffffffffffffffffffffffffffffffffffffffff\n      and\n      dup2\n      mstore\n      0x20\n      add\n      swap1\n      dup2\n      mstore\n      0x20\n      add\n      0x00\n      keccak256\n        /* \"BEP20.sol\":6577:6617  _balances[to] = _balances[to].add(value) */\n      dup2\n      swap1\n      sstore\n      pop\n        /* \"BEP20.sol\":6648:6650  to */\n      dup2\n        /* \"BEP20.sol\":6633:6658  Transfer(from, to, value) */\n      0xffffffffffffffffffffffffffffffffffffffff\n      and\n        /* \"BEP20.sol\":6642:6646  from */\n      dup4\n        /* \"BEP20.sol\":6633:6658  Transfer(from, to, value) */\n      0xffffffffffffffffffffffffffffffffffffffff\n      and\n      0xddf252ad1be2c89b69c2b068fc378daa952ba7f163c4a11628f55a4df523b3ef\n        /* \"BEP20.sol\":6652:6657  value */\n      dup4\n        /* \"BEP20.sol\":6633:6658  Transfer(from, to, value) */\n      mload(0x40)\n      tag_190\n      swap2\n      swap1\n      tag_40\n      jump\t// in\n    tag_190:\n      mload(0x40)\n      dup1\n      swap2\n      sub\n      swap1\n      log3\n        /* \"BEP20.sol\":6276:6666  function _transfer(... */\n      pop\n      pop\n      pop\n      jump\t// out\n        /* \"SafeMath.sol\":1046:1207  function add(uint256 a, uint256 b) internal pure returns (uint256) {... */\n    tag_132:\n        /* \"SafeMath.sol\":1104:1111  uint256 */\n      0x00\n        /* \"SafeMath.sol\":1124:1133  uint256 c */\n      dup1\n        /* \"SafeMath.sol\":1140:1141  b */\n      dup3\n        /* \"SafeMath.sol\":1136:1137  a */\n      dup5\n        /* \"SafeMath.sol\":1136:1141  a + b */\n      tag_192\n      swap2\n      swap1\n      tag_193\n      jump\t// in\n    tag_192:\n        /* \"SafeMath.sol\":1124:1141  uint256 c = a + b */\n      swap1\n      pop\n        /* \"SafeMath.sol\":1165:1166  a */\n      dup4\n        /* \"SafeMath.sol\":1160:1161  c */\n      dup2\n        /* \"SafeMath.sol\":1160:1166  c >= a */\n      lt\n      iszero\n        /* \"SafeMath.sol\":1152:1180  require(c >= a, 'ADD_ERROR') */\n      tag_194\n      jumpi\n      mload(0x40)\n      0x08c379a000000000000000000000000000000000000000000000000000000000\n      dup2\n      mstore\n      0x04\n      add\n      tag_195\n      swap1\n      tag_196\n      jump\t// in\n    tag_195:\n      mload(0x40)\n      dup1\n      swap2\n      sub\n      swap1\n      revert\n    tag_194:\n        /* \"SafeMath.sol\":1198:1199  c */\n      dup1\n        /* \"SafeMath.sol\":1191:1199  return c */\n      swap2\n      pop\n      pop\n        /* \"SafeMath.sol\":1046:1207  function add(uint256 a, uint256 b) internal pure returns (uint256) {... */\n      swap3\n      swap2\n      pop\n      pop\n      jump\t// out\n        /* \"#utility.yul\":7:106   */\n    tag_197:\n        /* \"#utility.yul\":59:65   */\n      0x00\n        /* \"#utility.yul\":93:98   */\n      dup2\n        /* \"#utility.yul\":87:99   */\n      mload\n        /* \"#utility.yul\":77:99   */\n      swap1\n      pop\n        /* \"#utility.yul\":7:106   */\n      swap2\n      swap1\n      pop\n      jump\t// out\n        /* \"#utility.yul\":112:281   */\n    tag_198:\n        /* \"#utility.yul\":196:207   */\n      0x00\n        /* \"#utility.yul\":230:236   */\n      dup3\n        /* \"#utility.yul\":225:228   */\n      dup3\n        /* \"#utility.yul\":218:237   */\n      mstore\n        /* \"#utility.yul\":270:274   */\n      0x20\n        /* \"#utility.yul\":265:268   */\n      dup3\n        /* \"#utility.yul\":261:275   */\n      add\n        /* \"#utility.yul\":246:275   */\n      swap1\n      pop\n        /* \"#utility.yul\":112:281   */\n      swap3\n      swap2\n      pop\n      pop\n      jump\t// out\n        /* \"#utility.yul\":287:533   */\n    tag_199:\n        /* \"#utility.yul\":368:369   */\n      0x00\n        /* \"#utility.yul\":378:491   */\n    tag_238:\n        /* \"#utility.yul\":392:398   */\n      dup4\n        /* \"#utility.yul\":389:390   */\n      dup2\n        /* \"#utility.yul\":386:399   */\n      lt\n        /* \"#utility.yul\":378:491   */\n      iszero\n      tag_240\n      jumpi\n        /* \"#utility.yul\":477:478   */\n      dup1\n        /* \"#utility.yul\":472:475   */\n      dup3\n        /* \"#utility.yul\":468:479   */\n      add\n        /* \"#utility.yul\":462:480   */\n      mload\n        /* \"#utility.yul\":458:459   */\n      dup2\n        /* \"#utility.yul\":453:456   */\n      dup5\n        /* \"#utility.yul\":449:460   */\n      add\n        /* \"#utility.yul\":442:481   */\n      mstore\n        /* \"#utility.yul\":414:416   */\n      0x20\n        /* \"#utility.yul\":411:412   */\n      dup2\n        /* \"#utility.yul\":407:417   */\n      add\n        /* \"#utility.yul\":402:417   */\n      swap1\n      pop\n        /* \"#utility.yul\":378:491   */\n      jump(tag_238)\n    tag_240:\n        /* \"#utility.yul\":525:526   */\n      0x00\n        /* \"#utility.yul\":516:522   */\n      dup5\n        /* \"#utility.yul\":511:514   */\n      dup5\n        /* \"#utility.yul\":507:523   */\n      add\n        /* \"#utility.yul\":500:527   */\n      mstore\n        /* \"#utility.yul\":349:533   */\n      pop\n        /* \"#utility.yul\":287:533   */\n      pop\n      pop\n      pop\n      jump\t// out\n        /* \"#utility.yul\":539:641   */\n    tag_200:\n        /* \"#utility.yul\":580:586   */\n      0x00\n        /* \"#utility.yul\":631:633   */\n      0x1f\n        /* \"#utility.yul\":627:634   */\n      not\n        /* \"#utility.yul\":622:624   */\n      0x1f\n        /* \"#utility.yul\":615:620   */\n      dup4\n        /* \"#utility.yul\":611:625   */\n      add\n        /* \"#utility.yul\":607:635   */\n      and\n        /* \"#utility.yul\":597:635   */\n      swap1\n      pop\n        /* \"#utility.yul\":539:641   */\n      swap2\n      swap1\n      pop\n      jump\t// out\n        /* \"#utility.yul\":647:1024   */\n    tag_201:\n        /* \"#utility.yul\":735:738   */\n      0x00\n        /* \"#utility.yul\":763:802   */\n      tag_243\n        /* \"#utility.yul\":796:801   */\n      dup3\n        /* \"#utility.yul\":763:802   */\n      tag_197\n      jump\t// in\n    tag_243:\n        /* \"#utility.yul\":818:889   */\n      tag_244\n        /* \"#utility.yul\":882:888   */\n      dup2\n        /* \"#utility.yul\":877:880   */\n      dup6\n        /* \"#utility.yul\":818:889   */\n      tag_198\n      jump\t// in\n    tag_244:\n        /* \"#utility.yul\":811:889   */\n      swap4\n      pop\n        /* \"#utility.yul\":898:963   */\n      tag_245\n        /* \"#utility.yul\":956:962   */\n      dup2\n        /* \"#utility.yul\":951:954   */\n      dup6\n        /* \"#utility.yul\":944:948   */\n      0x20\n        /* \"#utility.yul\":937:942   */\n      dup7\n        /* \"#utility.yul\":933:949   */\n      add\n        /* \"#utility.yul\":898:963   */\n      tag_199\n      jump\t// in\n    tag_245:\n        /* \"#utility.yul\":988:1017   */\n      tag_246\n        /* \"#utility.yul\":1010:1016   */\n      dup2\n        /* \"#utility.yul\":988:1017   */\n      tag_200\n      jump\t// in\n    tag_246:\n        /* \"#utility.yul\":983:986   */\n      dup5\n        /* \"#utility.yul\":979:1018   */\n      add\n        /* \"#utility.yul\":972:1018   */\n      swap2\n      pop\n        /* \"#utility.yul\":739:1024   */\n      pop\n        /* \"#utility.yul\":647:1024   */\n      swap3\n      swap2\n      pop\n      pop\n      jump\t// out\n        /* \"#utility.yul\":1030:1343   */\n    tag_30:\n        /* \"#utility.yul\":1143:1147   */\n      0x00\n        /* \"#utility.yul\":1181:1183   */\n      0x20\n        /* \"#utility.yul\":1170:1179   */\n      dup3\n        /* \"#utility.yul\":1166:1184   */\n      add\n        /* \"#utility.yul\":1158:1184   */\n      swap1\n      pop\n        /* \"#utility.yul\":1230:1239   */\n      dup2\n        /* \"#utility.yul\":1224:1228   */\n      dup2\n        /* \"#utility.yul\":1220:1240   */\n      sub\n        /* \"#utility.yul\":1216:1217   */\n      0x00\n        /* \"#utility.yul\":1205:1214   */\n      dup4\n        /* \"#utility.yul\":1201:1218   */\n      add\n        /* \"#utility.yul\":1194:1241   */\n      mstore\n        /* \"#utility.yul\":1258:1336   */\n      tag_248\n        /* \"#utility.yul\":1331:1335   */\n      dup2\n        /* \"#utility.yul\":1322:1328   */\n      dup5\n        /* \"#utility.yul\":1258:1336   */\n      tag_201\n      jump\t// in\n    tag_248:\n        /* \"#utility.yul\":1250:1336   */\n      swap1\n      pop\n        /* \"#utility.yul\":1030:1343   */\n      swap3\n      swap2\n      pop\n      pop\n      jump\t// out\n        /* \"#utility.yul\":1430:1547   */\n    tag_203:\n        /* \"#utility.yul\":1539:1540   */\n      0x00\n        /* \"#utility.yul\":1536:1537   */\n      dup1\n        /* \"#utility.yul\":1529:1541   */\n      revert\n        /* \"#utility.yul\":1676:1802   */\n    tag_205:\n        /* \"#utility.yul\":1713:1720   */\n      0x00\n        /* \"#utility.yul\":1753:1795   */\n      0xffffffffffffffffffffffffffffffffffffffff\n        /* \"#utility.yul\":1746:1751   */\n      dup3\n        /* \"#utility.yul\":1742:1796   */\n      and\n        /* \"#utility.yul\":1731:1796   */\n      swap1\n      pop\n        /* \"#utility.yul\":1676:1802   */\n      swap2\n      swap1\n      pop\n      jump\t// out\n        /* \"#utility.yul\":1808:1904   */\n    tag_206:\n        /* \"#utility.yul\":1845:1852   */\n      0x00\n        /* \"#utility.yul\":1874:1898   */\n      tag_254\n        /* \"#utility.yul\":1892:1897   */\n      dup3\n        /* \"#utility.yul\":1874:1898   */\n      tag_205\n      jump\t// in\n    tag_254:\n        /* \"#utility.yul\":1863:1898   */\n      swap1\n      pop\n        /* \"#utility.yul\":1808:1904   */\n      swap2\n      swap1\n      pop\n      jump\t// out\n        /* \"#utility.yul\":1910:2032   */\n    tag_207:\n        /* \"#utility.yul\":1983:2007   */\n      tag_256\n        /* \"#utility.yul\":2001:2006   */\n      dup2\n        /* \"#utility.yul\":1983:2007   */\n      tag_206\n      jump\t// in\n    tag_256:\n        /* \"#utility.yul\":1976:1981   */\n      dup2\n        /* \"#utility.yul\":1973:2008   */\n      eq\n        /* \"#utility.yul\":1963:2026   */\n      tag_257\n      jumpi\n        /* \"#utility.yul\":2022:2023   */\n      0x00\n        /* \"#utility.yul\":2019:2020   */\n      dup1\n        /* \"#utility.yul\":2012:2024   */\n      revert\n        /* \"#utility.yul\":1963:2026   */\n    tag_257:\n        /* \"#utility.yul\":1910:2032   */\n      pop\n      jump\t// out\n        /* \"#utility.yul\":2038:2177   */\n    tag_208:\n        /* \"#utility.yul\":2084:2089   */\n      0x00\n        /* \"#utility.yul\":2122:2128   */\n      dup2\n        /* \"#utility.yul\":2109:2129   */\n      calldataload\n        /* \"#utility.yul\":2100:2129   */\n      swap1\n      pop\n        /* \"#utility.yul\":2138:2171   */\n      tag_259\n        /* \"#utility.yul\":2165:2170   */\n      dup2\n        /* \"#utility.yul\":2138:2171   */\n      tag_207\n      jump\t// in\n    tag_259:\n        /* \"#utility.yul\":2038:2177   */\n      swap3\n      swap2\n      pop\n      pop\n      jump\t// out\n        /* \"#utility.yul\":2183:2260   */\n    tag_209:\n        /* \"#utility.yul\":2220:2227   */\n      0x00\n        /* \"#utility.yul\":2249:2254   */\n      dup2\n        /* \"#utility.yul\":2238:2254   */\n      swap1\n      pop\n        /* \"#utility.yul\":2183:2260   */\n      swap2\n      swap1\n      pop\n      jump\t// out\n        /* \"#utility.yul\":2266:2388   */\n    tag_210:\n        /* \"#utility.yul\":2339:2363   */\n      tag_262\n        /* \"#utility.yul\":2357:2362   */\n      dup2\n        /* \"#utility.yul\":2339:2363   */\n      tag_209\n      jump\t// in\n    tag_262:\n        /* \"#utility.yul\":2332:2337   */\n      dup2\n        /* \"#utility.yul\":2329:2364   */\n      eq\n        /* \"#utility.yul\":2319:2382   */\n      tag_263\n      jumpi\n        /* \"#utility.yul\":2378:2379   */\n      0x00\n        /* \"#utility.yul\":2375:2376   */\n      dup1\n        /* \"#utility.yul\":2368:2380   */\n      revert\n        /* \"#utility.yul\":2319:2382   */\n    tag_263:\n        /* \"#utility.yul\":2266:2388   */\n      pop\n      jump\t// out\n        /* \"#utility.yul\":2394:2533   */\n    tag_211:\n        /* \"#utility.yul\":2440:2445   */\n      0x00\n        /* \"#utility.yul\":2478:2484   */\n      dup2\n        /* \"#utility.yul\":2465:2485   */\n      calldataload\n        /* \"#utility.yul\":2456:2485   */\n      swap1\n      pop\n        /* \"#utility.yul\":2494:2527   */\n      tag_265\n        /* \"#utility.yul\":2521:2526   */\n      dup2\n        /* \"#utility.yul\":2494:2527   */\n      tag_210\n      jump\t// in\n    tag_265:\n        /* \"#utility.yul\":2394:2533   */\n      swap3\n      swap2\n      pop\n      pop\n      jump\t// out\n        /* \"#utility.yul\":2539:3013   */\n    tag_33:\n        /* \"#utility.yul\":2607:2613   */\n      0x00\n        /* \"#utility.yul\":2615:2621   */\n      dup1\n        /* \"#utility.yul\":2664:2666   */\n      0x40\n        /* \"#utility.yul\":2652:2661   */\n      dup4\n        /* \"#utility.yul\":2643:2650   */\n      dup6\n        /* \"#utility.yul\":2639:2662   */\n      sub\n        /* \"#utility.yul\":2635:2667   */\n      slt\n        /* \"#utility.yul\":2632:2751   */\n      iszero\n      tag_267\n      jumpi\n        /* \"#utility.yul\":2670:2749   */\n      tag_268\n      tag_203\n      jump\t// in\n    tag_268:\n        /* \"#utility.yul\":2632:2751   */\n    tag_267:\n        /* \"#utility.yul\":2790:2791   */\n      0x00\n        /* \"#utility.yul\":2815:2868   */\n      tag_269\n        /* \"#utility.yul\":2860:2867   */\n      dup6\n        /* \"#utility.yul\":2851:2857   */\n      dup3\n        /* \"#utility.yul\":2840:2849   */\n      dup7\n        /* \"#utility.yul\":2836:2858   */\n      add\n        /* \"#utility.yul\":2815:2868   */\n      tag_208\n      jump\t// in\n    tag_269:\n        /* \"#utility.yul\":2805:2868   */\n      swap3\n      pop\n        /* \"#utility.yul\":2761:2878   */\n      pop\n        /* \"#utility.yul\":2917:2919   */\n      0x20\n        /* \"#utility.yul\":2943:2996   */\n      tag_270\n        /* \"#utility.yul\":2988:2995   */\n      dup6\n        /* \"#utility.yul\":2979:2985   */\n      dup3\n        /* \"#utility.yul\":2968:2977   */\n      dup7\n        /* \"#utility.yul\":2964:2986   */\n      add\n        /* \"#utility.yul\":2943:2996   */\n      tag_211\n      jump\t// in\n    tag_270:\n        /* \"#utility.yul\":2933:2996   */\n      swap2\n      pop\n        /* \"#utility.yul\":2888:3006   */\n      pop\n        /* \"#utility.yul\":2539:3013   */\n      swap3\n      pop\n      swap3\n      swap1\n      pop\n      jump\t// out\n        /* \"#utility.yul\":3019:3109   */\n    tag_212:\n        /* \"#utility.yul\":3053:3060   */\n      0x00\n        /* \"#utility.yul\":3096:3101   */\n      dup2\n        /* \"#utility.yul\":3089:3102   */\n      iszero\n        /* \"#utility.yul\":3082:3103   */\n      iszero\n        /* \"#utility.yul\":3071:3103   */\n      swap1\n      pop\n        /* \"#utility.yul\":3019:3109   */\n      swap2\n      swap1\n      pop\n      jump\t// out\n        /* \"#utility.yul\":3115:3224   */\n    tag_213:\n        /* \"#utility.yul\":3196:3217   */\n      tag_273\n        /* \"#utility.yul\":3211:3216   */\n      dup2\n        /* \"#utility.yul\":3196:3217   */\n      tag_212\n      jump\t// in\n    tag_273:\n        /* \"#utility.yul\":3191:3194   */\n      dup3\n        /* \"#utility.yul\":3184:3218   */\n      mstore\n        /* \"#utility.yul\":3115:3224   */\n      pop\n      pop\n      jump\t// out\n        /* \"#utility.yul\":3230:3440   */\n    tag_36:\n        /* \"#utility.yul\":3317:3321   */\n      0x00\n        /* \"#utility.yul\":3355:3357   */\n      0x20\n        /* \"#utility.yul\":3344:3353   */\n      dup3\n        /* \"#utility.yul\":3340:3358   */\n      add\n        /* \"#utility.yul\":3332:3358   */\n      swap1\n      pop\n        /* \"#utility.yul\":3368:3433   */\n      tag_275\n        /* \"#utility.yul\":3430:3431   */\n      0x00\n        /* \"#utility.yul\":3419:3428   */\n      dup4\n        /* \"#utility.yul\":3415:3432   */\n      add\n        /* \"#utility.yul\":3406:3412   */\n      dup5\n        /* \"#utility.yul\":3368:3433   */\n      tag_213\n      jump\t// in\n    tag_275:\n        /* \"#utility.yul\":3230:3440   */\n      swap3\n      swap2\n      pop\n      pop\n      jump\t// out\n        /* \"#utility.yul\":3446:3564   */\n    tag_214:\n        /* \"#utility.yul\":3533:3557   */\n      tag_277\n        /* \"#utility.yul\":3551:3556   */\n      dup2\n        /* \"#utility.yul\":3533:3557   */\n      tag_209\n      jump\t// in\n    tag_277:\n        /* \"#utility.yul\":3528:3531   */\n      dup3\n        /* \"#utility.yul\":3521:3558   */\n      mstore\n        /* \"#utility.yul\":3446:3564   */\n      pop\n      pop\n      jump\t// out\n        /* \"#utility.yul\":3570:3792   */\n    tag_40:\n        /* \"#utility.yul\":3663:3667   */\n      0x00\n        /* \"#utility.yul\":3701:3703   */\n      0x20\n        /* \"#utility.yul\":3690:3699   */\n      dup3\n        /* \"#utility.yul\":3686:3704   */\n      add\n        /* \"#utility.yul\":3678:3704   */\n      swap1\n      pop\n        /* \"#utility.yul\":3714:3785   */\n      tag_279\n        /* \"#utility.yul\":3782:3783   */\n      0x00\n        /* \"#utility.yul\":3771:3780   */\n      dup4\n        /* \"#utility.yul\":3767:3784   */\n      add\n        /* \"#utility.yul\":3758:3764   */\n      dup5\n        /* \"#utility.yul\":3714:3785   */\n      tag_214\n      jump\t// in\n    tag_279:\n        /* \"#utility.yul\":3570:3792   */\n      swap3\n      swap2\n      pop\n      pop\n      jump\t// out\n        /* \"#utility.yul\":3798:4417   */\n    tag_43:\n        /* \"#utility.yul\":3875:3881   */\n      0x00\n        /* \"#utility.yul\":3883:3889   */\n      dup1\n        /* \"#utility.yul\":3891:3897   */\n      0x00\n        /* \"#utility.yul\":3940:3942   */\n      0x60\n        /* \"#utility.yul\":3928:3937   */\n      dup5\n        /* \"#utility.yul\":3919:3926   */\n      dup7\n        /* \"#utility.yul\":3915:3938   */\n      sub\n        /* \"#utility.yul\":3911:3943   */\n      slt\n        /* \"#utility.yul\":3908:4027   */\n      iszero\n      tag_281\n      jumpi\n        /* \"#utility.yul\":3946:4025   */\n      tag_282\n      tag_203\n      jump\t// in\n    tag_282:\n        /* \"#utility.yul\":3908:4027   */\n    tag_281:\n        /* \"#utility.yul\":4066:4067   */\n      0x00\n        /* \"#utility.yul\":4091:4144   */\n      tag_283\n        /* \"#utility.yul\":4136:4143   */\n      dup7\n        /* \"#utility.yul\":4127:4133   */\n      dup3\n        /* \"#utility.yul\":4116:4125   */\n      dup8\n        /* \"#utility.yul\":4112:4134   */\n      add\n        /* \"#utility.yul\":4091:4144   */\n      tag_208\n      jump\t// in\n    tag_283:\n        /* \"#utility.yul\":4081:4144   */\n      swap4\n      pop\n        /* \"#utility.yul\":4037:4154   */\n      pop\n        /* \"#utility.yul\":4193:4195   */\n      0x20\n        /* \"#utility.yul\":4219:4272   */\n      tag_284\n        /* \"#utility.yul\":4264:4271   */\n      dup7\n        /* \"#utility.yul\":4255:4261   */\n      dup3\n        /* \"#utility.yul\":4244:4253   */\n      dup8\n        /* \"#utility.yul\":4240:4262   */\n      add\n        /* \"#utility.yul\":4219:4272   */\n      tag_208\n      jump\t// in\n    tag_284:\n        /* \"#utility.yul\":4209:4272   */\n      swap3\n      pop\n        /* \"#utility.yul\":4164:4282   */\n      pop\n        /* \"#utility.yul\":4321:4323   */\n      0x40\n        /* \"#utility.yul\":4347:4400   */\n      tag_285\n        /* \"#utility.yul\":4392:4399   */\n      dup7\n        /* \"#utility.yul\":4383:4389   */\n      dup3\n        /* \"#utility.yul\":4372:4381   */\n      dup8\n        /* \"#utility.yul\":4368:4390   */\n      add\n        /* \"#utility.yul\":4347:4400   */\n      tag_211\n      jump\t// in\n    tag_285:\n        /* \"#utility.yul\":4337:4400   */\n      swap2\n      pop\n        /* \"#utility.yul\":4292:4410   */\n      pop\n        /* \"#utility.yul\":3798:4417   */\n      swap3\n      pop\n      swap3\n      pop\n      swap3\n      jump\t// out\n        /* \"#utility.yul\":4423:4752   */\n    tag_48:\n        /* \"#utility.yul\":4482:4488   */\n      0x00\n        /* \"#utility.yul\":4531:4533   */\n      0x20\n        /* \"#utility.yul\":4519:4528   */\n      dup3\n        /* \"#utility.yul\":4510:4517   */\n      dup5\n        /* \"#utility.yul\":4506:4529   */\n      sub\n        /* \"#utility.yul\":4502:4534   */\n      slt\n        /* \"#utility.yul\":4499:4618   */\n      iszero\n      tag_287\n      jumpi\n        /* \"#utility.yul\":4537:4616   */\n      tag_288\n      tag_203\n      jump\t// in\n    tag_288:\n        /* \"#utility.yul\":4499:4618   */\n    tag_287:\n        /* \"#utility.yul\":4657:4658   */\n      0x00\n        /* \"#utility.yul\":4682:4735   */\n      tag_289\n        /* \"#utility.yul\":4727:4734   */\n      dup5\n        /* \"#utility.yul\":4718:4724   */\n      dup3\n        /* \"#utility.yul\":4707:4716   */\n      dup6\n        /* \"#utility.yul\":4703:4725   */\n      add\n        /* \"#utility.yul\":4682:4735   */\n      tag_208\n      jump\t// in\n    tag_289:\n        /* \"#utility.yul\":4672:4735   */\n      swap2\n      pop\n        /* \"#utility.yul\":4628:4745   */\n      pop\n        /* \"#utility.yul\":4423:4752   */\n      swap3\n      swap2\n      pop\n      pop\n      jump\t// out\n        /* \"#utility.yul\":4758:4844   */\n    tag_215:\n        /* \"#utility.yul\":4793:4800   */\n      0x00\n        /* \"#utility.yul\":4833:4837   */\n      0xff\n        /* \"#utility.yul\":4826:4831   */\n      dup3\n        /* \"#utility.yul\":4822:4838   */\n      and\n        /* \"#utility.yul\":4811:4838   */\n      swap1\n      pop\n        /* \"#utility.yul\":4758:4844   */\n      swap2\n      swap1\n      pop\n      jump\t// out\n        /* \"#utility.yul\":4850:4962   */\n    tag_216:\n        /* \"#utility.yul\":4933:4955   */\n      tag_292\n        /* \"#utility.yul\":4949:4954   */\n      dup2\n        /* \"#utility.yul\":4933:4955   */\n      tag_215\n      jump\t// in\n    tag_292:\n        /* \"#utility.yul\":4928:4931   */\n      dup3\n        /* \"#utility.yul\":4921:4956   */\n      mstore\n        /* \"#utility.yul\":4850:4962   */\n      pop\n      pop\n      jump\t// out\n        /* \"#utility.yul\":4968:5182   */\n    tag_54:\n        /* \"#utility.yul\":5057:5061   */\n      0x00\n        /* \"#utility.yul\":5095:5097   */\n      0x20\n        /* \"#utility.yul\":5084:5093   */\n      dup3\n        /* \"#utility.yul\":5080:5098   */\n      add\n        /* \"#utility.yul\":5072:5098   */\n      swap1\n      pop\n        /* \"#utility.yul\":5108:5175   */\n      tag_294\n        /* \"#utility.yul\":5172:5173   */\n      0x00\n        /* \"#utility.yul\":5161:5170   */\n      dup4\n        /* \"#utility.yul\":5157:5174   */\n      add\n        /* \"#utility.yul\":5148:5154   */\n      dup5\n        /* \"#utility.yul\":5108:5175   */\n      tag_216\n      jump\t// in\n    tag_294:\n        /* \"#utility.yul\":4968:5182   */\n      swap3\n      swap2\n      pop\n      pop\n      jump\t// out\n        /* \"#utility.yul\":5188:5306   */\n    tag_217:\n        /* \"#utility.yul\":5275:5299   */\n      tag_296\n        /* \"#utility.yul\":5293:5298   */\n      dup2\n        /* \"#utility.yul\":5275:5299   */\n      tag_206\n      jump\t// in\n    tag_296:\n        /* \"#utility.yul\":5270:5273   */\n      dup3\n        /* \"#utility.yul\":5263:5300   */\n      mstore\n        /* \"#utility.yul\":5188:5306   */\n      pop\n      pop\n      jump\t// out\n        /* \"#utility.yul\":5312:5534   */\n    tag_68:\n        /* \"#utility.yul\":5405:5409   */\n      0x00\n        /* \"#utility.yul\":5443:5445   */\n      0x20\n        /* \"#utility.yul\":5432:5441   */\n      dup3\n        /* \"#utility.yul\":5428:5446   */\n      add\n        /* \"#utility.yul\":5420:5446   */\n      swap1\n      pop\n        /* \"#utility.yul\":5456:5527   */\n      tag_298\n        /* \"#utility.yul\":5524:5525   */\n      0x00\n        /* \"#utility.yul\":5513:5522   */\n      dup4\n        /* \"#utility.yul\":5509:5526   */\n      add\n        /* \"#utility.yul\":5500:5506   */\n      dup5\n        /* \"#utility.yul\":5456:5527   */\n      tag_217\n      jump\t// in\n    tag_298:\n        /* \"#utility.yul\":5312:5534   */\n      swap3\n      swap2\n      pop\n      pop\n      jump\t// out\n        /* \"#utility.yul\":5540:6014   */\n    tag_99:\n        /* \"#utility.yul\":5608:5614   */\n      0x00\n        /* \"#utility.yul\":5616:5622   */\n      dup1\n        /* \"#utility.yul\":5665:5667   */\n      0x40\n        /* \"#utility.yul\":5653:5662   */\n      dup4\n        /* \"#utility.yul\":5644:5651   */\n      dup6\n        /* \"#utility.yul\":5640:5663   */\n      sub\n        /* \"#utility.yul\":5636:5668   */\n      slt\n        /* \"#utility.yul\":5633:5752   */\n      iszero\n      tag_300\n      jumpi\n        /* \"#utility.yul\":5671:5750   */\n      tag_301\n      tag_203\n      jump\t// in\n    tag_301:\n        /* \"#utility.yul\":5633:5752   */\n    tag_300:\n        /* \"#utility.yul\":5791:5792   */\n      0x00\n        /* \"#utility.yul\":5816:5869   */\n      tag_302\n        /* \"#utility.yul\":5861:5868   */\n      dup6\n        /* \"#utility.yul\":5852:5858   */\n      dup3\n        /* \"#utility.yul\":5841:5850   */\n      dup7\n        /* \"#utility.yul\":5837:5859   */\n      add\n        /* \"#utility.yul\":5816:5869   */\n      tag_208\n      jump\t// in\n    tag_302:\n        /* \"#utility.yul\":5806:5869   */\n      swap3\n      pop\n        /* \"#utility.yul\":5762:5879   */\n      pop\n        /* \"#utility.yul\":5918:5920   */\n      0x20\n        /* \"#utility.yul\":5944:5997   */\n      tag_303\n        /* \"#utility.yul\":5989:5996   */\n      dup6\n        /* \"#utility.yul\":5980:5986   */\n      dup3\n        /* \"#utility.yul\":5969:5978   */\n      dup7\n        /* \"#utility.yul\":5965:5987   */\n      add\n        /* \"#utility.yul\":5944:5997   */\n      tag_208\n      jump\t// in\n    tag_303:\n        /* \"#utility.yul\":5934:5997   */\n      swap2\n      pop\n        /* \"#utility.yul\":5889:6007   */\n      pop\n        /* \"#utility.yul\":5540:6014   */\n      swap3\n      pop\n      swap3\n      swap1\n      pop\n      jump\t// out\n        /* \"#utility.yul\":6020:6200   */\n    tag_218:\n        /* \"#utility.yul\":6068:6145   */\n      0x4e487b7100000000000000000000000000000000000000000000000000000000\n        /* \"#utility.yul\":6065:6066   */\n      0x00\n        /* \"#utility.yul\":6058:6146   */\n      mstore\n        /* \"#utility.yul\":6165:6169   */\n      0x22\n        /* \"#utility.yul\":6162:6163   */\n      0x04\n        /* \"#utility.yul\":6155:6170   */\n      mstore\n        /* \"#utility.yul\":6189:6193   */\n      0x24\n        /* \"#utility.yul\":6186:6187   */\n      0x00\n        /* \"#utility.yul\":6179:6194   */\n      revert\n        /* \"#utility.yul\":6206:6526   */\n    tag_110:\n        /* \"#utility.yul\":6250:6256   */\n      0x00\n        /* \"#utility.yul\":6287:6288   */\n      0x02\n        /* \"#utility.yul\":6281:6285   */\n      dup3\n        /* \"#utility.yul\":6277:6289   */\n      div\n        /* \"#utility.yul\":6267:6289   */\n      swap1\n      pop\n        /* \"#utility.yul\":6334:6335   */\n      0x01\n        /* \"#utility.yul\":6328:6332   */\n      dup3\n        /* \"#utility.yul\":6324:6336   */\n      and\n        /* \"#utility.yul\":6355:6373   */\n      dup1\n        /* \"#utility.yul\":6345:6426   */\n      tag_306\n      jumpi\n        /* \"#utility.yul\":6411:6415   */\n      0x7f\n        /* \"#utility.yul\":6403:6409   */\n      dup3\n        /* \"#utility.yul\":6399:6416   */\n      and\n        /* \"#utility.yul\":6389:6416   */\n      swap2\n      pop\n        /* \"#utility.yul\":6345:6426   */\n    tag_306:\n        /* \"#utility.yul\":6473:6475   */\n      0x20\n        /* \"#utility.yul\":6465:6471   */\n      dup3\n        /* \"#utility.yul\":6462:6476   */\n      lt\n        /* \"#utility.yul\":6442:6460   */\n      dup2\n        /* \"#utility.yul\":6439:6477   */\n      sub\n        /* \"#utility.yul\":6436:6520   */\n      tag_307\n      jumpi\n        /* \"#utility.yul\":6492:6510   */\n      tag_308\n      tag_218\n      jump\t// in\n    tag_308:\n        /* \"#utility.yul\":6436:6520   */\n    tag_307:\n        /* \"#utility.yul\":6257:6526   */\n      pop\n        /* \"#utility.yul\":6206:6526   */\n      swap2\n      swap1\n      pop\n      jump\t// out\n        /* \"#utility.yul\":6532:6710   */\n    tag_219:\n        /* \"#utility.yul\":6672:6702   */\n      0x7370656e6465722063616e6e6f74206265206164647265737328302900000000\n        /* \"#utility.yul\":6668:6669   */\n      0x00\n        /* \"#utility.yul\":6660:6666   */\n      dup3\n        /* \"#utility.yul\":6656:6670   */\n      add\n        /* \"#utility.yul\":6649:6703   */\n      mstore\n        /* \"#utility.yul\":6532:6710   */\n      pop\n      jump\t// out\n        /* \"#utility.yul\":6716:7082   */\n    tag_220:\n        /* \"#utility.yul\":6858:6861   */\n      0x00\n        /* \"#utility.yul\":6879:6946   */\n      tag_311\n        /* \"#utility.yul\":6943:6945   */\n      0x1c\n        /* \"#utility.yul\":6938:6941   */\n      dup4\n        /* \"#utility.yul\":6879:6946   */\n      tag_198\n      jump\t// in\n    tag_311:\n        /* \"#utility.yul\":6872:6946   */\n      swap2\n      pop\n        /* \"#utility.yul\":6955:7048   */\n      tag_312\n        /* \"#utility.yul\":7044:7047   */\n      dup3\n        /* \"#utility.yul\":6955:7048   */\n      tag_219\n      jump\t// in\n    tag_312:\n        /* \"#utility.yul\":7073:7075   */\n      0x20\n        /* \"#utility.yul\":7068:7071   */\n      dup3\n        /* \"#utility.yul\":7064:7076   */\n      add\n        /* \"#utility.yul\":7057:7076   */\n      swap1\n      pop\n        /* \"#utility.yul\":6716:7082   */\n      swap2\n      swap1\n      pop\n      jump\t// out\n        /* \"#utility.yul\":7088:7507   */\n    tag_118:\n        /* \"#utility.yul\":7254:7258   */\n      0x00\n        /* \"#utility.yul\":7292:7294   */\n      0x20\n        /* \"#utility.yul\":7281:7290   */\n      dup3\n        /* \"#utility.yul\":7277:7295   */\n      add\n        /* \"#utility.yul\":7269:7295   */\n      swap1\n      pop\n        /* \"#utility.yul\":7341:7350   */\n      dup2\n        /* \"#utility.yul\":7335:7339   */\n      dup2\n        /* \"#utility.yul\":7331:7351   */\n      sub\n        /* \"#utility.yul\":7327:7328   */\n      0x00\n        /* \"#utility.yul\":7316:7325   */\n      dup4\n        /* \"#utility.yul\":7312:7329   */\n      add\n        /* \"#utility.yul\":7305:7352   */\n      mstore\n        /* \"#utility.yul\":7369:7500   */\n      tag_314\n        /* \"#utility.yul\":7495:7499   */\n      dup2\n        /* \"#utility.yul\":7369:7500   */\n      tag_220\n      jump\t// in\n    tag_314:\n        /* \"#utility.yul\":7361:7500   */\n      swap1\n      pop\n        /* \"#utility.yul\":7088:7507   */\n      swap2\n      swap1\n      pop\n      jump\t// out\n        /* \"#utility.yul\":7513:7682   */\n    tag_221:\n        /* \"#utility.yul\":7653:7674   */\n      0x4e6f7420612070656e64696e67206f776e657200000000000000000000000000\n        /* \"#utility.yul\":7649:7650   */\n      0x00\n        /* \"#utility.yul\":7641:7647   */\n      dup3\n        /* \"#utility.yul\":7637:7651   */\n      add\n        /* \"#utility.yul\":7630:7675   */\n      mstore\n        /* \"#utility.yul\":7513:7682   */\n      pop\n      jump\t// out\n        /* \"#utility.yul\":7688:8054   */\n    tag_222:\n        /* \"#utility.yul\":7830:7833   */\n      0x00\n        /* \"#utility.yul\":7851:7918   */\n      tag_317\n        /* \"#utility.yul\":7915:7917   */\n      0x13\n        /* \"#utility.yul\":7910:7913   */\n      dup4\n        /* \"#utility.yul\":7851:7918   */\n      tag_198\n      jump\t// in\n    tag_317:\n        /* \"#utility.yul\":7844:7918   */\n      swap2\n      pop\n        /* \"#utility.yul\":7927:8020   */\n      tag_318\n        /* \"#utility.yul\":8016:8019   */\n      dup3\n        /* \"#utility.yul\":7927:8020   */\n      tag_221\n      jump\t// in\n    tag_318:\n        /* \"#utility.yul\":8045:8047   */\n      0x20\n        /* \"#utility.yul\":8040:8043   */\n      dup3\n        /* \"#utility.yul\":8036:8048   */\n      add\n        /* \"#utility.yul\":8029:8048   */\n      swap1\n      pop\n        /* \"#utility.yul\":7688:8054   */\n      swap2\n      swap1\n      pop\n      jump\t// out\n        /* \"#utility.yul\":8060:8479   */\n    tag_137:\n        /* \"#utility.yul\":8226:8230   */\n      0x00\n        /* \"#utility.yul\":8264:8266   */\n      0x20\n        /* \"#utility.yul\":8253:8262   */\n      dup3\n        /* \"#utility.yul\":8249:8267   */\n      add\n        /* \"#utility.yul\":8241:8267   */\n      swap1\n      pop\n        /* \"#utility.yul\":8313:8322   */\n      dup2\n        /* \"#utility.yul\":8307:8311   */\n      dup2\n        /* \"#utility.yul\":8303:8323   */\n      sub\n        /* \"#utility.yul\":8299:8300   */\n      0x00\n        /* \"#utility.yul\":8288:8297   */\n      dup4\n        /* \"#utility.yul\":8284:8301   */\n      add\n        /* \"#utility.yul\":8277:8324   */\n      mstore\n        /* \"#utility.yul\":8341:8472   */\n      tag_320\n        /* \"#utility.yul\":8467:8471   */\n      dup2\n        /* \"#utility.yul\":8341:8472   */\n      tag_222\n      jump\t// in\n    tag_320:\n        /* \"#utility.yul\":8333:8472   */\n      swap1\n      pop\n        /* \"#utility.yul\":8060:8479   */\n      swap2\n      swap1\n      pop\n      jump\t// out\n        /* \"#utility.yul\":8485:8655   */\n    tag_223:\n        /* \"#utility.yul\":8625:8647   */\n      0x4e6f74206120636f6e7472616374206f776e6572000000000000000000000000\n        /* \"#utility.yul\":8621:8622   */\n      0x00\n        /* \"#utility.yul\":8613:8619   */\n      dup3\n        /* \"#utility.yul\":8609:8623   */\n      add\n        /* \"#utility.yul\":8602:8648   */\n      mstore\n        /* \"#utility.yul\":8485:8655   */\n      pop\n      jump\t// out\n        /* \"#utility.yul\":8661:9027   */\n    tag_224:\n        /* \"#utility.yul\":8803:8806   */\n      0x00\n        /* \"#utility.yul\":8824:8891   */\n      tag_323\n        /* \"#utility.yul\":8888:8890   */\n      0x14\n        /* \"#utility.yul\":8883:8886   */\n      dup4\n        /* \"#utility.yul\":8824:8891   */\n      tag_198\n      jump\t// in\n    tag_323:\n        /* \"#utility.yul\":8817:8891   */\n      swap2\n      pop\n        /* \"#utility.yul\":8900:8993   */\n      tag_324\n        /* \"#utility.yul\":8989:8992   */\n      dup3\n        /* \"#utility.yul\":8900:8993   */\n      tag_223\n      jump\t// in\n    tag_324:\n        /* \"#utility.yul\":9018:9020   */\n      0x20\n        /* \"#utility.yul\":9013:9016   */\n      dup3\n        /* \"#utility.yul\":9009:9021   */\n      add\n        /* \"#utility.yul\":9002:9021   */\n      swap1\n      pop\n        /* \"#utility.yul\":8661:9027   */\n      swap2\n      swap1\n      pop\n      jump\t// out\n        /* \"#utility.yul\":9033:9452   */\n    tag_152:\n        /* \"#utility.yul\":9199:9203   */\n      0x00\n        /* \"#utility.yul\":9237:9239   */\n      0x20\n        /* \"#utility.yul\":9226:9235   */\n      dup3\n        /* \"#utility.yul\":9222:9240   */\n      add\n        /* \"#utility.yul\":9214:9240   */\n      swap1\n      pop\n        /* \"#utility.yul\":9286:9295   */\n      dup2\n        /* \"#utility.yul\":9280:9284   */\n      dup2\n        /* \"#utility.yul\":9276:9296   */\n      sub\n        /* \"#utility.yul\":9272:9273   */\n      0x00\n        /* \"#utility.yul\":9261:9270   */\n      dup4\n        /* \"#utility.yul\":9257:9274   */\n      add\n        /* \"#utility.yul\":9250:9297   */\n      mstore\n        /* \"#utility.yul\":9314:9445   */\n      tag_326\n        /* \"#utility.yul\":9440:9444   */\n      dup2\n        /* \"#utility.yul\":9314:9445   */\n      tag_224\n      jump\t// in\n    tag_326:\n        /* \"#utility.yul\":9306:9445   */\n      swap1\n      pop\n        /* \"#utility.yul\":9033:9452   */\n      swap2\n      swap1\n      pop\n      jump\t// out\n        /* \"#utility.yul\":9458:9617   */\n    tag_225:\n        /* \"#utility.yul\":9598:9609   */\n      0x5355425f4552524f520000000000000000000000000000000000000000000000\n        /* \"#utility.yul\":9594:9595   */\n      0x00\n        /* \"#utility.yul\":9586:9592   */\n      dup3\n        /* \"#utility.yul\":9582:9596   */\n      add\n        /* \"#utility.yul\":9575:9610   */\n      mstore\n        /* \"#utility.yul\":9458:9617   */\n      pop\n      jump\t// out\n        /* \"#utility.yul\":9623:9988   */\n    tag_226:\n        /* \"#utility.yul\":9765:9768   */\n      0x00\n        /* \"#utility.yul\":9786:9852   */\n      tag_329\n        /* \"#utility.yul\":9850:9851   */\n      0x09\n        /* \"#utility.yul\":9845:9848   */\n      dup4\n        /* \"#utility.yul\":9786:9852   */\n      tag_198\n      jump\t// in\n    tag_329:\n        /* \"#utility.yul\":9779:9852   */\n      swap2\n      pop\n        /* \"#utility.yul\":9861:9954   */\n      tag_330\n        /* \"#utility.yul\":9950:9953   */\n      dup3\n        /* \"#utility.yul\":9861:9954   */\n      tag_225\n      jump\t// in\n    tag_330:\n        /* \"#utility.yul\":9979:9981   */\n      0x20\n        /* \"#utility.yul\":9974:9977   */\n      dup3\n        /* \"#utility.yul\":9970:9982   */\n      add\n        /* \"#utility.yul\":9963:9982   */\n      swap1\n      pop\n        /* \"#utility.yul\":9623:9988   */\n      swap2\n      swap1\n      pop\n      jump\t// out\n        /* \"#utility.yul\":9994:10413   */\n    tag_178:\n        /* \"#utility.yul\":10160:10164   */\n      0x00\n        /* \"#utility.yul\":10198:10200   */\n      0x20\n        /* \"#utility.yul\":10187:10196   */\n      dup3\n        /* \"#utility.yul\":10183:10201   */\n      add\n        /* \"#utility.yul\":10175:10201   */\n      swap1\n      pop\n        /* \"#utility.yul\":10247:10256   */\n      dup2\n        /* \"#utility.yul\":10241:10245   */\n      dup2\n        /* \"#utility.yul\":10237:10257   */\n      sub\n        /* \"#utility.yul\":10233:10234   */\n      0x00\n        /* \"#utility.yul\":10222:10231   */\n      dup4\n        /* \"#utility.yul\":10218:10235   */\n      add\n        /* \"#utility.yul\":10211:10258   */\n      mstore\n        /* \"#utility.yul\":10275:10406   */\n      tag_332\n        /* \"#utility.yul\":10401:10405   */\n      dup2\n        /* \"#utility.yul\":10275:10406   */\n      tag_226\n      jump\t// in\n    tag_332:\n        /* \"#utility.yul\":10267:10406   */\n      swap1\n      pop\n        /* \"#utility.yul\":9994:10413   */\n      swap2\n      swap1\n      pop\n      jump\t// out\n        /* \"#utility.yul\":10419:10599   */\n    tag_227:\n        /* \"#utility.yul\":10467:10544   */\n      0x4e487b7100000000000000000000000000000000000000000000000000000000\n        /* \"#utility.yul\":10464:10465   */\n      0x00\n        /* \"#utility.yul\":10457:10545   */\n      mstore\n        /* \"#utility.yul\":10564:10568   */\n      0x11\n        /* \"#utility.yul\":10561:10562   */\n      0x04\n        /* \"#utility.yul\":10554:10569   */\n      mstore\n        /* \"#utility.yul\":10588:10592   */\n      0x24\n        /* \"#utility.yul\":10585:10586   */\n      0x00\n        /* \"#utility.yul\":10578:10593   */\n      revert\n        /* \"#utility.yul\":10605:10799   */\n    tag_180:\n        /* \"#utility.yul\":10645:10649   */\n      0x00\n        /* \"#utility.yul\":10665:10685   */\n      tag_335\n        /* \"#utility.yul\":10683:10684   */\n      dup3\n        /* \"#utility.yul\":10665:10685   */\n      tag_209\n      jump\t// in\n    tag_335:\n        /* \"#utility.yul\":10660:10685   */\n      swap2\n      pop\n        /* \"#utility.yul\":10699:10719   */\n      tag_336\n        /* \"#utility.yul\":10717:10718   */\n      dup4\n        /* \"#utility.yul\":10699:10719   */\n      tag_209\n      jump\t// in\n    tag_336:\n        /* \"#utility.yul\":10694:10719   */\n      swap3\n      pop\n        /* \"#utility.yul\":10743:10744   */\n      dup3\n        /* \"#utility.yul\":10740:10741   */\n      dup3\n        /* \"#utility.yul\":10736:10745   */\n      sub\n        /* \"#utility.yul\":10728:10745   */\n      swap1\n      pop\n        /* \"#utility.yul\":10767:10768   */\n      dup2\n        /* \"#utility.yul\":10761:10765   */\n      dup2\n        /* \"#utility.yul\":10758:10769   */\n      gt\n        /* \"#utility.yul\":10755:10792   */\n      iszero\n      tag_337\n      jumpi\n        /* \"#utility.yul\":10772:10790   */\n      tag_338\n      tag_227\n      jump\t// in\n    tag_338:\n        /* \"#utility.yul\":10755:10792   */\n    tag_337:\n        /* \"#utility.yul\":10605:10799   */\n      swap3\n      swap2\n      pop\n      pop\n      jump\t// out\n        /* \"#utility.yul\":10805:10980   */\n    tag_228:\n        /* \"#utility.yul\":10945:10972   */\n      0x66726f6d2063616e6e6f74206265206164647265737328302900000000000000\n        /* \"#utility.yul\":10941:10942   */\n      0x00\n        /* \"#utility.yul\":10933:10939   */\n      dup3\n        /* \"#utility.yul\":10929:10943   */\n      add\n        /* \"#utility.yul\":10922:10973   */\n      mstore\n        /* \"#utility.yul\":10805:10980   */\n      pop\n      jump\t// out\n        /* \"#utility.yul\":10986:11352   */\n    tag_229:\n        /* \"#utility.yul\":11128:11131   */\n      0x00\n        /* \"#utility.yul\":11149:11216   */\n      tag_341\n        /* \"#utility.yul\":11213:11215   */\n      0x19\n        /* \"#utility.yul\":11208:11211   */\n      dup4\n        /* \"#utility.yul\":11149:11216   */\n      tag_198\n      jump\t// in\n    tag_341:\n        /* \"#utility.yul\":11142:11216   */\n      swap2\n      pop\n        /* \"#utility.yul\":11225:11318   */\n      tag_342\n        /* \"#utility.yul\":11314:11317   */\n      dup3\n        /* \"#utility.yul\":11225:11318   */\n      tag_228\n      jump\t// in\n    tag_342:\n        /* \"#utility.yul\":11343:11345   */\n      0x20\n        /* \"#utility.yul\":11338:11341   */\n      dup3\n        /* \"#utility.yul\":11334:11346   */\n      add\n        /* \"#utility.yul\":11327:11346   */\n      swap1\n      pop\n        /* \"#utility.yul\":10986:11352   */\n      swap2\n      swap1\n      pop\n      jump\t// out\n        /* \"#utility.yul\":11358:11777   */\n    tag_184:\n        /* \"#utility.yul\":11524:11528   */\n      0x00\n        /* \"#utility.yul\":11562:11564   */\n      0x20\n        /* \"#utility.yul\":11551:11560   */\n      dup3\n        /* \"#utility.yul\":11547:11565   */\n      add\n        /* \"#utility.yul\":11539:11565   */\n      swap1\n      pop\n        /* \"#utility.yul\":11611:11620   */\n      dup2\n        /* \"#utility.yul\":11605:11609   */\n      dup2\n        /* \"#utility.yul\":11601:11621   */\n      sub\n        /* \"#utility.yul\":11597:11598   */\n      0x00\n        /* \"#utility.yul\":11586:11595   */\n      dup4\n        /* \"#utility.yul\":11582:11599   */\n      add\n        /* \"#utility.yul\":11575:11622   */\n      mstore\n        /* \"#utility.yul\":11639:11770   */\n      tag_344\n        /* \"#utility.yul\":11765:11769   */\n      dup2\n        /* \"#utility.yul\":11639:11770   */\n      tag_229\n      jump\t// in\n    tag_344:\n        /* \"#utility.yul\":11631:11770   */\n      swap1\n      pop\n        /* \"#utility.yul\":11358:11777   */\n      swap2\n      swap1\n      pop\n      jump\t// out\n        /* \"#utility.yul\":11783:11956   */\n    tag_230:\n        /* \"#utility.yul\":11923:11948   */\n      0x746f2063616e6e6f742062652061646472657373283029000000000000000000\n        /* \"#utility.yul\":11919:11920   */\n      0x00\n        /* \"#utility.yul\":11911:11917   */\n      dup3\n        /* \"#utility.yul\":11907:11921   */\n      add\n        /* \"#utility.yul\":11900:11949   */\n      mstore\n        /* \"#utility.yul\":11783:11956   */\n      pop\n      jump\t// out\n        /* \"#utility.yul\":11962:12328   */\n    tag_231:\n        /* \"#utility.yul\":12104:12107   */\n      0x00\n        /* \"#utility.yul\":12125:12192   */\n      tag_347\n        /* \"#utility.yul\":12189:12191   */\n      0x17\n        /* \"#utility.yul\":12184:12187   */\n      dup4\n        /* \"#utility.yul\":12125:12192   */\n      tag_198\n      jump\t// in\n    tag_347:\n        /* \"#utility.yul\":12118:12192   */\n      swap2\n      pop\n        /* \"#utility.yul\":12201:12294   */\n      tag_348\n        /* \"#utility.yul\":12290:12293   */\n      dup3\n        /* \"#utility.yul\":12201:12294   */\n      tag_230\n      jump\t// in\n    tag_348:\n        /* \"#utility.yul\":12319:12321   */\n      0x20\n        /* \"#utility.yul\":12314:12317   */\n      dup3\n        /* \"#utility.yul\":12310:12322   */\n      add\n        /* \"#utility.yul\":12303:12322   */\n      swap1\n      pop\n        /* \"#utility.yul\":11962:12328   */\n      swap2\n      swap1\n      pop\n      jump\t// out\n        /* \"#utility.yul\":12334:12753   */\n    tag_187:\n        /* \"#utility.yul\":12500:12504   */\n      0x00\n        /* \"#utility.yul\":12538:12540   */\n      0x20\n        /* \"#utility.yul\":12527:12536   */\n      dup3\n        /* \"#utility.yul\":12523:12541   */\n      add\n        /* \"#utility.yul\":12515:12541   */\n      swap1\n      pop\n        /* \"#utility.yul\":12587:12596   */\n      dup2\n        /* \"#utility.yul\":12581:12585   */\n      dup2\n        /* \"#utility.yul\":12577:12597   */\n      sub\n        /* \"#utility.yul\":12573:12574   */\n      0x00\n        /* \"#utility.yul\":12562:12571   */\n      dup4\n        /* \"#utility.yul\":12558:12575   */\n      add\n        /* \"#utility.yul\":12551:12598   */\n      mstore\n        /* \"#utility.yul\":12615:12746   */\n      tag_350\n        /* \"#utility.yul\":12741:12745   */\n      dup2\n        /* \"#utility.yul\":12615:12746   */\n      tag_231\n      jump\t// in\n    tag_350:\n        /* \"#utility.yul\":12607:12746   */\n      swap1\n      pop\n        /* \"#utility.yul\":12334:12753   */\n      swap2\n      swap1\n      pop\n      jump\t// out\n        /* \"#utility.yul\":12759:12950   */\n    tag_193:\n        /* \"#utility.yul\":12799:12802   */\n      0x00\n        /* \"#utility.yul\":12818:12838   */\n      tag_352\n        /* \"#utility.yul\":12836:12837   */\n      dup3\n        /* \"#utility.yul\":12818:12838   */\n      tag_209\n      jump\t// in\n    tag_352:\n        /* \"#utility.yul\":12813:12838   */\n      swap2\n      pop\n        /* \"#utility.yul\":12852:12872   */\n      tag_353\n        /* \"#utility.yul\":12870:12871   */\n      dup4\n        /* \"#utility.yul\":12852:12872   */\n      tag_209\n      jump\t// in\n    tag_353:\n        /* \"#utility.yul\":12847:12872   */\n      swap3\n      pop\n        /* \"#utility.yul\":12895:12896   */\n      dup3\n        /* \"#utility.yul\":12892:12893   */\n      dup3\n        /* \"#utility.yul\":12888:12897   */\n      add\n        /* \"#utility.yul\":12881:12897   */\n      swap1\n      pop\n        /* \"#utility.yul\":12916:12919   */\n      dup1\n        /* \"#utility.yul\":12913:12914   */\n      dup3\n        /* \"#utility.yul\":12910:12920   */\n      gt\n        /* \"#utility.yul\":12907:12943   */\n      iszero\n      tag_354\n      jumpi\n        /* \"#utility.yul\":12923:12941   */\n      tag_355\n      tag_227\n      jump\t// in\n    tag_355:\n        /* \"#utility.yul\":12907:12943   */\n    tag_354:\n        /* \"#utility.yul\":12759:12950   */\n      swap3\n      swap2\n      pop\n      pop\n      jump\t// out\n        /* \"#utility.yul\":12956:13115   */\n    tag_232:\n        /* \"#utility.yul\":13096:13107   */\n      0x4144445f4552524f520000000000000000000000000000000000000000000000\n        /* \"#utility.yul\":13092:13093   */\n      0x00\n        /* \"#utility.yul\":13084:13090   */\n      dup3\n        /* \"#utility.yul\":13080:13094   */\n      add\n        /* \"#utility.yul\":13073:13108   */\n      mstore\n        /* \"#utility.yul\":12956:13115   */\n      pop\n      jump\t// out\n        /* \"#utility.yul\":13121:13486   */\n    tag_233:\n        /* \"#utility.yul\":13263:13266   */\n      0x00\n        /* \"#utility.yul\":13284:13350   */\n      tag_358\n        /* \"#utility.yul\":13348:13349   */\n      0x09\n        /* \"#utility.yul\":13343:13346   */\n      dup4\n        /* \"#utility.yul\":13284:13350   */\n      tag_198\n      jump\t// in\n    tag_358:\n        /* \"#utility.yul\":13277:13350   */\n      swap2\n      pop\n        /* \"#utility.yul\":13359:13452   */\n      tag_359\n        /* \"#utility.yul\":13448:13451   */\n      dup3\n        /* \"#utility.yul\":13359:13452   */\n      tag_232\n      jump\t// in\n    tag_359:\n        /* \"#utility.yul\":13477:13479   */\n      0x20\n        /* \"#utility.yul\":13472:13475   */\n      dup3\n        /* \"#utility.yul\":13468:13480   */\n      add\n        /* \"#utility.yul\":13461:13480   */\n      swap1\n      pop\n        /* \"#utility.yul\":13121:13486   */\n      swap2\n      swap1\n      pop\n      jump\t// out\n        /* \"#utility.yul\":13492:13911   */\n    tag_196:\n        /* \"#utility.yul\":13658:13662   */\n      0x00\n        /* \"#utility.yul\":13696:13698   */\n      0x20\n        /* \"#utility.yul\":13685:13694   */\n      dup3\n        /* \"#utility.yul\":13681:13699   */\n      add\n        /* \"#utility.yul\":13673:13699   */\n      swap1\n      pop\n        /* \"#utility.yul\":13745:13754   */\n      dup2\n        /* \"#utility.yul\":13739:13743   */\n      dup2\n        /* \"#utility.yul\":13735:13755   */\n      sub\n        /* \"#utility.yul\":13731:13732   */\n      0x00\n        /* \"#utility.yul\":13720:13729   */\n      dup4\n        /* \"#utility.yul\":13716:13733   */\n      add\n        /* \"#utility.yul\":13709:13756   */\n      mstore\n        /* \"#utility.yul\":13773:13904   */\n      tag_361\n        /* \"#utility.yul\":13899:13903   */\n      dup2\n        /* \"#utility.yul\":13773:13904   */\n      tag_233\n      jump\t// in\n    tag_361:\n        /* \"#utility.yul\":13765:13904   */\n      swap1\n      pop\n        /* \"#utility.yul\":13492:13911   */\n      swap2\n      swap1\n      pop\n      jump\t// out\n\n    auxdata: 0xa26469706673582212207cf4642e1d552d2c449cd4bc98482862f0690a3553e28f15a6e17de95903056864736f6c63430008160033\n}\n",
				"bytecode": {
					"linkReferences": {},
					"object": "608060405234801562000010575f80fd5b5060405162002572380380620025728339818101604052810190620000369190620003c2565b335f806101000a81548173ffffffffffffffffffffffffffffffffffffffff021916908373ffffffffffffffffffffffffffffffffffffffff1602179055505f8054906101000a900473ffffffffffffffffffffffffffffffffffffffff1673ffffffffffffffffffffffffffffffffffffffff165f73ffffffffffffffffffffffffffffffffffffffff167f8be0079c531659141344cd1fd0a4f28419497f9722a3daafe3b4186f6b6457e060405160405180910390a3600160025f805f9054906101000a900473ffffffffffffffffffffffffffffffffffffffff1673ffffffffffffffffffffffffffffffffffffffff1673ffffffffffffffffffffffffffffffffffffffff1681526020019081526020015f205f6101000a81548160ff0219169083151502179055507f14a1a2d641f8bd1a49a31f4fd8b2e951f722e0207f936a64b44411340a52a4e65f8054906101000a900473ffffffffffffffffffffffffffffffffffffffff16604051620001b391906200049c565b60405180910390a18260039081620001cc9190620006ee565b508160049081620001de9190620006ee565b508060055f6101000a81548160ff021916908360ff160217905550505050620007d2565b5f604051905090565b5f80fd5b5f80fd5b5f80fd5b5f80fd5b5f601f19601f8301169050919050565b7f4e487b71000000000000000000000000000000000000000000000000000000005f52604160045260245ffd5b62000263826200021b565b810181811067ffffffffffffffff821117156200028557620002846200022b565b5b80604052505050565b5f6200029962000202565b9050620002a7828262000258565b919050565b5f67ffffffffffffffff821115620002c957620002c86200022b565b5b620002d4826200021b565b9050602081019050919050565b5f5b8381101562000300578082015181840152602081019050620002e3565b5f8484015250505050565b5f620003216200031b84620002ac565b6200028e565b90508281526020810184848401111562000340576200033f62000217565b5b6200034d848285620002e1565b509392505050565b5f82601f8301126200036c576200036b62000213565b5b81516200037e8482602086016200030b565b91505092915050565b5f60ff82169050919050565b6200039e8162000387565b8114620003a9575f80fd5b50565b5f81519050620003bc8162000393565b92915050565b5f805f60608486031215620003dc57620003db6200020b565b5b5f84015167ffffffffffffffff811115620003fc57620003fb6200020f565b5b6200040a8682870162000355565b935050602084015167ffffffffffffffff8111156200042e576200042d6200020f565b5b6200043c8682870162000355565b92505060406200044f86828701620003ac565b9150509250925092565b5f73ffffffffffffffffffffffffffffffffffffffff82169050919050565b5f620004848262000459565b9050919050565b620004968162000478565b82525050565b5f602082019050620004b15f8301846200048b565b92915050565b5f81519050919050565b7f4e487b71000000000000000000000000000000000000000000000000000000005f52602260045260245ffd5b5f60028204905060018216806200050657607f821691505b6020821081036200051c576200051b620004c1565b5b50919050565b5f819050815f5260205f209050919050565b5f6020601f8301049050919050565b5f82821b905092915050565b5f60088302620005807fffffffffffffffffffffffffffffffffffffffffffffffffffffffffffffffff8262000543565b6200058c868362000543565b95508019841693508086168417925050509392505050565b5f819050919050565b5f819050919050565b5f620005d6620005d0620005ca84620005a4565b620005ad565b620005a4565b9050919050565b5f819050919050565b620005f183620005b6565b620006096200060082620005dd565b8484546200054f565b825550505050565b5f90565b6200061f62000611565b6200062c818484620005e6565b505050565b5b818110156200065357620006475f8262000615565b60018101905062000632565b5050565b601f821115620006a2576200066c8162000522565b620006778462000534565b8101602085101562000687578190505b6200069f620006968562000534565b83018262000631565b50505b505050565b5f82821c905092915050565b5f620006c45f1984600802620006a7565b1980831691505092915050565b5f620006de8383620006b3565b9150826002028217905092915050565b620006f982620004b7565b67ffffffffffffffff8111156200071557620007146200022b565b5b620007218254620004ee565b6200072e82828562000657565b5f60209050601f83116001811462000764575f84156200074f578287015190505b6200075b8582620006d1565b865550620007ca565b601f198416620007748662000522565b5f5b828110156200079d5784890151825560018201915060208501945060208101905062000776565b86831015620007bd5784890151620007b9601f891682620006b3565b8355505b6001600288020188555050505b505050505050565b611d9280620007e05f395ff3fe608060405234801561000f575f80fd5b5060043610610135575f3560e01c80638da5cb5b116100b6578063a457c2d71161007a578063a457c2d714610353578063a69adc2c14610383578063a9059cbb146103b3578063dd62ed3e146103e3578063e30c397814610413578063f2fde38b1461043157610135565b80638da5cb5b146102ab5780638f32d59b146102c957806395d89b41146102e7578063966ff65014610305578063982356631461032357610135565b8063313ce567116100fd578063313ce5671461020557806339509351146102235780634e71e0c81461025357806370a082311461025d578063893d20e81461028d57610135565b806306fdde0314610139578063095ea7b31461015757806318160ddd1461018757806323b872dd146101a557806324d7806c146101d5575b5f80fd5b61014161044d565b60405161014e9190611735565b60405180910390f35b610171600480360381019061016c91906117e6565b6104dd565b60405161017e919061183e565b60405180910390f35b61018f610638565b60405161019c9190611866565b60405180910390f35b6101bf60048036038101906101ba919061187f565b610641565b6040516101cc919061183e565b60405180910390f35b6101ef60048036038101906101ea91906118cf565b61083c565b6040516101fc919061183e565b60405180910390f35b61020d610859565b60405161021a9190611915565b60405180910390f35b61023d600480360381019061023891906117e6565b61086e565b60405161024a919061183e565b60405180910390f35b61025b610acb565b005b610277600480360381019061027291906118cf565b610c5a565b6040516102849190611866565b60405180910390f35b610295610ca0565b6040516102a2919061193d565b60405180910390f35b6102b3610cc7565b6040516102c0919061193d565b60405180910390f35b6102d1610cea565b6040516102de919061183e565b60405180910390f35b6102ef610d3e565b6040516102fc9190611735565b60405180910390f35b61030d610dce565b60405161031a9190611866565b60405180910390f35b61033d600480360381019061033891906118cf565b610dd7565b60405161034a919061183e565b60405180910390f35b61036d600480360381019061036891906117e6565b610f09565b60405161037a919061183e565b60405180910390f35b61039d600480360381019061039891906118cf565b611166565b6040516103aa919061183e565b60405180910390f35b6103cd60048036038101906103c891906117e6565b611242565b6040516103da919061183e565b60405180910390f35b6103fd60048036038101906103f89190611956565b611258565b60405161040a9190611866565b60405180910390f35b61041b6112da565b604051610428919061193d565b60405180910390f35b61044b600480360381019061044691906118cf565b6112ff565b005b60606003805461045c906119c1565b80601f0160208091040260200160405190810160405280929190818152602001828054610488906119c1565b80156104d35780601f106104aa576101008083540402835291602001916104d3565b820191905f5260205f20905b8154815290600101906020018083116104b657829003601f168201915b5050505050905090565b5f8073ffffffffffffffffffffffffffffffffffffffff168373ffffffffffffffffffffffffffffffffffffffff160361054c576040517f08c379a000000000000000000000000000000000000000000000000000000000815260040161054390611a3b565b60405180910390fd5b8160075f3373ffffffffffffffffffffffffffffffffffffffff1673ffffffffffffffffffffffffffffffffffffffff1681526020019081526020015f205f8573ffffffffffffffffffffffffffffffffffffffff1673ffffffffffffffffffffffffffffffffffffffff1681526020019081526020015f20819055508273ffffffffffffffffffffffffffffffffffffffff163373ffffffffffffffffffffffffffffffffffffffff167f8c5be1e5ebec7d5bd14f71427d1e84f3dd0314c0f7b2291e5b200ac8c7c3b925846040516106269190611866565b60405180910390a36001905092915050565b5f600854905090565b5f6106cd8260075f8773ffffffffffffffffffffffffffffffffffffffff1673ffffffffffffffffffffffffffffffffffffffff1681526020019081526020015f205f3373ffffffffffffffffffffffffffffffffffffffff1673ffffffffffffffffffffffffffffffffffffffff1681526020019081526020015f205461138990919063ffffffff16565b60075f8673ffffffffffffffffffffffffffffffffffffffff1673ffffffffffffffffffffffffffffffffffffffff1681526020019081526020015f205f3373ffffffffffffffffffffffffffffffffffffffff1673ffffffffffffffffffffffffffffffffffffffff1681526020019081526020015f20819055506107548484846113e6565b3373ffffffffffffffffffffffffffffffffffffffff168473ffffffffffffffffffffffffffffffffffffffff167f8c5be1e5ebec7d5bd14f71427d1e84f3dd0314c0f7b2291e5b200ac8c7c3b92560075f8873ffffffffffffffffffffffffffffffffffffffff1673ffffffffffffffffffffffffffffffffffffffff1681526020019081526020015f205f3373ffffffffffffffffffffffffffffffffffffffff1673ffffffffffffffffffffffffffffffffffffffff1681526020019081526020015f20546040516108299190611866565b60405180910390a3600190509392505050565b6002602052805f5260405f205f915054906101000a900460ff1681565b5f60055f9054906101000a900460ff16905090565b5f8073ffffffffffffffffffffffffffffffffffffffff168373ffffffffffffffffffffffffffffffffffffffff16036108dd576040517f08c379a00000000000000000000000000000000000000000000000000000000081526004016108d490611a3b565b60405180910390fd5b6109688260075f3373ffffffffffffffffffffffffffffffffffffffff1673ffffffffffffffffffffffffffffffffffffffff1681526020019081526020015f205f8673ffffffffffffffffffffffffffffffffffffffff1673ffffffffffffffffffffffffffffffffffffffff1681526020019081526020015f205461164e90919063ffffffff16565b60075f3373ffffffffffffffffffffffffffffffffffffffff1673ffffffffffffffffffffffffffffffffffffffff1681526020019081526020015f205f8573ffffffffffffffffffffffffffffffffffffffff1673ffffffffffffffffffffffffffffffffffffffff1681526020019081526020015f20819055508273ffffffffffffffffffffffffffffffffffffffff163373ffffffffffffffffffffffffffffffffffffffff167f8c5be1e5ebec7d5bd14f71427d1e84f3dd0314c0f7b2291e5b200ac8c7c3b92560075f3373ffffffffffffffffffffffffffffffffffffffff1673ffffffffffffffffffffffffffffffffffffffff1681526020019081526020015f205f8773ffffffffffffffffffffffffffffffffffffffff1673ffffffffffffffffffffffffffffffffffffffff1681526020019081526020015f2054604051610ab99190611866565b60405180910390a36001905092915050565b60015f9054906101000a900473ffffffffffffffffffffffffffffffffffffffff1673ffffffffffffffffffffffffffffffffffffffff163373ffffffffffffffffffffffffffffffffffffffff1614610b5a576040517f08c379a0000000000000000000000000000000000000000000000000000000008152600401610b5190611aa3565b60405180910390fd5b5f805f9054906101000a900473ffffffffffffffffffffffffffffffffffffffff169050335f806101000a81548173ffffffffffffffffffffffffffffffffffffffff021916908373ffffffffffffffffffffffffffffffffffffffff1602179055505f60015f6101000a81548173ffffffffffffffffffffffffffffffffffffffff021916908373ffffffffffffffffffffffffffffffffffffffff1602179055503373ffffffffffffffffffffffffffffffffffffffff168173ffffffffffffffffffffffffffffffffffffffff167f8be0079c531659141344cd1fd0a4f28419497f9722a3daafe3b4186f6b6457e060405160405180910390a350565b5f60065f8373ffffffffffffffffffffffffffffffffffffffff1673ffffffffffffffffffffffffffffffffffffffff1681526020019081526020015f20549050919050565b5f805f9054906101000a900473ffffffffffffffffffffffffffffffffffffffff16905090565b5f8054906101000a900473ffffffffffffffffffffffffffffffffffffffff1681565b5f3373ffffffffffffffffffffffffffffffffffffffff165f8054906101000a900473ffffffffffffffffffffffffffffffffffffffff1673ffffffffffffffffffffffffffffffffffffffff1614905090565b606060048054610d4d906119c1565b80601f0160208091040260200160405190810160405280929190818152602001828054610d79906119c1565b8015610dc45780601f10610d9b57610100808354040283529160200191610dc4565b820191905f5260205f20905b815481529060010190602001808311610da757829003601f168201915b5050505050905090565b5f600954905090565b5f610de0610cea565b610e1f576040517f08c379a0000000000000000000000000000000000000000000000000000000008152600401610e1690611b0b565b60405180910390fd5b5f151560025f8473ffffffffffffffffffffffffffffffffffffffff1673ffffffffffffffffffffffffffffffffffffffff1681526020019081526020015f205f9054906101000a900460ff16151503610ec957600160025f8473ffffffffffffffffffffffffffffffffffffffff1673ffffffffffffffffffffffffffffffffffffffff1681526020019081526020015f205f6101000a81548160ff0219169083151502179055505b7f14a1a2d641f8bd1a49a31f4fd8b2e951f722e0207f936a64b44411340a52a4e682604051610ef8919061193d565b60405180910390a160019050919050565b5f8073ffffffffffffffffffffffffffffffffffffffff168373ffffffffffffffffffffffffffffffffffffffff1603610f78576040517f08c379a0000000000000000000000000000000000000000000000000000000008152600401610f6f90611a3b565b60405180910390fd5b6110038260075f3373ffffffffffffffffffffffffffffffffffffffff1673ffffffffffffffffffffffffffffffffffffffff1681526020019081526020015f205f8673ffffffffffffffffffffffffffffffffffffffff1673ffffffffffffffffffffffffffffffffffffffff1681526020019081526020015f205461138990919063ffffffff16565b60075f3373ffffffffffffffffffffffffffffffffffffffff1673ffffffffffffffffffffffffffffffffffffffff1681526020019081526020015f205f8573ffffffffffffffffffffffffffffffffffffffff1673ffffffffffffffffffffffffffffffffffffffff1681526020019081526020015f20819055508273ffffffffffffffffffffffffffffffffffffffff163373ffffffffffffffffffffffffffffffffffffffff167f8c5be1e5ebec7d5bd14f71427d1e84f3dd0314c0f7b2291e5b200ac8c7c3b92560075f3373ffffffffffffffffffffffffffffffffffffffff1673ffffffffffffffffffffffffffffffffffffffff1681526020019081526020015f205f8773ffffffffffffffffffffffffffffffffffffffff1673ffffffffffffffffffffffffffffffffffffffff1681526020019081526020015f20546040516111549190611866565b60405180910390a36001905092915050565b5f61116f610cea565b6111ae576040517f08c379a00000000000000000000000000000000000000000000000000000000081526004016111a590611b0b565b60405180910390fd5b5f60025f8473ffffffffffffffffffffffffffffffffffffffff1673ffffffffffffffffffffffffffffffffffffffff1681526020019081526020015f205f6101000a81548160ff0219169083151502179055507f8cb585df559166007784fccdddbb80e0efd7c7b40a2d015a911a595825f74b1082604051611231919061193d565b60405180910390a160019050919050565b5f61124e3384846113e6565b6001905092915050565b5f60075f8473ffffffffffffffffffffffffffffffffffffffff1673ffffffffffffffffffffffffffffffffffffffff1681526020019081526020015f205f8373ffffffffffffffffffffffffffffffffffffffff1673ffffffffffffffffffffffffffffffffffffffff1681526020019081526020015f2054905092915050565b60015f9054906101000a900473ffffffffffffffffffffffffffffffffffffffff1681565b611307610cea565b611346576040517f08c379a000000000000000000000000000000000000000000000000000000000815260040161133d90611b0b565b60405180910390fd5b8060015f6101000a81548173ffffffffffffffffffffffffffffffffffffffff021916908373ffffffffffffffffffffffffffffffffffffffff16021790555050565b5f828211156113cd576040517f08c379a00000000000000000000000000000000000000000000000000000000081526004016113c490611b73565b60405180910390fd5b5f82846113da9190611bbe565b90508091505092915050565b5f73ffffffffffffffffffffffffffffffffffffffff168373ffffffffffffffffffffffffffffffffffffffff1603611454576040517f08c379a000000000000000000000000000000000000000000000000000000000815260040161144b90611c3b565b60405180910390fd5b5f73ffffffffffffffffffffffffffffffffffffffff168273ffffffffffffffffffffffffffffffffffffffff16036114c2576040517f08c379a00000000000000000000000000000000000000000000000000000000081526004016114b990611ca3565b60405180910390fd5b6115128160065f8673ffffffffffffffffffffffffffffffffffffffff1673ffffffffffffffffffffffffffffffffffffffff1681526020019081526020015f205461138990919063ffffffff16565b60065f8573ffffffffffffffffffffffffffffffffffffffff1673ffffffffffffffffffffffffffffffffffffffff1681526020019081526020015f20819055506115a38160065f8573ffffffffffffffffffffffffffffffffffffffff1673ffffffffffffffffffffffffffffffffffffffff1681526020019081526020015f205461164e90919063ffffffff16565b60065f8473ffffffffffffffffffffffffffffffffffffffff1673ffffffffffffffffffffffffffffffffffffffff1681526020019081526020015f20819055508173ffffffffffffffffffffffffffffffffffffffff168373ffffffffffffffffffffffffffffffffffffffff167fddf252ad1be2c89b69c2b068fc378daa952ba7f163c4a11628f55a4df523b3ef836040516116419190611866565b60405180910390a3505050565b5f80828461165c9190611cc1565b9050838110156116a1576040517f08c379a000000000000000000000000000000000000000000000000000000000815260040161169890611d3e565b60405180910390fd5b8091505092915050565b5f81519050919050565b5f82825260208201905092915050565b5f5b838110156116e25780820151818401526020810190506116c7565b5f8484015250505050565b5f601f19601f8301169050919050565b5f611707826116ab565b61171181856116b5565b93506117218185602086016116c5565b61172a816116ed565b840191505092915050565b5f6020820190508181035f83015261174d81846116fd565b905092915050565b5f80fd5b5f73ffffffffffffffffffffffffffffffffffffffff82169050919050565b5f61178282611759565b9050919050565b61179281611778565b811461179c575f80fd5b50565b5f813590506117ad81611789565b92915050565b5f819050919050565b6117c5816117b3565b81146117cf575f80fd5b50565b5f813590506117e0816117bc565b92915050565b5f80604083850312156117fc576117fb611755565b5b5f6118098582860161179f565b925050602061181a858286016117d2565b9150509250929050565b5f8115159050919050565b61183881611824565b82525050565b5f6020820190506118515f83018461182f565b92915050565b611860816117b3565b82525050565b5f6020820190506118795f830184611857565b92915050565b5f805f6060848603121561189657611895611755565b5b5f6118a38682870161179f565b93505060206118b48682870161179f565b92505060406118c5868287016117d2565b9150509250925092565b5f602082840312156118e4576118e3611755565b5b5f6118f18482850161179f565b91505092915050565b5f60ff82169050919050565b61190f816118fa565b82525050565b5f6020820190506119285f830184611906565b92915050565b61193781611778565b82525050565b5f6020820190506119505f83018461192e565b92915050565b5f806040838503121561196c5761196b611755565b5b5f6119798582860161179f565b925050602061198a8582860161179f565b9150509250929050565b7f4e487b71000000000000000000000000000000000000000000000000000000005f52602260045260245ffd5b5f60028204905060018216806119d857607f821691505b6020821081036119eb576119ea611994565b5b50919050565b7f7370656e6465722063616e6e6f742062652061646472657373283029000000005f82015250565b5f611a25601c836116b5565b9150611a30826119f1565b602082019050919050565b5f6020820190508181035f830152611a5281611a19565b9050919050565b7f4e6f7420612070656e64696e67206f776e6572000000000000000000000000005f82015250565b5f611a8d6013836116b5565b9150611a9882611a59565b602082019050919050565b5f6020820190508181035f830152611aba81611a81565b9050919050565b7f4e6f74206120636f6e7472616374206f776e65720000000000000000000000005f82015250565b5f611af56014836116b5565b9150611b0082611ac1565b602082019050919050565b5f6020820190508181035f830152611b2281611ae9565b9050919050565b7f5355425f4552524f5200000000000000000000000000000000000000000000005f82015250565b5f611b5d6009836116b5565b9150611b6882611b29565b602082019050919050565b5f6020820190508181035f830152611b8a81611b51565b9050919050565b7f4e487b71000000000000000000000000000000000000000000000000000000005f52601160045260245ffd5b5f611bc8826117b3565b9150611bd3836117b3565b9250828203905081811115611beb57611bea611b91565b5b92915050565b7f66726f6d2063616e6e6f742062652061646472657373283029000000000000005f82015250565b5f611c256019836116b5565b9150611c3082611bf1565b602082019050919050565b5f6020820190508181035f830152611c5281611c19565b9050919050565b7f746f2063616e6e6f7420626520616464726573732830290000000000000000005f82015250565b5f611c8d6017836116b5565b9150611c9882611c59565b602082019050919050565b5f6020820190508181035f830152611cba81611c81565b9050919050565b5f611ccb826117b3565b9150611cd6836117b3565b9250828201905080821115611cee57611ced611b91565b5b92915050565b7f4144445f4552524f5200000000000000000000000000000000000000000000005f82015250565b5f611d286009836116b5565b9150611d3382611cf4565b602082019050919050565b5f6020820190508181035f830152611d5581611d1c565b905091905056fea26469706673582212207cf4642e1d552d2c449cd4bc98482862f0690a3553e28f15a6e17de95903056864736f6c63430008160033",
					"opcodes": "PUSH1 0x80 PUSH1 0x40 MSTORE CALLVALUE DUP1 ISZERO PUSH3 0x10 JUMPI PUSH0 DUP1 REVERT JUMPDEST POP PUSH1 0x40 MLOAD PUSH3 0x2572 CODESIZE SUB DUP1 PUSH3 0x2572 DUP4 CODECOPY DUP2 DUP2 ADD PUSH1 0x40 MSTORE DUP2 ADD SWAP1 PUSH3 0x36 SWAP2 SWAP1 PUSH3 0x3C2 JUMP JUMPDEST CALLER PUSH0 DUP1 PUSH2 0x100 EXP DUP2 SLOAD DUP2 PUSH20 0xFFFFFFFFFFFFFFFFFFFFFFFFFFFFFFFFFFFFFFFF MUL NOT AND SWAP1 DUP4 PUSH20 0xFFFFFFFFFFFFFFFFFFFFFFFFFFFFFFFFFFFFFFFF AND MUL OR SWAP1 SSTORE POP PUSH0 DUP1 SLOAD SWAP1 PUSH2 0x100 EXP SWAP1 DIV PUSH20 0xFFFFFFFFFFFFFFFFFFFFFFFFFFFFFFFFFFFFFFFF AND PUSH20 0xFFFFFFFFFFFFFFFFFFFFFFFFFFFFFFFFFFFFFFFF AND PUSH0 PUSH20 0xFFFFFFFFFFFFFFFFFFFFFFFFFFFFFFFFFFFFFFFF AND PUSH32 0x8BE0079C531659141344CD1FD0A4F28419497F9722A3DAAFE3B4186F6B6457E0 PUSH1 0x40 MLOAD PUSH1 0x40 MLOAD DUP1 SWAP2 SUB SWAP1 LOG3 PUSH1 0x1 PUSH1 0x2 PUSH0 DUP1 PUSH0 SWAP1 SLOAD SWAP1 PUSH2 0x100 EXP SWAP1 DIV PUSH20 0xFFFFFFFFFFFFFFFFFFFFFFFFFFFFFFFFFFFFFFFF AND PUSH20 0xFFFFFFFFFFFFFFFFFFFFFFFFFFFFFFFFFFFFFFFF AND PUSH20 0xFFFFFFFFFFFFFFFFFFFFFFFFFFFFFFFFFFFFFFFF AND DUP2 MSTORE PUSH1 0x20 ADD SWAP1 DUP2 MSTORE PUSH1 0x20 ADD PUSH0 KECCAK256 PUSH0 PUSH2 0x100 EXP DUP2 SLOAD DUP2 PUSH1 0xFF MUL NOT AND SWAP1 DUP4 ISZERO ISZERO MUL OR SWAP1 SSTORE POP PUSH32 0x14A1A2D641F8BD1A49A31F4FD8B2E951F722E0207F936A64B44411340A52A4E6 PUSH0 DUP1 SLOAD SWAP1 PUSH2 0x100 EXP SWAP1 DIV PUSH20 0xFFFFFFFFFFFFFFFFFFFFFFFFFFFFFFFFFFFFFFFF AND PUSH1 0x40 MLOAD PUSH3 0x1B3 SWAP2 SWAP1 PUSH3 0x49C JUMP JUMPDEST PUSH1 0x40 MLOAD DUP1 SWAP2 SUB SWAP1 LOG1 DUP3 PUSH1 0x3 SWAP1 DUP2 PUSH3 0x1CC SWAP2 SWAP1 PUSH3 0x6EE JUMP JUMPDEST POP DUP2 PUSH1 0x4 SWAP1 DUP2 PUSH3 0x1DE SWAP2 SWAP1 PUSH3 0x6EE JUMP JUMPDEST POP DUP1 PUSH1 0x5 PUSH0 PUSH2 0x100 EXP DUP2 SLOAD DUP2 PUSH1 0xFF MUL NOT AND SWAP1 DUP4 PUSH1 0xFF AND MUL OR SWAP1 SSTORE POP POP POP POP PUSH3 0x7D2 JUMP JUMPDEST PUSH0 PUSH1 0x40 MLOAD SWAP1 POP SWAP1 JUMP JUMPDEST PUSH0 DUP1 REVERT JUMPDEST PUSH0 DUP1 REVERT JUMPDEST PUSH0 DUP1 REVERT JUMPDEST PUSH0 DUP1 REVERT JUMPDEST PUSH0 PUSH1 0x1F NOT PUSH1 0x1F DUP4 ADD AND SWAP1 POP SWAP2 SWAP1 POP JUMP JUMPDEST PUSH32 0x4E487B7100000000000000000000000000000000000000000000000000000000 PUSH0 MSTORE PUSH1 0x41 PUSH1 0x4 MSTORE PUSH1 0x24 PUSH0 REVERT JUMPDEST PUSH3 0x263 DUP3 PUSH3 0x21B JUMP JUMPDEST DUP2 ADD DUP2 DUP2 LT PUSH8 0xFFFFFFFFFFFFFFFF DUP3 GT OR ISZERO PUSH3 0x285 JUMPI PUSH3 0x284 PUSH3 0x22B JUMP JUMPDEST JUMPDEST DUP1 PUSH1 0x40 MSTORE POP POP POP JUMP JUMPDEST PUSH0 PUSH3 0x299 PUSH3 0x202 JUMP JUMPDEST SWAP1 POP PUSH3 0x2A7 DUP3 DUP3 PUSH3 0x258 JUMP JUMPDEST SWAP2 SWAP1 POP JUMP JUMPDEST PUSH0 PUSH8 0xFFFFFFFFFFFFFFFF DUP3 GT ISZERO PUSH3 0x2C9 JUMPI PUSH3 0x2C8 PUSH3 0x22B JUMP JUMPDEST JUMPDEST PUSH3 0x2D4 DUP3 PUSH3 0x21B JUMP JUMPDEST SWAP1 POP PUSH1 0x20 DUP2 ADD SWAP1 POP SWAP2 SWAP1 POP JUMP JUMPDEST PUSH0 JUMPDEST DUP4 DUP2 LT ISZERO PUSH3 0x300 JUMPI DUP1 DUP3 ADD MLOAD DUP2 DUP5 ADD MSTORE PUSH1 0x20 DUP2 ADD SWAP1 POP PUSH3 0x2E3 JUMP JUMPDEST PUSH0 DUP5 DUP5 ADD MSTORE POP POP POP POP JUMP JUMPDEST PUSH0 PUSH3 0x321 PUSH3 0x31B DUP5 PUSH3 0x2AC JUMP JUMPDEST PUSH3 0x28E JUMP JUMPDEST SWAP1 POP DUP3 DUP2 MSTORE PUSH1 0x20 DUP2 ADD DUP5 DUP5 DUP5 ADD GT ISZERO PUSH3 0x340 JUMPI PUSH3 0x33F PUSH3 0x217 JUMP JUMPDEST JUMPDEST PUSH3 0x34D DUP5 DUP3 DUP6 PUSH3 0x2E1 JUMP JUMPDEST POP SWAP4 SWAP3 POP POP POP JUMP JUMPDEST PUSH0 DUP3 PUSH1 0x1F DUP4 ADD SLT PUSH3 0x36C JUMPI PUSH3 0x36B PUSH3 0x213 JUMP JUMPDEST JUMPDEST DUP2 MLOAD PUSH3 0x37E DUP5 DUP3 PUSH1 0x20 DUP7 ADD PUSH3 0x30B JUMP JUMPDEST SWAP2 POP POP SWAP3 SWAP2 POP POP JUMP JUMPDEST PUSH0 PUSH1 0xFF DUP3 AND SWAP1 POP SWAP2 SWAP1 POP JUMP JUMPDEST PUSH3 0x39E DUP2 PUSH3 0x387 JUMP JUMPDEST DUP2 EQ PUSH3 0x3A9 JUMPI PUSH0 DUP1 REVERT JUMPDEST POP JUMP JUMPDEST PUSH0 DUP2 MLOAD SWAP1 POP PUSH3 0x3BC DUP2 PUSH3 0x393 JUMP JUMPDEST SWAP3 SWAP2 POP POP JUMP JUMPDEST PUSH0 DUP1 PUSH0 PUSH1 0x60 DUP5 DUP7 SUB SLT ISZERO PUSH3 0x3DC JUMPI PUSH3 0x3DB PUSH3 0x20B JUMP JUMPDEST JUMPDEST PUSH0 DUP5 ADD MLOAD PUSH8 0xFFFFFFFFFFFFFFFF DUP2 GT ISZERO PUSH3 0x3FC JUMPI PUSH3 0x3FB PUSH3 0x20F JUMP JUMPDEST JUMPDEST PUSH3 0x40A DUP7 DUP3 DUP8 ADD PUSH3 0x355 JUMP JUMPDEST SWAP4 POP POP PUSH1 0x20 DUP5 ADD MLOAD PUSH8 0xFFFFFFFFFFFFFFFF DUP2 GT ISZERO PUSH3 0x42E JUMPI PUSH3 0x42D PUSH3 0x20F JUMP JUMPDEST JUMPDEST PUSH3 0x43C DUP7 DUP3 DUP8 ADD PUSH3 0x355 JUMP JUMPDEST SWAP3 POP POP PUSH1 0x40 PUSH3 0x44F DUP7 DUP3 DUP8 ADD PUSH3 0x3AC JUMP JUMPDEST SWAP2 POP POP SWAP3 POP SWAP3 POP SWAP3 JUMP JUMPDEST PUSH0 PUSH20 0xFFFFFFFFFFFFFFFFFFFFFFFFFFFFFFFFFFFFFFFF DUP3 AND SWAP1 POP SWAP2 SWAP1 POP JUMP JUMPDEST PUSH0 PUSH3 0x484 DUP3 PUSH3 0x459 JUMP JUMPDEST SWAP1 POP SWAP2 SWAP1 POP JUMP JUMPDEST PUSH3 0x496 DUP2 PUSH3 0x478 JUMP JUMPDEST DUP3 MSTORE POP POP JUMP JUMPDEST PUSH0 PUSH1 0x20 DUP3 ADD SWAP1 POP PUSH3 0x4B1 PUSH0 DUP4 ADD DUP5 PUSH3 0x48B JUMP JUMPDEST SWAP3 SWAP2 POP POP JUMP JUMPDEST PUSH0 DUP2 MLOAD SWAP1 POP SWAP2 SWAP1 POP JUMP JUMPDEST PUSH32 0x4E487B7100000000000000000000000000000000000000000000000000000000 PUSH0 MSTORE PUSH1 0x22 PUSH1 0x4 MSTORE PUSH1 0x24 PUSH0 REVERT JUMPDEST PUSH0 PUSH1 0x2 DUP3 DIV SWAP1 POP PUSH1 0x1 DUP3 AND DUP1 PUSH3 0x506 JUMPI PUSH1 0x7F DUP3 AND SWAP2 POP JUMPDEST PUSH1 0x20 DUP3 LT DUP2 SUB PUSH3 0x51C JUMPI PUSH3 0x51B PUSH3 0x4C1 JUMP JUMPDEST JUMPDEST POP SWAP2 SWAP1 POP JUMP JUMPDEST PUSH0 DUP2 SWAP1 POP DUP2 PUSH0 MSTORE PUSH1 0x20 PUSH0 KECCAK256 SWAP1 POP SWAP2 SWAP1 POP JUMP JUMPDEST PUSH0 PUSH1 0x20 PUSH1 0x1F DUP4 ADD DIV SWAP1 POP SWAP2 SWAP1 POP JUMP JUMPDEST PUSH0 DUP3 DUP3 SHL SWAP1 POP SWAP3 SWAP2 POP POP JUMP JUMPDEST PUSH0 PUSH1 0x8 DUP4 MUL PUSH3 0x580 PUSH32 0xFFFFFFFFFFFFFFFFFFFFFFFFFFFFFFFFFFFFFFFFFFFFFFFFFFFFFFFFFFFFFFFF DUP3 PUSH3 0x543 JUMP JUMPDEST PUSH3 0x58C DUP7 DUP4 PUSH3 0x543 JUMP JUMPDEST SWAP6 POP DUP1 NOT DUP5 AND SWAP4 POP DUP1 DUP7 AND DUP5 OR SWAP3 POP POP POP SWAP4 SWAP3 POP POP POP JUMP JUMPDEST PUSH0 DUP2 SWAP1 POP SWAP2 SWAP1 POP JUMP JUMPDEST PUSH0 DUP2 SWAP1 POP SWAP2 SWAP1 POP JUMP JUMPDEST PUSH0 PUSH3 0x5D6 PUSH3 0x5D0 PUSH3 0x5CA DUP5 PUSH3 0x5A4 JUMP JUMPDEST PUSH3 0x5AD JUMP JUMPDEST PUSH3 0x5A4 JUMP JUMPDEST SWAP1 POP SWAP2 SWAP1 POP JUMP JUMPDEST PUSH0 DUP2 SWAP1 POP SWAP2 SWAP1 POP JUMP JUMPDEST PUSH3 0x5F1 DUP4 PUSH3 0x5B6 JUMP JUMPDEST PUSH3 0x609 PUSH3 0x600 DUP3 PUSH3 0x5DD JUMP JUMPDEST DUP5 DUP5 SLOAD PUSH3 0x54F JUMP JUMPDEST DUP3 SSTORE POP POP POP POP JUMP JUMPDEST PUSH0 SWAP1 JUMP JUMPDEST PUSH3 0x61F PUSH3 0x611 JUMP JUMPDEST PUSH3 0x62C DUP2 DUP5 DUP5 PUSH3 0x5E6 JUMP JUMPDEST POP POP POP JUMP JUMPDEST JUMPDEST DUP2 DUP2 LT ISZERO PUSH3 0x653 JUMPI PUSH3 0x647 PUSH0 DUP3 PUSH3 0x615 JUMP JUMPDEST PUSH1 0x1 DUP2 ADD SWAP1 POP PUSH3 0x632 JUMP JUMPDEST POP POP JUMP JUMPDEST PUSH1 0x1F DUP3 GT ISZERO PUSH3 0x6A2 JUMPI PUSH3 0x66C DUP2 PUSH3 0x522 JUMP JUMPDEST PUSH3 0x677 DUP5 PUSH3 0x534 JUMP JUMPDEST DUP2 ADD PUSH1 0x20 DUP6 LT ISZERO PUSH3 0x687 JUMPI DUP2 SWAP1 POP JUMPDEST PUSH3 0x69F PUSH3 0x696 DUP6 PUSH3 0x534 JUMP JUMPDEST DUP4 ADD DUP3 PUSH3 0x631 JUMP JUMPDEST POP POP JUMPDEST POP POP POP JUMP JUMPDEST PUSH0 DUP3 DUP3 SHR SWAP1 POP SWAP3 SWAP2 POP POP JUMP JUMPDEST PUSH0 PUSH3 0x6C4 PUSH0 NOT DUP5 PUSH1 0x8 MUL PUSH3 0x6A7 JUMP JUMPDEST NOT DUP1 DUP4 AND SWAP2 POP POP SWAP3 SWAP2 POP POP JUMP JUMPDEST PUSH0 PUSH3 0x6DE DUP4 DUP4 PUSH3 0x6B3 JUMP JUMPDEST SWAP2 POP DUP3 PUSH1 0x2 MUL DUP3 OR SWAP1 POP SWAP3 SWAP2 POP POP JUMP JUMPDEST PUSH3 0x6F9 DUP3 PUSH3 0x4B7 JUMP JUMPDEST PUSH8 0xFFFFFFFFFFFFFFFF DUP2 GT ISZERO PUSH3 0x715 JUMPI PUSH3 0x714 PUSH3 0x22B JUMP JUMPDEST JUMPDEST PUSH3 0x721 DUP3 SLOAD PUSH3 0x4EE JUMP JUMPDEST PUSH3 0x72E DUP3 DUP3 DUP6 PUSH3 0x657 JUMP JUMPDEST PUSH0 PUSH1 0x20 SWAP1 POP PUSH1 0x1F DUP4 GT PUSH1 0x1 DUP2 EQ PUSH3 0x764 JUMPI PUSH0 DUP5 ISZERO PUSH3 0x74F JUMPI DUP3 DUP8 ADD MLOAD SWAP1 POP JUMPDEST PUSH3 0x75B DUP6 DUP3 PUSH3 0x6D1 JUMP JUMPDEST DUP7 SSTORE POP PUSH3 0x7CA JUMP JUMPDEST PUSH1 0x1F NOT DUP5 AND PUSH3 0x774 DUP7 PUSH3 0x522 JUMP JUMPDEST PUSH0 JUMPDEST DUP3 DUP2 LT ISZERO PUSH3 0x79D JUMPI DUP5 DUP10 ADD MLOAD DUP3 SSTORE PUSH1 0x1 DUP3 ADD SWAP2 POP PUSH1 0x20 DUP6 ADD SWAP5 POP PUSH1 0x20 DUP2 ADD SWAP1 POP PUSH3 0x776 JUMP JUMPDEST DUP7 DUP4 LT ISZERO PUSH3 0x7BD JUMPI DUP5 DUP10 ADD MLOAD PUSH3 0x7B9 PUSH1 0x1F DUP10 AND DUP3 PUSH3 0x6B3 JUMP JUMPDEST DUP4 SSTORE POP JUMPDEST PUSH1 0x1 PUSH1 0x2 DUP9 MUL ADD DUP9 SSTORE POP POP POP JUMPDEST POP POP POP POP POP POP JUMP JUMPDEST PUSH2 0x1D92 DUP1 PUSH3 0x7E0 PUSH0 CODECOPY PUSH0 RETURN INVALID PUSH1 0x80 PUSH1 0x40 MSTORE CALLVALUE DUP1 ISZERO PUSH2 0xF JUMPI PUSH0 DUP1 REVERT JUMPDEST POP PUSH1 0x4 CALLDATASIZE LT PUSH2 0x135 JUMPI PUSH0 CALLDATALOAD PUSH1 0xE0 SHR DUP1 PUSH4 0x8DA5CB5B GT PUSH2 0xB6 JUMPI DUP1 PUSH4 0xA457C2D7 GT PUSH2 0x7A JUMPI DUP1 PUSH4 0xA457C2D7 EQ PUSH2 0x353 JUMPI DUP1 PUSH4 0xA69ADC2C EQ PUSH2 0x383 JUMPI DUP1 PUSH4 0xA9059CBB EQ PUSH2 0x3B3 JUMPI DUP1 PUSH4 0xDD62ED3E EQ PUSH2 0x3E3 JUMPI DUP1 PUSH4 0xE30C3978 EQ PUSH2 0x413 JUMPI DUP1 PUSH4 0xF2FDE38B EQ PUSH2 0x431 JUMPI PUSH2 0x135 JUMP JUMPDEST DUP1 PUSH4 0x8DA5CB5B EQ PUSH2 0x2AB JUMPI DUP1 PUSH4 0x8F32D59B EQ PUSH2 0x2C9 JUMPI DUP1 PUSH4 0x95D89B41 EQ PUSH2 0x2E7 JUMPI DUP1 PUSH4 0x966FF650 EQ PUSH2 0x305 JUMPI DUP1 PUSH4 0x98235663 EQ PUSH2 0x323 JUMPI PUSH2 0x135 JUMP JUMPDEST DUP1 PUSH4 0x313CE567 GT PUSH2 0xFD JUMPI DUP1 PUSH4 0x313CE567 EQ PUSH2 0x205 JUMPI DUP1 PUSH4 0x39509351 EQ PUSH2 0x223 JUMPI DUP1 PUSH4 0x4E71E0C8 EQ PUSH2 0x253 JUMPI DUP1 PUSH4 0x70A08231 EQ PUSH2 0x25D JUMPI DUP1 PUSH4 0x893D20E8 EQ PUSH2 0x28D JUMPI PUSH2 0x135 JUMP JUMPDEST DUP1 PUSH4 0x6FDDE03 EQ PUSH2 0x139 JUMPI DUP1 PUSH4 0x95EA7B3 EQ PUSH2 0x157 JUMPI DUP1 PUSH4 0x18160DDD EQ PUSH2 0x187 JUMPI DUP1 PUSH4 0x23B872DD EQ PUSH2 0x1A5 JUMPI DUP1 PUSH4 0x24D7806C EQ PUSH2 0x1D5 JUMPI JUMPDEST PUSH0 DUP1 REVERT JUMPDEST PUSH2 0x141 PUSH2 0x44D JUMP JUMPDEST PUSH1 0x40 MLOAD PUSH2 0x14E SWAP2 SWAP1 PUSH2 0x1735 JUMP JUMPDEST PUSH1 0x40 MLOAD DUP1 SWAP2 SUB SWAP1 RETURN JUMPDEST PUSH2 0x171 PUSH1 0x4 DUP1 CALLDATASIZE SUB DUP2 ADD SWAP1 PUSH2 0x16C SWAP2 SWAP1 PUSH2 0x17E6 JUMP JUMPDEST PUSH2 0x4DD JUMP JUMPDEST PUSH1 0x40 MLOAD PUSH2 0x17E SWAP2 SWAP1 PUSH2 0x183E JUMP JUMPDEST PUSH1 0x40 MLOAD DUP1 SWAP2 SUB SWAP1 RETURN JUMPDEST PUSH2 0x18F PUSH2 0x638 JUMP JUMPDEST PUSH1 0x40 MLOAD PUSH2 0x19C SWAP2 SWAP1 PUSH2 0x1866 JUMP JUMPDEST PUSH1 0x40 MLOAD DUP1 SWAP2 SUB SWAP1 RETURN JUMPDEST PUSH2 0x1BF PUSH1 0x4 DUP1 CALLDATASIZE SUB DUP2 ADD SWAP1 PUSH2 0x1BA SWAP2 SWAP1 PUSH2 0x187F JUMP JUMPDEST PUSH2 0x641 JUMP JUMPDEST PUSH1 0x40 MLOAD PUSH2 0x1CC SWAP2 SWAP1 PUSH2 0x183E JUMP JUMPDEST PUSH1 0x40 MLOAD DUP1 SWAP2 SUB SWAP1 RETURN JUMPDEST PUSH2 0x1EF PUSH1 0x4 DUP1 CALLDATASIZE SUB DUP2 ADD SWAP1 PUSH2 0x1EA SWAP2 SWAP1 PUSH2 0x18CF JUMP JUMPDEST PUSH2 0x83C JUMP JUMPDEST PUSH1 0x40 MLOAD PUSH2 0x1FC SWAP2 SWAP1 PUSH2 0x183E JUMP JUMPDEST PUSH1 0x40 MLOAD DUP1 SWAP2 SUB SWAP1 RETURN JUMPDEST PUSH2 0x20D PUSH2 0x859 JUMP JUMPDEST PUSH1 0x40 MLOAD PUSH2 0x21A SWAP2 SWAP1 PUSH2 0x1915 JUMP JUMPDEST PUSH1 0x40 MLOAD DUP1 SWAP2 SUB SWAP1 RETURN JUMPDEST PUSH2 0x23D PUSH1 0x4 DUP1 CALLDATASIZE SUB DUP2 ADD SWAP1 PUSH2 0x238 SWAP2 SWAP1 PUSH2 0x17E6 JUMP JUMPDEST PUSH2 0x86E JUMP JUMPDEST PUSH1 0x40 MLOAD PUSH2 0x24A SWAP2 SWAP1 PUSH2 0x183E JUMP JUMPDEST PUSH1 0x40 MLOAD DUP1 SWAP2 SUB SWAP1 RETURN JUMPDEST PUSH2 0x25B PUSH2 0xACB JUMP JUMPDEST STOP JUMPDEST PUSH2 0x277 PUSH1 0x4 DUP1 CALLDATASIZE SUB DUP2 ADD SWAP1 PUSH2 0x272 SWAP2 SWAP1 PUSH2 0x18CF JUMP JUMPDEST PUSH2 0xC5A JUMP JUMPDEST PUSH1 0x40 MLOAD PUSH2 0x284 SWAP2 SWAP1 PUSH2 0x1866 JUMP JUMPDEST PUSH1 0x40 MLOAD DUP1 SWAP2 SUB SWAP1 RETURN JUMPDEST PUSH2 0x295 PUSH2 0xCA0 JUMP JUMPDEST PUSH1 0x40 MLOAD PUSH2 0x2A2 SWAP2 SWAP1 PUSH2 0x193D JUMP JUMPDEST PUSH1 0x40 MLOAD DUP1 SWAP2 SUB SWAP1 RETURN JUMPDEST PUSH2 0x2B3 PUSH2 0xCC7 JUMP JUMPDEST PUSH1 0x40 MLOAD PUSH2 0x2C0 SWAP2 SWAP1 PUSH2 0x193D JUMP JUMPDEST PUSH1 0x40 MLOAD DUP1 SWAP2 SUB SWAP1 RETURN JUMPDEST PUSH2 0x2D1 PUSH2 0xCEA JUMP JUMPDEST PUSH1 0x40 MLOAD PUSH2 0x2DE SWAP2 SWAP1 PUSH2 0x183E JUMP JUMPDEST PUSH1 0x40 MLOAD DUP1 SWAP2 SUB SWAP1 RETURN JUMPDEST PUSH2 0x2EF PUSH2 0xD3E JUMP JUMPDEST PUSH1 0x40 MLOAD PUSH2 0x2FC SWAP2 SWAP1 PUSH2 0x1735 JUMP JUMPDEST PUSH1 0x40 MLOAD DUP1 SWAP2 SUB SWAP1 RETURN JUMPDEST PUSH2 0x30D PUSH2 0xDCE JUMP JUMPDEST PUSH1 0x40 MLOAD PUSH2 0x31A SWAP2 SWAP1 PUSH2 0x1866 JUMP JUMPDEST PUSH1 0x40 MLOAD DUP1 SWAP2 SUB SWAP1 RETURN JUMPDEST PUSH2 0x33D PUSH1 0x4 DUP1 CALLDATASIZE SUB DUP2 ADD SWAP1 PUSH2 0x338 SWAP2 SWAP1 PUSH2 0x18CF JUMP JUMPDEST PUSH2 0xDD7 JUMP JUMPDEST PUSH1 0x40 MLOAD PUSH2 0x34A SWAP2 SWAP1 PUSH2 0x183E JUMP JUMPDEST PUSH1 0x40 MLOAD DUP1 SWAP2 SUB SWAP1 RETURN JUMPDEST PUSH2 0x36D PUSH1 0x4 DUP1 CALLDATASIZE SUB DUP2 ADD SWAP1 PUSH2 0x368 SWAP2 SWAP1 PUSH2 0x17E6 JUMP JUMPDEST PUSH2 0xF09 JUMP JUMPDEST PUSH1 0x40 MLOAD PUSH2 0x37A SWAP2 SWAP1 PUSH2 0x183E JUMP JUMPDEST PUSH1 0x40 MLOAD DUP1 SWAP2 SUB SWAP1 RETURN JUMPDEST PUSH2 0x39D PUSH1 0x4 DUP1 CALLDATASIZE SUB DUP2 ADD SWAP1 PUSH2 0x398 SWAP2 SWAP1 PUSH2 0x18CF JUMP JUMPDEST PUSH2 0x1166 JUMP JUMPDEST PUSH1 0x40 MLOAD PUSH2 0x3AA SWAP2 SWAP1 PUSH2 0x183E JUMP JUMPDEST PUSH1 0x40 MLOAD DUP1 SWAP2 SUB SWAP1 RETURN JUMPDEST PUSH2 0x3CD PUSH1 0x4 DUP1 CALLDATASIZE SUB DUP2 ADD SWAP1 PUSH2 0x3C8 SWAP2 SWAP1 PUSH2 0x17E6 JUMP JUMPDEST PUSH2 0x1242 JUMP JUMPDEST PUSH1 0x40 MLOAD PUSH2 0x3DA SWAP2 SWAP1 PUSH2 0x183E JUMP JUMPDEST PUSH1 0x40 MLOAD DUP1 SWAP2 SUB SWAP1 RETURN JUMPDEST PUSH2 0x3FD PUSH1 0x4 DUP1 CALLDATASIZE SUB DUP2 ADD SWAP1 PUSH2 0x3F8 SWAP2 SWAP1 PUSH2 0x1956 JUMP JUMPDEST PUSH2 0x1258 JUMP JUMPDEST PUSH1 0x40 MLOAD PUSH2 0x40A SWAP2 SWAP1 PUSH2 0x1866 JUMP JUMPDEST PUSH1 0x40 MLOAD DUP1 SWAP2 SUB SWAP1 RETURN JUMPDEST PUSH2 0x41B PUSH2 0x12DA JUMP JUMPDEST PUSH1 0x40 MLOAD PUSH2 0x428 SWAP2 SWAP1 PUSH2 0x193D JUMP JUMPDEST PUSH1 0x40 MLOAD DUP1 SWAP2 SUB SWAP1 RETURN JUMPDEST PUSH2 0x44B PUSH1 0x4 DUP1 CALLDATASIZE SUB DUP2 ADD SWAP1 PUSH2 0x446 SWAP2 SWAP1 PUSH2 0x18CF JUMP JUMPDEST PUSH2 0x12FF JUMP JUMPDEST STOP JUMPDEST PUSH1 0x60 PUSH1 0x3 DUP1 SLOAD PUSH2 0x45C SWAP1 PUSH2 0x19C1 JUMP JUMPDEST DUP1 PUSH1 0x1F ADD PUSH1 0x20 DUP1 SWAP2 DIV MUL PUSH1 0x20 ADD PUSH1 0x40 MLOAD SWAP1 DUP2 ADD PUSH1 0x40 MSTORE DUP1 SWAP3 SWAP2 SWAP1 DUP2 DUP2 MSTORE PUSH1 0x20 ADD DUP3 DUP1 SLOAD PUSH2 0x488 SWAP1 PUSH2 0x19C1 JUMP JUMPDEST DUP1 ISZERO PUSH2 0x4D3 JUMPI DUP1 PUSH1 0x1F LT PUSH2 0x4AA JUMPI PUSH2 0x100 DUP1 DUP4 SLOAD DIV MUL DUP4 MSTORE SWAP2 PUSH1 0x20 ADD SWAP2 PUSH2 0x4D3 JUMP JUMPDEST DUP3 ADD SWAP2 SWAP1 PUSH0 MSTORE PUSH1 0x20 PUSH0 KECCAK256 SWAP1 JUMPDEST DUP2 SLOAD DUP2 MSTORE SWAP1 PUSH1 0x1 ADD SWAP1 PUSH1 0x20 ADD DUP1 DUP4 GT PUSH2 0x4B6 JUMPI DUP3 SWAP1 SUB PUSH1 0x1F AND DUP3 ADD SWAP2 JUMPDEST POP POP POP POP POP SWAP1 POP SWAP1 JUMP JUMPDEST PUSH0 DUP1 PUSH20 0xFFFFFFFFFFFFFFFFFFFFFFFFFFFFFFFFFFFFFFFF AND DUP4 PUSH20 0xFFFFFFFFFFFFFFFFFFFFFFFFFFFFFFFFFFFFFFFF AND SUB PUSH2 0x54C JUMPI PUSH1 0x40 MLOAD PUSH32 0x8C379A000000000000000000000000000000000000000000000000000000000 DUP2 MSTORE PUSH1 0x4 ADD PUSH2 0x543 SWAP1 PUSH2 0x1A3B JUMP JUMPDEST PUSH1 0x40 MLOAD DUP1 SWAP2 SUB SWAP1 REVERT JUMPDEST DUP2 PUSH1 0x7 PUSH0 CALLER PUSH20 0xFFFFFFFFFFFFFFFFFFFFFFFFFFFFFFFFFFFFFFFF AND PUSH20 0xFFFFFFFFFFFFFFFFFFFFFFFFFFFFFFFFFFFFFFFF AND DUP2 MSTORE PUSH1 0x20 ADD SWAP1 DUP2 MSTORE PUSH1 0x20 ADD PUSH0 KECCAK256 PUSH0 DUP6 PUSH20 0xFFFFFFFFFFFFFFFFFFFFFFFFFFFFFFFFFFFFFFFF AND PUSH20 0xFFFFFFFFFFFFFFFFFFFFFFFFFFFFFFFFFFFFFFFF AND DUP2 MSTORE PUSH1 0x20 ADD SWAP1 DUP2 MSTORE PUSH1 0x20 ADD PUSH0 KECCAK256 DUP2 SWAP1 SSTORE POP DUP3 PUSH20 0xFFFFFFFFFFFFFFFFFFFFFFFFFFFFFFFFFFFFFFFF AND CALLER PUSH20 0xFFFFFFFFFFFFFFFFFFFFFFFFFFFFFFFFFFFFFFFF AND PUSH32 0x8C5BE1E5EBEC7D5BD14F71427D1E84F3DD0314C0F7B2291E5B200AC8C7C3B925 DUP5 PUSH1 0x40 MLOAD PUSH2 0x626 SWAP2 SWAP1 PUSH2 0x1866 JUMP JUMPDEST PUSH1 0x40 MLOAD DUP1 SWAP2 SUB SWAP1 LOG3 PUSH1 0x1 SWAP1 POP SWAP3 SWAP2 POP POP JUMP JUMPDEST PUSH0 PUSH1 0x8 SLOAD SWAP1 POP SWAP1 JUMP JUMPDEST PUSH0 PUSH2 0x6CD DUP3 PUSH1 0x7 PUSH0 DUP8 PUSH20 0xFFFFFFFFFFFFFFFFFFFFFFFFFFFFFFFFFFFFFFFF AND PUSH20 0xFFFFFFFFFFFFFFFFFFFFFFFFFFFFFFFFFFFFFFFF AND DUP2 MSTORE PUSH1 0x20 ADD SWAP1 DUP2 MSTORE PUSH1 0x20 ADD PUSH0 KECCAK256 PUSH0 CALLER PUSH20 0xFFFFFFFFFFFFFFFFFFFFFFFFFFFFFFFFFFFFFFFF AND PUSH20 0xFFFFFFFFFFFFFFFFFFFFFFFFFFFFFFFFFFFFFFFF AND DUP2 MSTORE PUSH1 0x20 ADD SWAP1 DUP2 MSTORE PUSH1 0x20 ADD PUSH0 KECCAK256 SLOAD PUSH2 0x1389 SWAP1 SWAP2 SWAP1 PUSH4 0xFFFFFFFF AND JUMP JUMPDEST PUSH1 0x7 PUSH0 DUP7 PUSH20 0xFFFFFFFFFFFFFFFFFFFFFFFFFFFFFFFFFFFFFFFF AND PUSH20 0xFFFFFFFFFFFFFFFFFFFFFFFFFFFFFFFFFFFFFFFF AND DUP2 MSTORE PUSH1 0x20 ADD SWAP1 DUP2 MSTORE PUSH1 0x20 ADD PUSH0 KECCAK256 PUSH0 CALLER PUSH20 0xFFFFFFFFFFFFFFFFFFFFFFFFFFFFFFFFFFFFFFFF AND PUSH20 0xFFFFFFFFFFFFFFFFFFFFFFFFFFFFFFFFFFFFFFFF AND DUP2 MSTORE PUSH1 0x20 ADD SWAP1 DUP2 MSTORE PUSH1 0x20 ADD PUSH0 KECCAK256 DUP2 SWAP1 SSTORE POP PUSH2 0x754 DUP5 DUP5 DUP5 PUSH2 0x13E6 JUMP JUMPDEST CALLER PUSH20 0xFFFFFFFFFFFFFFFFFFFFFFFFFFFFFFFFFFFFFFFF AND DUP5 PUSH20 0xFFFFFFFFFFFFFFFFFFFFFFFFFFFFFFFFFFFFFFFF AND PUSH32 0x8C5BE1E5EBEC7D5BD14F71427D1E84F3DD0314C0F7B2291E5B200AC8C7C3B925 PUSH1 0x7 PUSH0 DUP9 PUSH20 0xFFFFFFFFFFFFFFFFFFFFFFFFFFFFFFFFFFFFFFFF AND PUSH20 0xFFFFFFFFFFFFFFFFFFFFFFFFFFFFFFFFFFFFFFFF AND DUP2 MSTORE PUSH1 0x20 ADD SWAP1 DUP2 MSTORE PUSH1 0x20 ADD PUSH0 KECCAK256 PUSH0 CALLER PUSH20 0xFFFFFFFFFFFFFFFFFFFFFFFFFFFFFFFFFFFFFFFF AND PUSH20 0xFFFFFFFFFFFFFFFFFFFFFFFFFFFFFFFFFFFFFFFF AND DUP2 MSTORE PUSH1 0x20 ADD SWAP1 DUP2 MSTORE PUSH1 0x20 ADD PUSH0 KECCAK256 SLOAD PUSH1 0x40 MLOAD PUSH2 0x829 SWAP2 SWAP1 PUSH2 0x1866 JUMP JUMPDEST PUSH1 0x40 MLOAD DUP1 SWAP2 SUB SWAP1 LOG3 PUSH1 0x1 SWAP1 POP SWAP4 SWAP3 POP POP POP JUMP JUMPDEST PUSH1 0x2 PUSH1 0x20 MSTORE DUP1 PUSH0 MSTORE PUSH1 0x40 PUSH0 KECCAK256 PUSH0 SWAP2 POP SLOAD SWAP1 PUSH2 0x100 EXP SWAP1 DIV PUSH1 0xFF AND DUP2 JUMP JUMPDEST PUSH0 PUSH1 0x5 PUSH0 SWAP1 SLOAD SWAP1 PUSH2 0x100 EXP SWAP1 DIV PUSH1 0xFF AND SWAP1 POP SWAP1 JUMP JUMPDEST PUSH0 DUP1 PUSH20 0xFFFFFFFFFFFFFFFFFFFFFFFFFFFFFFFFFFFFFFFF AND DUP4 PUSH20 0xFFFFFFFFFFFFFFFFFFFFFFFFFFFFFFFFFFFFFFFF AND SUB PUSH2 0x8DD JUMPI PUSH1 0x40 MLOAD PUSH32 0x8C379A000000000000000000000000000000000000000000000000000000000 DUP2 MSTORE PUSH1 0x4 ADD PUSH2 0x8D4 SWAP1 PUSH2 0x1A3B JUMP JUMPDEST PUSH1 0x40 MLOAD DUP1 SWAP2 SUB SWAP1 REVERT JUMPDEST PUSH2 0x968 DUP3 PUSH1 0x7 PUSH0 CALLER PUSH20 0xFFFFFFFFFFFFFFFFFFFFFFFFFFFFFFFFFFFFFFFF AND PUSH20 0xFFFFFFFFFFFFFFFFFFFFFFFFFFFFFFFFFFFFFFFF AND DUP2 MSTORE PUSH1 0x20 ADD SWAP1 DUP2 MSTORE PUSH1 0x20 ADD PUSH0 KECCAK256 PUSH0 DUP7 PUSH20 0xFFFFFFFFFFFFFFFFFFFFFFFFFFFFFFFFFFFFFFFF AND PUSH20 0xFFFFFFFFFFFFFFFFFFFFFFFFFFFFFFFFFFFFFFFF AND DUP2 MSTORE PUSH1 0x20 ADD SWAP1 DUP2 MSTORE PUSH1 0x20 ADD PUSH0 KECCAK256 SLOAD PUSH2 0x164E SWAP1 SWAP2 SWAP1 PUSH4 0xFFFFFFFF AND JUMP JUMPDEST PUSH1 0x7 PUSH0 CALLER PUSH20 0xFFFFFFFFFFFFFFFFFFFFFFFFFFFFFFFFFFFFFFFF AND PUSH20 0xFFFFFFFFFFFFFFFFFFFFFFFFFFFFFFFFFFFFFFFF AND DUP2 MSTORE PUSH1 0x20 ADD SWAP1 DUP2 MSTORE PUSH1 0x20 ADD PUSH0 KECCAK256 PUSH0 DUP6 PUSH20 0xFFFFFFFFFFFFFFFFFFFFFFFFFFFFFFFFFFFFFFFF AND PUSH20 0xFFFFFFFFFFFFFFFFFFFFFFFFFFFFFFFFFFFFFFFF AND DUP2 MSTORE PUSH1 0x20 ADD SWAP1 DUP2 MSTORE PUSH1 0x20 ADD PUSH0 KECCAK256 DUP2 SWAP1 SSTORE POP DUP3 PUSH20 0xFFFFFFFFFFFFFFFFFFFFFFFFFFFFFFFFFFFFFFFF AND CALLER PUSH20 0xFFFFFFFFFFFFFFFFFFFFFFFFFFFFFFFFFFFFFFFF AND PUSH32 0x8C5BE1E5EBEC7D5BD14F71427D1E84F3DD0314C0F7B2291E5B200AC8C7C3B925 PUSH1 0x7 PUSH0 CALLER PUSH20 0xFFFFFFFFFFFFFFFFFFFFFFFFFFFFFFFFFFFFFFFF AND PUSH20 0xFFFFFFFFFFFFFFFFFFFFFFFFFFFFFFFFFFFFFFFF AND DUP2 MSTORE PUSH1 0x20 ADD SWAP1 DUP2 MSTORE PUSH1 0x20 ADD PUSH0 KECCAK256 PUSH0 DUP8 PUSH20 0xFFFFFFFFFFFFFFFFFFFFFFFFFFFFFFFFFFFFFFFF AND PUSH20 0xFFFFFFFFFFFFFFFFFFFFFFFFFFFFFFFFFFFFFFFF AND DUP2 MSTORE PUSH1 0x20 ADD SWAP1 DUP2 MSTORE PUSH1 0x20 ADD PUSH0 KECCAK256 SLOAD PUSH1 0x40 MLOAD PUSH2 0xAB9 SWAP2 SWAP1 PUSH2 0x1866 JUMP JUMPDEST PUSH1 0x40 MLOAD DUP1 SWAP2 SUB SWAP1 LOG3 PUSH1 0x1 SWAP1 POP SWAP3 SWAP2 POP POP JUMP JUMPDEST PUSH1 0x1 PUSH0 SWAP1 SLOAD SWAP1 PUSH2 0x100 EXP SWAP1 DIV PUSH20 0xFFFFFFFFFFFFFFFFFFFFFFFFFFFFFFFFFFFFFFFF AND PUSH20 0xFFFFFFFFFFFFFFFFFFFFFFFFFFFFFFFFFFFFFFFF AND CALLER PUSH20 0xFFFFFFFFFFFFFFFFFFFFFFFFFFFFFFFFFFFFFFFF AND EQ PUSH2 0xB5A JUMPI PUSH1 0x40 MLOAD PUSH32 0x8C379A000000000000000000000000000000000000000000000000000000000 DUP2 MSTORE PUSH1 0x4 ADD PUSH2 0xB51 SWAP1 PUSH2 0x1AA3 JUMP JUMPDEST PUSH1 0x40 MLOAD DUP1 SWAP2 SUB SWAP1 REVERT JUMPDEST PUSH0 DUP1 PUSH0 SWAP1 SLOAD SWAP1 PUSH2 0x100 EXP SWAP1 DIV PUSH20 0xFFFFFFFFFFFFFFFFFFFFFFFFFFFFFFFFFFFFFFFF AND SWAP1 POP CALLER PUSH0 DUP1 PUSH2 0x100 EXP DUP2 SLOAD DUP2 PUSH20 0xFFFFFFFFFFFFFFFFFFFFFFFFFFFFFFFFFFFFFFFF MUL NOT AND SWAP1 DUP4 PUSH20 0xFFFFFFFFFFFFFFFFFFFFFFFFFFFFFFFFFFFFFFFF AND MUL OR SWAP1 SSTORE POP PUSH0 PUSH1 0x1 PUSH0 PUSH2 0x100 EXP DUP2 SLOAD DUP2 PUSH20 0xFFFFFFFFFFFFFFFFFFFFFFFFFFFFFFFFFFFFFFFF MUL NOT AND SWAP1 DUP4 PUSH20 0xFFFFFFFFFFFFFFFFFFFFFFFFFFFFFFFFFFFFFFFF AND MUL OR SWAP1 SSTORE POP CALLER PUSH20 0xFFFFFFFFFFFFFFFFFFFFFFFFFFFFFFFFFFFFFFFF AND DUP2 PUSH20 0xFFFFFFFFFFFFFFFFFFFFFFFFFFFFFFFFFFFFFFFF AND PUSH32 0x8BE0079C531659141344CD1FD0A4F28419497F9722A3DAAFE3B4186F6B6457E0 PUSH1 0x40 MLOAD PUSH1 0x40 MLOAD DUP1 SWAP2 SUB SWAP1 LOG3 POP JUMP JUMPDEST PUSH0 PUSH1 0x6 PUSH0 DUP4 PUSH20 0xFFFFFFFFFFFFFFFFFFFFFFFFFFFFFFFFFFFFFFFF AND PUSH20 0xFFFFFFFFFFFFFFFFFFFFFFFFFFFFFFFFFFFFFFFF AND DUP2 MSTORE PUSH1 0x20 ADD SWAP1 DUP2 MSTORE PUSH1 0x20 ADD PUSH0 KECCAK256 SLOAD SWAP1 POP SWAP2 SWAP1 POP JUMP JUMPDEST PUSH0 DUP1 PUSH0 SWAP1 SLOAD SWAP1 PUSH2 0x100 EXP SWAP1 DIV PUSH20 0xFFFFFFFFFFFFFFFFFFFFFFFFFFFFFFFFFFFFFFFF AND SWAP1 POP SWAP1 JUMP JUMPDEST PUSH0 DUP1 SLOAD SWAP1 PUSH2 0x100 EXP SWAP1 DIV PUSH20 0xFFFFFFFFFFFFFFFFFFFFFFFFFFFFFFFFFFFFFFFF AND DUP2 JUMP JUMPDEST PUSH0 CALLER PUSH20 0xFFFFFFFFFFFFFFFFFFFFFFFFFFFFFFFFFFFFFFFF AND PUSH0 DUP1 SLOAD SWAP1 PUSH2 0x100 EXP SWAP1 DIV PUSH20 0xFFFFFFFFFFFFFFFFFFFFFFFFFFFFFFFFFFFFFFFF AND PUSH20 0xFFFFFFFFFFFFFFFFFFFFFFFFFFFFFFFFFFFFFFFF AND EQ SWAP1 POP SWAP1 JUMP JUMPDEST PUSH1 0x60 PUSH1 0x4 DUP1 SLOAD PUSH2 0xD4D SWAP1 PUSH2 0x19C1 JUMP JUMPDEST DUP1 PUSH1 0x1F ADD PUSH1 0x20 DUP1 SWAP2 DIV MUL PUSH1 0x20 ADD PUSH1 0x40 MLOAD SWAP1 DUP2 ADD PUSH1 0x40 MSTORE DUP1 SWAP3 SWAP2 SWAP1 DUP2 DUP2 MSTORE PUSH1 0x20 ADD DUP3 DUP1 SLOAD PUSH2 0xD79 SWAP1 PUSH2 0x19C1 JUMP JUMPDEST DUP1 ISZERO PUSH2 0xDC4 JUMPI DUP1 PUSH1 0x1F LT PUSH2 0xD9B JUMPI PUSH2 0x100 DUP1 DUP4 SLOAD DIV MUL DUP4 MSTORE SWAP2 PUSH1 0x20 ADD SWAP2 PUSH2 0xDC4 JUMP JUMPDEST DUP3 ADD SWAP2 SWAP1 PUSH0 MSTORE PUSH1 0x20 PUSH0 KECCAK256 SWAP1 JUMPDEST DUP2 SLOAD DUP2 MSTORE SWAP1 PUSH1 0x1 ADD SWAP1 PUSH1 0x20 ADD DUP1 DUP4 GT PUSH2 0xDA7 JUMPI DUP3 SWAP1 SUB PUSH1 0x1F AND DUP3 ADD SWAP2 JUMPDEST POP POP POP POP POP SWAP1 POP SWAP1 JUMP JUMPDEST PUSH0 PUSH1 0x9 SLOAD SWAP1 POP SWAP1 JUMP JUMPDEST PUSH0 PUSH2 0xDE0 PUSH2 0xCEA JUMP JUMPDEST PUSH2 0xE1F JUMPI PUSH1 0x40 MLOAD PUSH32 0x8C379A000000000000000000000000000000000000000000000000000000000 DUP2 MSTORE PUSH1 0x4 ADD PUSH2 0xE16 SWAP1 PUSH2 0x1B0B JUMP JUMPDEST PUSH1 0x40 MLOAD DUP1 SWAP2 SUB SWAP1 REVERT JUMPDEST PUSH0 ISZERO ISZERO PUSH1 0x2 PUSH0 DUP5 PUSH20 0xFFFFFFFFFFFFFFFFFFFFFFFFFFFFFFFFFFFFFFFF AND PUSH20 0xFFFFFFFFFFFFFFFFFFFFFFFFFFFFFFFFFFFFFFFF AND DUP2 MSTORE PUSH1 0x20 ADD SWAP1 DUP2 MSTORE PUSH1 0x20 ADD PUSH0 KECCAK256 PUSH0 SWAP1 SLOAD SWAP1 PUSH2 0x100 EXP SWAP1 DIV PUSH1 0xFF AND ISZERO ISZERO SUB PUSH2 0xEC9 JUMPI PUSH1 0x1 PUSH1 0x2 PUSH0 DUP5 PUSH20 0xFFFFFFFFFFFFFFFFFFFFFFFFFFFFFFFFFFFFFFFF AND PUSH20 0xFFFFFFFFFFFFFFFFFFFFFFFFFFFFFFFFFFFFFFFF AND DUP2 MSTORE PUSH1 0x20 ADD SWAP1 DUP2 MSTORE PUSH1 0x20 ADD PUSH0 KECCAK256 PUSH0 PUSH2 0x100 EXP DUP2 SLOAD DUP2 PUSH1 0xFF MUL NOT AND SWAP1 DUP4 ISZERO ISZERO MUL OR SWAP1 SSTORE POP JUMPDEST PUSH32 0x14A1A2D641F8BD1A49A31F4FD8B2E951F722E0207F936A64B44411340A52A4E6 DUP3 PUSH1 0x40 MLOAD PUSH2 0xEF8 SWAP2 SWAP1 PUSH2 0x193D JUMP JUMPDEST PUSH1 0x40 MLOAD DUP1 SWAP2 SUB SWAP1 LOG1 PUSH1 0x1 SWAP1 POP SWAP2 SWAP1 POP JUMP JUMPDEST PUSH0 DUP1 PUSH20 0xFFFFFFFFFFFFFFFFFFFFFFFFFFFFFFFFFFFFFFFF AND DUP4 PUSH20 0xFFFFFFFFFFFFFFFFFFFFFFFFFFFFFFFFFFFFFFFF AND SUB PUSH2 0xF78 JUMPI PUSH1 0x40 MLOAD PUSH32 0x8C379A000000000000000000000000000000000000000000000000000000000 DUP2 MSTORE PUSH1 0x4 ADD PUSH2 0xF6F SWAP1 PUSH2 0x1A3B JUMP JUMPDEST PUSH1 0x40 MLOAD DUP1 SWAP2 SUB SWAP1 REVERT JUMPDEST PUSH2 0x1003 DUP3 PUSH1 0x7 PUSH0 CALLER PUSH20 0xFFFFFFFFFFFFFFFFFFFFFFFFFFFFFFFFFFFFFFFF AND PUSH20 0xFFFFFFFFFFFFFFFFFFFFFFFFFFFFFFFFFFFFFFFF AND DUP2 MSTORE PUSH1 0x20 ADD SWAP1 DUP2 MSTORE PUSH1 0x20 ADD PUSH0 KECCAK256 PUSH0 DUP7 PUSH20 0xFFFFFFFFFFFFFFFFFFFFFFFFFFFFFFFFFFFFFFFF AND PUSH20 0xFFFFFFFFFFFFFFFFFFFFFFFFFFFFFFFFFFFFFFFF AND DUP2 MSTORE PUSH1 0x20 ADD SWAP1 DUP2 MSTORE PUSH1 0x20 ADD PUSH0 KECCAK256 SLOAD PUSH2 0x1389 SWAP1 SWAP2 SWAP1 PUSH4 0xFFFFFFFF AND JUMP JUMPDEST PUSH1 0x7 PUSH0 CALLER PUSH20 0xFFFFFFFFFFFFFFFFFFFFFFFFFFFFFFFFFFFFFFFF AND PUSH20 0xFFFFFFFFFFFFFFFFFFFFFFFFFFFFFFFFFFFFFFFF AND DUP2 MSTORE PUSH1 0x20 ADD SWAP1 DUP2 MSTORE PUSH1 0x20 ADD PUSH0 KECCAK256 PUSH0 DUP6 PUSH20 0xFFFFFFFFFFFFFFFFFFFFFFFFFFFFFFFFFFFFFFFF AND PUSH20 0xFFFFFFFFFFFFFFFFFFFFFFFFFFFFFFFFFFFFFFFF AND DUP2 MSTORE PUSH1 0x20 ADD SWAP1 DUP2 MSTORE PUSH1 0x20 ADD PUSH0 KECCAK256 DUP2 SWAP1 SSTORE POP DUP3 PUSH20 0xFFFFFFFFFFFFFFFFFFFFFFFFFFFFFFFFFFFFFFFF AND CALLER PUSH20 0xFFFFFFFFFFFFFFFFFFFFFFFFFFFFFFFFFFFFFFFF AND PUSH32 0x8C5BE1E5EBEC7D5BD14F71427D1E84F3DD0314C0F7B2291E5B200AC8C7C3B925 PUSH1 0x7 PUSH0 CALLER PUSH20 0xFFFFFFFFFFFFFFFFFFFFFFFFFFFFFFFFFFFFFFFF AND PUSH20 0xFFFFFFFFFFFFFFFFFFFFFFFFFFFFFFFFFFFFFFFF AND DUP2 MSTORE PUSH1 0x20 ADD SWAP1 DUP2 MSTORE PUSH1 0x20 ADD PUSH0 KECCAK256 PUSH0 DUP8 PUSH20 0xFFFFFFFFFFFFFFFFFFFFFFFFFFFFFFFFFFFFFFFF AND PUSH20 0xFFFFFFFFFFFFFFFFFFFFFFFFFFFFFFFFFFFFFFFF AND DUP2 MSTORE PUSH1 0x20 ADD SWAP1 DUP2 MSTORE PUSH1 0x20 ADD PUSH0 KECCAK256 SLOAD PUSH1 0x40 MLOAD PUSH2 0x1154 SWAP2 SWAP1 PUSH2 0x1866 JUMP JUMPDEST PUSH1 0x40 MLOAD DUP1 SWAP2 SUB SWAP1 LOG3 PUSH1 0x1 SWAP1 POP SWAP3 SWAP2 POP POP JUMP JUMPDEST PUSH0 PUSH2 0x116F PUSH2 0xCEA JUMP JUMPDEST PUSH2 0x11AE JUMPI PUSH1 0x40 MLOAD PUSH32 0x8C379A000000000000000000000000000000000000000000000000000000000 DUP2 MSTORE PUSH1 0x4 ADD PUSH2 0x11A5 SWAP1 PUSH2 0x1B0B JUMP JUMPDEST PUSH1 0x40 MLOAD DUP1 SWAP2 SUB SWAP1 REVERT JUMPDEST PUSH0 PUSH1 0x2 PUSH0 DUP5 PUSH20 0xFFFFFFFFFFFFFFFFFFFFFFFFFFFFFFFFFFFFFFFF AND PUSH20 0xFFFFFFFFFFFFFFFFFFFFFFFFFFFFFFFFFFFFFFFF AND DUP2 MSTORE PUSH1 0x20 ADD SWAP1 DUP2 MSTORE PUSH1 0x20 ADD PUSH0 KECCAK256 PUSH0 PUSH2 0x100 EXP DUP2 SLOAD DUP2 PUSH1 0xFF MUL NOT AND SWAP1 DUP4 ISZERO ISZERO MUL OR SWAP1 SSTORE POP PUSH32 0x8CB585DF559166007784FCCDDDBB80E0EFD7C7B40A2D015A911A595825F74B10 DUP3 PUSH1 0x40 MLOAD PUSH2 0x1231 SWAP2 SWAP1 PUSH2 0x193D JUMP JUMPDEST PUSH1 0x40 MLOAD DUP1 SWAP2 SUB SWAP1 LOG1 PUSH1 0x1 SWAP1 POP SWAP2 SWAP1 POP JUMP JUMPDEST PUSH0 PUSH2 0x124E CALLER DUP5 DUP5 PUSH2 0x13E6 JUMP JUMPDEST PUSH1 0x1 SWAP1 POP SWAP3 SWAP2 POP POP JUMP JUMPDEST PUSH0 PUSH1 0x7 PUSH0 DUP5 PUSH20 0xFFFFFFFFFFFFFFFFFFFFFFFFFFFFFFFFFFFFFFFF AND PUSH20 0xFFFFFFFFFFFFFFFFFFFFFFFFFFFFFFFFFFFFFFFF AND DUP2 MSTORE PUSH1 0x20 ADD SWAP1 DUP2 MSTORE PUSH1 0x20 ADD PUSH0 KECCAK256 PUSH0 DUP4 PUSH20 0xFFFFFFFFFFFFFFFFFFFFFFFFFFFFFFFFFFFFFFFF AND PUSH20 0xFFFFFFFFFFFFFFFFFFFFFFFFFFFFFFFFFFFFFFFF AND DUP2 MSTORE PUSH1 0x20 ADD SWAP1 DUP2 MSTORE PUSH1 0x20 ADD PUSH0 KECCAK256 SLOAD SWAP1 POP SWAP3 SWAP2 POP POP JUMP JUMPDEST PUSH1 0x1 PUSH0 SWAP1 SLOAD SWAP1 PUSH2 0x100 EXP SWAP1 DIV PUSH20 0xFFFFFFFFFFFFFFFFFFFFFFFFFFFFFFFFFFFFFFFF AND DUP2 JUMP JUMPDEST PUSH2 0x1307 PUSH2 0xCEA JUMP JUMPDEST PUSH2 0x1346 JUMPI PUSH1 0x40 MLOAD PUSH32 0x8C379A000000000000000000000000000000000000000000000000000000000 DUP2 MSTORE PUSH1 0x4 ADD PUSH2 0x133D SWAP1 PUSH2 0x1B0B JUMP JUMPDEST PUSH1 0x40 MLOAD DUP1 SWAP2 SUB SWAP1 REVERT JUMPDEST DUP1 PUSH1 0x1 PUSH0 PUSH2 0x100 EXP DUP2 SLOAD DUP2 PUSH20 0xFFFFFFFFFFFFFFFFFFFFFFFFFFFFFFFFFFFFFFFF MUL NOT AND SWAP1 DUP4 PUSH20 0xFFFFFFFFFFFFFFFFFFFFFFFFFFFFFFFFFFFFFFFF AND MUL OR SWAP1 SSTORE POP POP JUMP JUMPDEST PUSH0 DUP3 DUP3 GT ISZERO PUSH2 0x13CD JUMPI PUSH1 0x40 MLOAD PUSH32 0x8C379A000000000000000000000000000000000000000000000000000000000 DUP2 MSTORE PUSH1 0x4 ADD PUSH2 0x13C4 SWAP1 PUSH2 0x1B73 JUMP JUMPDEST PUSH1 0x40 MLOAD DUP1 SWAP2 SUB SWAP1 REVERT JUMPDEST PUSH0 DUP3 DUP5 PUSH2 0x13DA SWAP2 SWAP1 PUSH2 0x1BBE JUMP JUMPDEST SWAP1 POP DUP1 SWAP2 POP POP SWAP3 SWAP2 POP POP JUMP JUMPDEST PUSH0 PUSH20 0xFFFFFFFFFFFFFFFFFFFFFFFFFFFFFFFFFFFFFFFF AND DUP4 PUSH20 0xFFFFFFFFFFFFFFFFFFFFFFFFFFFFFFFFFFFFFFFF AND SUB PUSH2 0x1454 JUMPI PUSH1 0x40 MLOAD PUSH32 0x8C379A000000000000000000000000000000000000000000000000000000000 DUP2 MSTORE PUSH1 0x4 ADD PUSH2 0x144B SWAP1 PUSH2 0x1C3B JUMP JUMPDEST PUSH1 0x40 MLOAD DUP1 SWAP2 SUB SWAP1 REVERT JUMPDEST PUSH0 PUSH20 0xFFFFFFFFFFFFFFFFFFFFFFFFFFFFFFFFFFFFFFFF AND DUP3 PUSH20 0xFFFFFFFFFFFFFFFFFFFFFFFFFFFFFFFFFFFFFFFF AND SUB PUSH2 0x14C2 JUMPI PUSH1 0x40 MLOAD PUSH32 0x8C379A000000000000000000000000000000000000000000000000000000000 DUP2 MSTORE PUSH1 0x4 ADD PUSH2 0x14B9 SWAP1 PUSH2 0x1CA3 JUMP JUMPDEST PUSH1 0x40 MLOAD DUP1 SWAP2 SUB SWAP1 REVERT JUMPDEST PUSH2 0x1512 DUP2 PUSH1 0x6 PUSH0 DUP7 PUSH20 0xFFFFFFFFFFFFFFFFFFFFFFFFFFFFFFFFFFFFFFFF AND PUSH20 0xFFFFFFFFFFFFFFFFFFFFFFFFFFFFFFFFFFFFFFFF AND DUP2 MSTORE PUSH1 0x20 ADD SWAP1 DUP2 MSTORE PUSH1 0x20 ADD PUSH0 KECCAK256 SLOAD PUSH2 0x1389 SWAP1 SWAP2 SWAP1 PUSH4 0xFFFFFFFF AND JUMP JUMPDEST PUSH1 0x6 PUSH0 DUP6 PUSH20 0xFFFFFFFFFFFFFFFFFFFFFFFFFFFFFFFFFFFFFFFF AND PUSH20 0xFFFFFFFFFFFFFFFFFFFFFFFFFFFFFFFFFFFFFFFF AND DUP2 MSTORE PUSH1 0x20 ADD SWAP1 DUP2 MSTORE PUSH1 0x20 ADD PUSH0 KECCAK256 DUP2 SWAP1 SSTORE POP PUSH2 0x15A3 DUP2 PUSH1 0x6 PUSH0 DUP6 PUSH20 0xFFFFFFFFFFFFFFFFFFFFFFFFFFFFFFFFFFFFFFFF AND PUSH20 0xFFFFFFFFFFFFFFFFFFFFFFFFFFFFFFFFFFFFFFFF AND DUP2 MSTORE PUSH1 0x20 ADD SWAP1 DUP2 MSTORE PUSH1 0x20 ADD PUSH0 KECCAK256 SLOAD PUSH2 0x164E SWAP1 SWAP2 SWAP1 PUSH4 0xFFFFFFFF AND JUMP JUMPDEST PUSH1 0x6 PUSH0 DUP5 PUSH20 0xFFFFFFFFFFFFFFFFFFFFFFFFFFFFFFFFFFFFFFFF AND PUSH20 0xFFFFFFFFFFFFFFFFFFFFFFFFFFFFFFFFFFFFFFFF AND DUP2 MSTORE PUSH1 0x20 ADD SWAP1 DUP2 MSTORE PUSH1 0x20 ADD PUSH0 KECCAK256 DUP2 SWAP1 SSTORE POP DUP2 PUSH20 0xFFFFFFFFFFFFFFFFFFFFFFFFFFFFFFFFFFFFFFFF AND DUP4 PUSH20 0xFFFFFFFFFFFFFFFFFFFFFFFFFFFFFFFFFFFFFFFF AND PUSH32 0xDDF252AD1BE2C89B69C2B068FC378DAA952BA7F163C4A11628F55A4DF523B3EF DUP4 PUSH1 0x40 MLOAD PUSH2 0x1641 SWAP2 SWAP1 PUSH2 0x1866 JUMP JUMPDEST PUSH1 0x40 MLOAD DUP1 SWAP2 SUB SWAP1 LOG3 POP POP POP JUMP JUMPDEST PUSH0 DUP1 DUP3 DUP5 PUSH2 0x165C SWAP2 SWAP1 PUSH2 0x1CC1 JUMP JUMPDEST SWAP1 POP DUP4 DUP2 LT ISZERO PUSH2 0x16A1 JUMPI PUSH1 0x40 MLOAD PUSH32 0x8C379A000000000000000000000000000000000000000000000000000000000 DUP2 MSTORE PUSH1 0x4 ADD PUSH2 0x1698 SWAP1 PUSH2 0x1D3E JUMP JUMPDEST PUSH1 0x40 MLOAD DUP1 SWAP2 SUB SWAP1 REVERT JUMPDEST DUP1 SWAP2 POP POP SWAP3 SWAP2 POP POP JUMP JUMPDEST PUSH0 DUP2 MLOAD SWAP1 POP SWAP2 SWAP1 POP JUMP JUMPDEST PUSH0 DUP3 DUP3 MSTORE PUSH1 0x20 DUP3 ADD SWAP1 POP SWAP3 SWAP2 POP POP JUMP JUMPDEST PUSH0 JUMPDEST DUP4 DUP2 LT ISZERO PUSH2 0x16E2 JUMPI DUP1 DUP3 ADD MLOAD DUP2 DUP5 ADD MSTORE PUSH1 0x20 DUP2 ADD SWAP1 POP PUSH2 0x16C7 JUMP JUMPDEST PUSH0 DUP5 DUP5 ADD MSTORE POP POP POP POP JUMP JUMPDEST PUSH0 PUSH1 0x1F NOT PUSH1 0x1F DUP4 ADD AND SWAP1 POP SWAP2 SWAP1 POP JUMP JUMPDEST PUSH0 PUSH2 0x1707 DUP3 PUSH2 0x16AB JUMP JUMPDEST PUSH2 0x1711 DUP2 DUP6 PUSH2 0x16B5 JUMP JUMPDEST SWAP4 POP PUSH2 0x1721 DUP2 DUP6 PUSH1 0x20 DUP7 ADD PUSH2 0x16C5 JUMP JUMPDEST PUSH2 0x172A DUP2 PUSH2 0x16ED JUMP JUMPDEST DUP5 ADD SWAP2 POP POP SWAP3 SWAP2 POP POP JUMP JUMPDEST PUSH0 PUSH1 0x20 DUP3 ADD SWAP1 POP DUP2 DUP2 SUB PUSH0 DUP4 ADD MSTORE PUSH2 0x174D DUP2 DUP5 PUSH2 0x16FD JUMP JUMPDEST SWAP1 POP SWAP3 SWAP2 POP POP JUMP JUMPDEST PUSH0 DUP1 REVERT JUMPDEST PUSH0 PUSH20 0xFFFFFFFFFFFFFFFFFFFFFFFFFFFFFFFFFFFFFFFF DUP3 AND SWAP1 POP SWAP2 SWAP1 POP JUMP JUMPDEST PUSH0 PUSH2 0x1782 DUP3 PUSH2 0x1759 JUMP JUMPDEST SWAP1 POP SWAP2 SWAP1 POP JUMP JUMPDEST PUSH2 0x1792 DUP2 PUSH2 0x1778 JUMP JUMPDEST DUP2 EQ PUSH2 0x179C JUMPI PUSH0 DUP1 REVERT JUMPDEST POP JUMP JUMPDEST PUSH0 DUP2 CALLDATALOAD SWAP1 POP PUSH2 0x17AD DUP2 PUSH2 0x1789 JUMP JUMPDEST SWAP3 SWAP2 POP POP JUMP JUMPDEST PUSH0 DUP2 SWAP1 POP SWAP2 SWAP1 POP JUMP JUMPDEST PUSH2 0x17C5 DUP2 PUSH2 0x17B3 JUMP JUMPDEST DUP2 EQ PUSH2 0x17CF JUMPI PUSH0 DUP1 REVERT JUMPDEST POP JUMP JUMPDEST PUSH0 DUP2 CALLDATALOAD SWAP1 POP PUSH2 0x17E0 DUP2 PUSH2 0x17BC JUMP JUMPDEST SWAP3 SWAP2 POP POP JUMP JUMPDEST PUSH0 DUP1 PUSH1 0x40 DUP4 DUP6 SUB SLT ISZERO PUSH2 0x17FC JUMPI PUSH2 0x17FB PUSH2 0x1755 JUMP JUMPDEST JUMPDEST PUSH0 PUSH2 0x1809 DUP6 DUP3 DUP7 ADD PUSH2 0x179F JUMP JUMPDEST SWAP3 POP POP PUSH1 0x20 PUSH2 0x181A DUP6 DUP3 DUP7 ADD PUSH2 0x17D2 JUMP JUMPDEST SWAP2 POP POP SWAP3 POP SWAP3 SWAP1 POP JUMP JUMPDEST PUSH0 DUP2 ISZERO ISZERO SWAP1 POP SWAP2 SWAP1 POP JUMP JUMPDEST PUSH2 0x1838 DUP2 PUSH2 0x1824 JUMP JUMPDEST DUP3 MSTORE POP POP JUMP JUMPDEST PUSH0 PUSH1 0x20 DUP3 ADD SWAP1 POP PUSH2 0x1851 PUSH0 DUP4 ADD DUP5 PUSH2 0x182F JUMP JUMPDEST SWAP3 SWAP2 POP POP JUMP JUMPDEST PUSH2 0x1860 DUP2 PUSH2 0x17B3 JUMP JUMPDEST DUP3 MSTORE POP POP JUMP JUMPDEST PUSH0 PUSH1 0x20 DUP3 ADD SWAP1 POP PUSH2 0x1879 PUSH0 DUP4 ADD DUP5 PUSH2 0x1857 JUMP JUMPDEST SWAP3 SWAP2 POP POP JUMP JUMPDEST PUSH0 DUP1 PUSH0 PUSH1 0x60 DUP5 DUP7 SUB SLT ISZERO PUSH2 0x1896 JUMPI PUSH2 0x1895 PUSH2 0x1755 JUMP JUMPDEST JUMPDEST PUSH0 PUSH2 0x18A3 DUP7 DUP3 DUP8 ADD PUSH2 0x179F JUMP JUMPDEST SWAP4 POP POP PUSH1 0x20 PUSH2 0x18B4 DUP7 DUP3 DUP8 ADD PUSH2 0x179F JUMP JUMPDEST SWAP3 POP POP PUSH1 0x40 PUSH2 0x18C5 DUP7 DUP3 DUP8 ADD PUSH2 0x17D2 JUMP JUMPDEST SWAP2 POP POP SWAP3 POP SWAP3 POP SWAP3 JUMP JUMPDEST PUSH0 PUSH1 0x20 DUP3 DUP5 SUB SLT ISZERO PUSH2 0x18E4 JUMPI PUSH2 0x18E3 PUSH2 0x1755 JUMP JUMPDEST JUMPDEST PUSH0 PUSH2 0x18F1 DUP5 DUP3 DUP6 ADD PUSH2 0x179F JUMP JUMPDEST SWAP2 POP POP SWAP3 SWAP2 POP POP JUMP JUMPDEST PUSH0 PUSH1 0xFF DUP3 AND SWAP1 POP SWAP2 SWAP1 POP JUMP JUMPDEST PUSH2 0x190F DUP2 PUSH2 0x18FA JUMP JUMPDEST DUP3 MSTORE POP POP JUMP JUMPDEST PUSH0 PUSH1 0x20 DUP3 ADD SWAP1 POP PUSH2 0x1928 PUSH0 DUP4 ADD DUP5 PUSH2 0x1906 JUMP JUMPDEST SWAP3 SWAP2 POP POP JUMP JUMPDEST PUSH2 0x1937 DUP2 PUSH2 0x1778 JUMP JUMPDEST DUP3 MSTORE POP POP JUMP JUMPDEST PUSH0 PUSH1 0x20 DUP3 ADD SWAP1 POP PUSH2 0x1950 PUSH0 DUP4 ADD DUP5 PUSH2 0x192E JUMP JUMPDEST SWAP3 SWAP2 POP POP JUMP JUMPDEST PUSH0 DUP1 PUSH1 0x40 DUP4 DUP6 SUB SLT ISZERO PUSH2 0x196C JUMPI PUSH2 0x196B PUSH2 0x1755 JUMP JUMPDEST JUMPDEST PUSH0 PUSH2 0x1979 DUP6 DUP3 DUP7 ADD PUSH2 0x179F JUMP JUMPDEST SWAP3 POP POP PUSH1 0x20 PUSH2 0x198A DUP6 DUP3 DUP7 ADD PUSH2 0x179F JUMP JUMPDEST SWAP2 POP POP SWAP3 POP SWAP3 SWAP1 POP JUMP JUMPDEST PUSH32 0x4E487B7100000000000000000000000000000000000000000000000000000000 PUSH0 MSTORE PUSH1 0x22 PUSH1 0x4 MSTORE PUSH1 0x24 PUSH0 REVERT JUMPDEST PUSH0 PUSH1 0x2 DUP3 DIV SWAP1 POP PUSH1 0x1 DUP3 AND DUP1 PUSH2 0x19D8 JUMPI PUSH1 0x7F DUP3 AND SWAP2 POP JUMPDEST PUSH1 0x20 DUP3 LT DUP2 SUB PUSH2 0x19EB JUMPI PUSH2 0x19EA PUSH2 0x1994 JUMP JUMPDEST JUMPDEST POP SWAP2 SWAP1 POP JUMP JUMPDEST PUSH32 0x7370656E6465722063616E6E6F74206265206164647265737328302900000000 PUSH0 DUP3 ADD MSTORE POP JUMP JUMPDEST PUSH0 PUSH2 0x1A25 PUSH1 0x1C DUP4 PUSH2 0x16B5 JUMP JUMPDEST SWAP2 POP PUSH2 0x1A30 DUP3 PUSH2 0x19F1 JUMP JUMPDEST PUSH1 0x20 DUP3 ADD SWAP1 POP SWAP2 SWAP1 POP JUMP JUMPDEST PUSH0 PUSH1 0x20 DUP3 ADD SWAP1 POP DUP2 DUP2 SUB PUSH0 DUP4 ADD MSTORE PUSH2 0x1A52 DUP2 PUSH2 0x1A19 JUMP JUMPDEST SWAP1 POP SWAP2 SWAP1 POP JUMP JUMPDEST PUSH32 0x4E6F7420612070656E64696E67206F776E657200000000000000000000000000 PUSH0 DUP3 ADD MSTORE POP JUMP JUMPDEST PUSH0 PUSH2 0x1A8D PUSH1 0x13 DUP4 PUSH2 0x16B5 JUMP JUMPDEST SWAP2 POP PUSH2 0x1A98 DUP3 PUSH2 0x1A59 JUMP JUMPDEST PUSH1 0x20 DUP3 ADD SWAP1 POP SWAP2 SWAP1 POP JUMP JUMPDEST PUSH0 PUSH1 0x20 DUP3 ADD SWAP1 POP DUP2 DUP2 SUB PUSH0 DUP4 ADD MSTORE PUSH2 0x1ABA DUP2 PUSH2 0x1A81 JUMP JUMPDEST SWAP1 POP SWAP2 SWAP1 POP JUMP JUMPDEST PUSH32 0x4E6F74206120636F6E7472616374206F776E6572000000000000000000000000 PUSH0 DUP3 ADD MSTORE POP JUMP JUMPDEST PUSH0 PUSH2 0x1AF5 PUSH1 0x14 DUP4 PUSH2 0x16B5 JUMP JUMPDEST SWAP2 POP PUSH2 0x1B00 DUP3 PUSH2 0x1AC1 JUMP JUMPDEST PUSH1 0x20 DUP3 ADD SWAP1 POP SWAP2 SWAP1 POP JUMP JUMPDEST PUSH0 PUSH1 0x20 DUP3 ADD SWAP1 POP DUP2 DUP2 SUB PUSH0 DUP4 ADD MSTORE PUSH2 0x1B22 DUP2 PUSH2 0x1AE9 JUMP JUMPDEST SWAP1 POP SWAP2 SWAP1 POP JUMP JUMPDEST PUSH32 0x5355425F4552524F520000000000000000000000000000000000000000000000 PUSH0 DUP3 ADD MSTORE POP JUMP JUMPDEST PUSH0 PUSH2 0x1B5D PUSH1 0x9 DUP4 PUSH2 0x16B5 JUMP JUMPDEST SWAP2 POP PUSH2 0x1B68 DUP3 PUSH2 0x1B29 JUMP JUMPDEST PUSH1 0x20 DUP3 ADD SWAP1 POP SWAP2 SWAP1 POP JUMP JUMPDEST PUSH0 PUSH1 0x20 DUP3 ADD SWAP1 POP DUP2 DUP2 SUB PUSH0 DUP4 ADD MSTORE PUSH2 0x1B8A DUP2 PUSH2 0x1B51 JUMP JUMPDEST SWAP1 POP SWAP2 SWAP1 POP JUMP JUMPDEST PUSH32 0x4E487B7100000000000000000000000000000000000000000000000000000000 PUSH0 MSTORE PUSH1 0x11 PUSH1 0x4 MSTORE PUSH1 0x24 PUSH0 REVERT JUMPDEST PUSH0 PUSH2 0x1BC8 DUP3 PUSH2 0x17B3 JUMP JUMPDEST SWAP2 POP PUSH2 0x1BD3 DUP4 PUSH2 0x17B3 JUMP JUMPDEST SWAP3 POP DUP3 DUP3 SUB SWAP1 POP DUP2 DUP2 GT ISZERO PUSH2 0x1BEB JUMPI PUSH2 0x1BEA PUSH2 0x1B91 JUMP JUMPDEST JUMPDEST SWAP3 SWAP2 POP POP JUMP JUMPDEST PUSH32 0x66726F6D2063616E6E6F74206265206164647265737328302900000000000000 PUSH0 DUP3 ADD MSTORE POP JUMP JUMPDEST PUSH0 PUSH2 0x1C25 PUSH1 0x19 DUP4 PUSH2 0x16B5 JUMP JUMPDEST SWAP2 POP PUSH2 0x1C30 DUP3 PUSH2 0x1BF1 JUMP JUMPDEST PUSH1 0x20 DUP3 ADD SWAP1 POP SWAP2 SWAP1 POP JUMP JUMPDEST PUSH0 PUSH1 0x20 DUP3 ADD SWAP1 POP DUP2 DUP2 SUB PUSH0 DUP4 ADD MSTORE PUSH2 0x1C52 DUP2 PUSH2 0x1C19 JUMP JUMPDEST SWAP1 POP SWAP2 SWAP1 POP JUMP JUMPDEST PUSH32 0x746F2063616E6E6F742062652061646472657373283029000000000000000000 PUSH0 DUP3 ADD MSTORE POP JUMP JUMPDEST PUSH0 PUSH2 0x1C8D PUSH1 0x17 DUP4 PUSH2 0x16B5 JUMP JUMPDEST SWAP2 POP PUSH2 0x1C98 DUP3 PUSH2 0x1C59 JUMP JUMPDEST PUSH1 0x20 DUP3 ADD SWAP1 POP SWAP2 SWAP1 POP JUMP JUMPDEST PUSH0 PUSH1 0x20 DUP3 ADD SWAP1 POP DUP2 DUP2 SUB PUSH0 DUP4 ADD MSTORE PUSH2 0x1CBA DUP2 PUSH2 0x1C81 JUMP JUMPDEST SWAP1 POP SWAP2 SWAP1 POP JUMP JUMPDEST PUSH0 PUSH2 0x1CCB DUP3 PUSH2 0x17B3 JUMP JUMPDEST SWAP2 POP PUSH2 0x1CD6 DUP4 PUSH2 0x17B3 JUMP JUMPDEST SWAP3 POP DUP3 DUP3 ADD SWAP1 POP DUP1 DUP3 GT ISZERO PUSH2 0x1CEE JUMPI PUSH2 0x1CED PUSH2 0x1B91 JUMP JUMPDEST JUMPDEST SWAP3 SWAP2 POP POP JUMP JUMPDEST PUSH32 0x4144445F4552524F520000000000000000000000000000000000000000000000 PUSH0 DUP3 ADD MSTORE POP JUMP JUMPDEST PUSH0 PUSH2 0x1D28 PUSH1 0x9 DUP4 PUSH2 0x16B5 JUMP JUMPDEST SWAP2 POP PUSH2 0x1D33 DUP3 PUSH2 0x1CF4 JUMP JUMPDEST PUSH1 0x20 DUP3 ADD SWAP1 POP SWAP2 SWAP1 POP JUMP JUMPDEST PUSH0 PUSH1 0x20 DUP3 ADD SWAP1 POP DUP2 DUP2 SUB PUSH0 DUP4 ADD MSTORE PUSH2 0x1D55 DUP2 PUSH2 0x1D1C JUMP JUMPDEST SWAP1 POP SWAP2 SWAP1 POP JUMP INVALID LOG2 PUSH5 0x6970667358 0x22 SLT KECCAK256 PUSH29 0xF4642E1D552D2C449CD4BC98482862F0690A3553E28F15A6E17DE95903 SDIV PUSH9 0x64736F6C6343000816 STOP CALLER "
				},
				"gasEstimates": {
					"creation": {
						"codeDepositCost": "1514000",
						"executionCost": "infinite",
						"totalCost": "infinite"
					},
					"external": {
						"allowance(address,address)": "infinite",
						"appointAdmin(address)": "infinite",
						"approve(address,uint256)": "infinite",
						"balanceOf(address)": "2918",
						"claimOwnership()": "54600",
						"decimals()": "2496",
						"decreaseAllowance(address,uint256)": "infinite",
						"dismissAdmin(address)": "infinite",
						"getOwner()": "2626",
						"increaseAllowance(address,uint256)": "infinite",
						"isAdmin(address)": "2945",
						"isOwner()": "2532",
						"name()": "infinite",
						"owner()": "2528",
						"pendingOwner()": "2618",
						"symbol()": "infinite",
						"totalBurnt()": "2521",
						"totalSupply()": "2500",
						"transfer(address,uint256)": "infinite",
						"transferFrom(address,address,uint256)": "infinite",
						"transferOwnership(address)": "27047"
					},
					"internal": {
						"_burn(address,uint256)": "infinite",
						"_burnFrom(address,uint256)": "infinite",
						"_mint(address,uint256)": "infinite",
						"_transfer(address,address,uint256)": "infinite"
					}
				},
				"methodIdentifiers": {
					"allowance(address,address)": "dd62ed3e",
					"appointAdmin(address)": "98235663",
					"approve(address,uint256)": "095ea7b3",
					"balanceOf(address)": "70a08231",
					"claimOwnership()": "4e71e0c8",
					"decimals()": "313ce567",
					"decreaseAllowance(address,uint256)": "a457c2d7",
					"dismissAdmin(address)": "a69adc2c",
					"getOwner()": "893d20e8",
					"increaseAllowance(address,uint256)": "39509351",
					"isAdmin(address)": "24d7806c",
					"isOwner()": "8f32d59b",
					"name()": "06fdde03",
					"owner()": "8da5cb5b",
					"pendingOwner()": "e30c3978",
					"symbol()": "95d89b41",
					"totalBurnt()": "966ff650",
					"totalSupply()": "18160ddd",
					"transfer(address,uint256)": "a9059cbb",
					"transferFrom(address,address,uint256)": "23b872dd",
					"transferOwnership(address)": "f2fde38b"
				}
			},
			"storageLayout": {
				"storage": [
					{
						"astId": 732,
						"contract": "BEP20.sol:BEP20",
						"label": "owner",
						"offset": 0,
						"slot": "0",
						"type": "t_address"
					},
					{
						"astId": 783,
						"contract": "BEP20.sol:BEP20",
						"label": "pendingOwner",
						"offset": 0,
						"slot": "1",
						"type": "t_address"
					},
					{
						"astId": 8,
						"contract": "BEP20.sol:BEP20",
						"label": "isAdmin",
						"offset": 0,
						"slot": "2",
						"type": "t_mapping(t_address,t_bool)"
					},
					{
						"astId": 203,
						"contract": "BEP20.sol:BEP20",
						"label": "_name",
						"offset": 0,
						"slot": "3",
						"type": "t_string_storage"
					},
					{
						"astId": 205,
						"contract": "BEP20.sol:BEP20",
						"label": "_symbol",
						"offset": 0,
						"slot": "4",
						"type": "t_string_storage"
					},
					{
						"astId": 207,
						"contract": "BEP20.sol:BEP20",
						"label": "_decimals",
						"offset": 0,
						"slot": "5",
						"type": "t_uint8"
					},
					{
						"astId": 214,
						"contract": "BEP20.sol:BEP20",
						"label": "_balances",
						"offset": 0,
						"slot": "6",
						"type": "t_mapping(t_address,t_uint256)"
					},
					{
						"astId": 220,
						"contract": "BEP20.sol:BEP20",
						"label": "_allowed",
						"offset": 0,
						"slot": "7",
						"type": "t_mapping(t_address,t_mapping(t_address,t_uint256))"
					},
					{
						"astId": 222,
						"contract": "BEP20.sol:BEP20",
						"label": "_totalSupply",
						"offset": 0,
						"slot": "8",
						"type": "t_uint256"
					},
					{
						"astId": 224,
						"contract": "BEP20.sol:BEP20",
						"label": "_totalBurnt",
						"offset": 0,
						"slot": "9",
						"type": "t_uint256"
					}
				],
				"types": {
					"t_address": {
						"encoding": "inplace",
						"label": "address",
						"numberOfBytes": "20"
					},
					"t_bool": {
						"encoding": "inplace",
						"label": "bool",
						"numberOfBytes": "1"
					},
					"t_mapping(t_address,t_bool)": {
						"encoding": "mapping",
						"key": "t_address",
						"label": "mapping(address => bool)",
						"numberOfBytes": "32",
						"value": "t_bool"
					},
					"t_mapping(t_address,t_mapping(t_address,t_uint256))": {
						"encoding": "mapping",
						"key": "t_address",
						"label": "mapping(address => mapping(address => uint256))",
						"numberOfBytes": "32",
						"value": "t_mapping(t_address,t_uint256)"
					},
					"t_mapping(t_address,t_uint256)": {
						"encoding": "mapping",
						"key": "t_address",
						"label": "mapping(address => uint256)",
						"numberOfBytes": "32",
						"value": "t_uint256"
					},
					"t_string_storage": {
						"encoding": "bytes",
						"label": "string",
						"numberOfBytes": "32"
					},
					"t_uint256": {
						"encoding": "inplace",
						"label": "uint256",
						"numberOfBytes": "32"
					},
					"t_uint8": {
						"encoding": "inplace",
						"label": "uint8",
						"numberOfBytes": "1"
					}
				}
			},
			"userdoc": {
				"kind": "user",
				"methods": {},
				"version": 1
			}
		}
	}
}